{
    "_format": "hh-sol-artifact-1",
    "contractName": "NFTMinter",
    "sourceName": "contracts/NFTMinter.sol",
    "abi": [
        {
            "inputs": [],
            "stateMutability": "nonpayable",
            "type": "constructor"
        },
        {
            "anonymous": false,
            "inputs": [
                {
                    "indexed": true,
                    "internalType": "address",
                    "name": "owner",
                    "type": "address"
                },
                {
                    "indexed": true,
                    "internalType": "address",
                    "name": "approved",
                    "type": "address"
                },
                {
                    "indexed": true,
                    "internalType": "uint256",
                    "name": "tokenId",
                    "type": "uint256"
                }
            ],
            "name": "Approval",
            "type": "event"
        },
        {
            "anonymous": false,
            "inputs": [
                {
                    "indexed": true,
                    "internalType": "address",
                    "name": "owner",
                    "type": "address"
                },
                {
                    "indexed": true,
                    "internalType": "address",
                    "name": "operator",
                    "type": "address"
                },
                {
                    "indexed": false,
                    "internalType": "bool",
                    "name": "approved",
                    "type": "bool"
                }
            ],
            "name": "ApprovalForAll",
            "type": "event"
        },
        {
            "anonymous": false,
            "inputs": [
                {
                    "indexed": true,
                    "internalType": "address",
                    "name": "previousOwner",
                    "type": "address"
                },
                {
                    "indexed": true,
                    "internalType": "address",
                    "name": "newOwner",
                    "type": "address"
                }
            ],
            "name": "OwnershipTransferred",
            "type": "event"
        },
        {
            "anonymous": false,
            "inputs": [
                {
                    "indexed": true,
                    "internalType": "address",
                    "name": "from",
                    "type": "address"
                },
                {
                    "indexed": true,
                    "internalType": "address",
                    "name": "to",
                    "type": "address"
                },
                {
                    "indexed": true,
                    "internalType": "uint256",
                    "name": "tokenId",
                    "type": "uint256"
                }
            ],
            "name": "Transfer",
            "type": "event"
        },
        {
            "inputs": [
                {
                    "internalType": "uint256",
                    "name": "tokenId",
                    "type": "uint256"
                },
                {
                    "internalType": "address",
                    "name": "chosenBuyer",
                    "type": "address"
                }
            ],
            "name": "NFTOwnerStartEscrow",
            "outputs": [],
            "stateMutability": "nonpayable",
            "type": "function"
        },
        {
            "inputs": [],
            "name": "_tokenIdCounter",
            "outputs": [
                {
                    "internalType": "uint256",
                    "name": "_value",
                    "type": "uint256"
                }
            ],
            "stateMutability": "view",
            "type": "function"
        },
        {
            "inputs": [
                {
                    "internalType": "address",
                    "name": "to",
                    "type": "address"
                },
                {
                    "internalType": "uint256",
                    "name": "tokenId",
                    "type": "uint256"
                }
            ],
            "name": "approve",
            "outputs": [],
            "stateMutability": "nonpayable",
            "type": "function"
        },
        {
            "inputs": [
                {
                    "internalType": "address",
                    "name": "owner",
                    "type": "address"
                }
            ],
            "name": "balanceOf",
            "outputs": [
                {
                    "internalType": "uint256",
                    "name": "",
                    "type": "uint256"
                }
            ],
            "stateMutability": "view",
            "type": "function"
        },
        {
            "inputs": [
                {
                    "internalType": "address",
                    "name": "",
                    "type": "address"
                }
            ],
            "name": "buyerAddressToBuyerPayableAddress",
            "outputs": [
                {
                    "internalType": "address payable",
                    "name": "",
                    "type": "address"
                }
            ],
            "stateMutability": "view",
            "type": "function"
        },
        {
            "inputs": [
                {
                    "internalType": "address",
                    "name": "",
                    "type": "address"
                }
            ],
            "name": "buyerAddressToDownPayment",
            "outputs": [
                {
                    "internalType": "uint256",
                    "name": "",
                    "type": "uint256"
                }
            ],
            "stateMutability": "view",
            "type": "function"
        },
        {
            "inputs": [
                {
                    "internalType": "uint256",
                    "name": "tokenId",
                    "type": "uint256"
                }
            ],
            "name": "completePaymentAndEsrow",
            "outputs": [],
            "stateMutability": "payable",
            "type": "function"
        },
        {
            "inputs": [
                {
                    "internalType": "uint256",
                    "name": "tokenId",
                    "type": "uint256"
                },
                {
                    "internalType": "uint256",
                    "name": "_propertyPrice",
                    "type": "uint256"
                },
                {
                    "internalType": "uint256",
                    "name": "_downPayment",
                    "type": "uint256"
                }
            ],
            "name": "createPropertyListing",
            "outputs": [],
            "stateMutability": "nonpayable",
            "type": "function"
        },
        {
            "inputs": [
                {
                    "internalType": "uint256",
                    "name": "",
                    "type": "uint256"
                }
            ],
            "name": "downPayment",
            "outputs": [
                {
                    "internalType": "uint256",
                    "name": "",
                    "type": "uint256"
                }
            ],
            "stateMutability": "view",
            "type": "function"
        },
        {
            "inputs": [
                {
                    "internalType": "uint256",
                    "name": "tokenId",
                    "type": "uint256"
                }
            ],
            "name": "getApproved",
            "outputs": [
                {
                    "internalType": "address",
                    "name": "",
                    "type": "address"
                }
            ],
            "stateMutability": "view",
            "type": "function"
        },
        {
            "inputs": [],
            "name": "getCurrentTokenIdCounter",
            "outputs": [
                {
                    "internalType": "uint256",
                    "name": "",
                    "type": "uint256"
                }
            ],
            "stateMutability": "view",
            "type": "function"
        },
        {
            "inputs": [
                {
                    "internalType": "address",
                    "name": "owner",
                    "type": "address"
                },
                {
                    "internalType": "address",
                    "name": "operator",
                    "type": "address"
                }
            ],
            "name": "isApprovedForAll",
            "outputs": [
                {
                    "internalType": "bool",
                    "name": "",
                    "type": "bool"
                }
            ],
            "stateMutability": "view",
            "type": "function"
        },
        {
            "inputs": [
                {
                    "internalType": "string",
                    "name": "uri",
                    "type": "string"
                }
            ],
            "name": "isContentOwned",
            "outputs": [
                {
                    "internalType": "bool",
                    "name": "",
                    "type": "bool"
                }
            ],
            "stateMutability": "view",
            "type": "function"
        },
        {
            "inputs": [
                {
                    "internalType": "uint256",
                    "name": "",
                    "type": "uint256"
                }
            ],
            "name": "isTokenHeldByContract",
            "outputs": [
                {
                    "internalType": "bool",
                    "name": "",
                    "type": "bool"
                }
            ],
            "stateMutability": "view",
            "type": "function"
        },
        {
            "inputs": [
                {
                    "internalType": "uint256",
                    "name": "tokenId",
                    "type": "uint256"
                },
                {
                    "internalType": "address payable",
                    "name": "userPayableAddress",
                    "type": "address"
                }
            ],
            "name": "makeDownPayment",
            "outputs": [],
            "stateMutability": "payable",
            "type": "function"
        },
        {
            "inputs": [
                {
                    "internalType": "address",
                    "name": "recipient",
                    "type": "address"
                },
                {
                    "internalType": "string",
                    "name": "ipfsTitleDeedURI",
                    "type": "string"
                },
                {
                    "internalType": "string",
                    "name": "encryptedPropertyId",
                    "type": "string"
                }
            ],
            "name": "mintNFT",
            "outputs": [
                {
                    "internalType": "uint256",
                    "name": "",
                    "type": "uint256"
                }
            ],
            "stateMutability": "nonpayable",
            "type": "function"
        },
        {
            "inputs": [],
            "name": "name",
            "outputs": [
                {
                    "internalType": "string",
                    "name": "",
                    "type": "string"
                }
            ],
            "stateMutability": "view",
            "type": "function"
        },
        {
            "inputs": [],
            "name": "owner",
            "outputs": [
                {
                    "internalType": "address",
                    "name": "",
                    "type": "address"
                }
            ],
            "stateMutability": "view",
            "type": "function"
        },
        {
            "inputs": [
                {
                    "internalType": "uint256",
                    "name": "tokenId",
                    "type": "uint256"
                },
                {
                    "internalType": "string",
                    "name": "ipfsTitleDeedURI",
                    "type": "string"
                },
                {
                    "internalType": "string",
                    "name": "encryptedPropertyId",
                    "type": "string"
                }
            ],
            "name": "ownerAddPropertyId",
            "outputs": [],
            "stateMutability": "nonpayable",
            "type": "function"
        },
        {
            "inputs": [
                {
                    "internalType": "uint256",
                    "name": "tokenId",
                    "type": "uint256"
                }
            ],
            "name": "ownerOf",
            "outputs": [
                {
                    "internalType": "address",
                    "name": "",
                    "type": "address"
                }
            ],
            "stateMutability": "view",
            "type": "function"
        },
        {
            "inputs": [
                {
                    "internalType": "uint256",
                    "name": "",
                    "type": "uint256"
                }
            ],
            "name": "propertyPrice",
            "outputs": [
                {
                    "internalType": "uint256",
                    "name": "",
                    "type": "uint256"
                }
            ],
            "stateMutability": "view",
            "type": "function"
        },
        {
            "inputs": [
                {
                    "internalType": "uint256",
                    "name": "tokenId",
                    "type": "uint256"
                },
                {
                    "internalType": "address",
                    "name": "_buyerAddress",
                    "type": "address"
                }
            ],
            "name": "releaseDownPayment",
            "outputs": [],
            "stateMutability": "payable",
            "type": "function"
        },
        {
            "inputs": [],
            "name": "renounceOwnership",
            "outputs": [],
            "stateMutability": "nonpayable",
            "type": "function"
        },
        {
            "inputs": [
                {
                    "internalType": "address",
                    "name": "to",
                    "type": "address"
                },
                {
                    "internalType": "string",
                    "name": "uri",
                    "type": "string"
                }
            ],
            "name": "safeMint",
            "outputs": [],
            "stateMutability": "nonpayable",
            "type": "function"
        },
        {
            "inputs": [
                {
                    "internalType": "address",
                    "name": "from",
                    "type": "address"
                },
                {
                    "internalType": "address",
                    "name": "to",
                    "type": "address"
                },
                {
                    "internalType": "uint256",
                    "name": "tokenId",
                    "type": "uint256"
                }
            ],
            "name": "safeTransferFrom",
            "outputs": [],
            "stateMutability": "nonpayable",
            "type": "function"
        },
        {
            "inputs": [
                {
                    "internalType": "address",
                    "name": "from",
                    "type": "address"
                },
                {
                    "internalType": "address",
                    "name": "to",
                    "type": "address"
                },
                {
                    "internalType": "uint256",
                    "name": "tokenId",
                    "type": "uint256"
                },
                {
                    "internalType": "bytes",
                    "name": "data",
                    "type": "bytes"
                }
            ],
            "name": "safeTransferFrom",
            "outputs": [],
            "stateMutability": "nonpayable",
            "type": "function"
        },
        {
            "inputs": [
                {
                    "internalType": "address",
                    "name": "operator",
                    "type": "address"
                },
                {
                    "internalType": "bool",
                    "name": "approved",
                    "type": "bool"
                }
            ],
            "name": "setApprovalForAll",
            "outputs": [],
            "stateMutability": "nonpayable",
            "type": "function"
        },
        {
            "inputs": [
                {
                    "internalType": "bytes4",
                    "name": "interfaceId",
                    "type": "bytes4"
                }
            ],
            "name": "supportsInterface",
            "outputs": [
                {
                    "internalType": "bool",
                    "name": "",
                    "type": "bool"
                }
            ],
            "stateMutability": "view",
            "type": "function"
        },
        {
            "inputs": [],
            "name": "symbol",
            "outputs": [
                {
                    "internalType": "string",
                    "name": "",
                    "type": "string"
                }
            ],
            "stateMutability": "view",
            "type": "function"
        },
        {
            "inputs": [
                {
                    "internalType": "uint256",
                    "name": "",
                    "type": "uint256"
                },
                {
                    "internalType": "uint256",
                    "name": "",
                    "type": "uint256"
                }
            ],
            "name": "tokenIdToBuyerAddress",
            "outputs": [
                {
                    "internalType": "address",
                    "name": "",
                    "type": "address"
                }
            ],
            "stateMutability": "view",
            "type": "function"
        },
        {
            "inputs": [
                {
                    "internalType": "uint256",
                    "name": "tokenId",
                    "type": "uint256"
                }
            ],
            "name": "tokenURI",
            "outputs": [
                {
                    "internalType": "string",
                    "name": "",
                    "type": "string"
                }
            ],
            "stateMutability": "view",
            "type": "function"
        },
        {
            "inputs": [
                {
                    "internalType": "address",
                    "name": "from",
                    "type": "address"
                },
                {
                    "internalType": "address",
                    "name": "to",
                    "type": "address"
                },
                {
                    "internalType": "uint256",
                    "name": "tokenId",
                    "type": "uint256"
                }
            ],
            "name": "tranfer",
            "outputs": [],
            "stateMutability": "nonpayable",
            "type": "function"
        },
        {
            "inputs": [
                {
                    "internalType": "address",
                    "name": "from",
                    "type": "address"
                },
                {
                    "internalType": "address",
                    "name": "to",
                    "type": "address"
                },
                {
                    "internalType": "uint256",
                    "name": "tokenId",
                    "type": "uint256"
                }
            ],
            "name": "transferFrom",
            "outputs": [],
            "stateMutability": "nonpayable",
            "type": "function"
        },
        {
            "inputs": [
                {
                    "internalType": "address",
                    "name": "newOwner",
                    "type": "address"
                }
            ],
            "name": "transferOwnership",
            "outputs": [],
            "stateMutability": "nonpayable",
            "type": "function"
        }
    ],
    "bytecode": "0x60806040523480156200001157600080fd5b506040518060400160405280600981526020017f4e46544d696e74657200000000000000000000000000000000000000000000008152506040518060400160405280600481526020017f4e46544d0000000000000000000000000000000000000000000000000000000081525081600090816200008f919062000412565b508060019081620000a1919062000412565b505050620000c4620000b8620000ca60201b60201c565b620000d260201b60201c565b620004f9565b600033905090565b6000600760009054906101000a900473ffffffffffffffffffffffffffffffffffffffff16905081600760006101000a81548173ffffffffffffffffffffffffffffffffffffffff021916908373ffffffffffffffffffffffffffffffffffffffff1602179055508173ffffffffffffffffffffffffffffffffffffffff168173ffffffffffffffffffffffffffffffffffffffff167f8be0079c531659141344cd1fd0a4f28419497f9722a3daafe3b4186f6b6457e060405160405180910390a35050565b600081519050919050565b7f4e487b7100000000000000000000000000000000000000000000000000000000600052604160045260246000fd5b7f4e487b7100000000000000000000000000000000000000000000000000000000600052602260045260246000fd5b600060028204905060018216806200021a57607f821691505b60208210810362000230576200022f620001d2565b5b50919050565b60008190508160005260206000209050919050565b60006020601f8301049050919050565b600082821b905092915050565b6000600883026200029a7fffffffffffffffffffffffffffffffffffffffffffffffffffffffffffffffff826200025b565b620002a686836200025b565b95508019841693508086168417925050509392505050565b6000819050919050565b6000819050919050565b6000620002f3620002ed620002e784620002be565b620002c8565b620002be565b9050919050565b6000819050919050565b6200030f83620002d2565b620003276200031e82620002fa565b84845462000268565b825550505050565b600090565b6200033e6200032f565b6200034b81848462000304565b505050565b5b8181101562000373576200036760008262000334565b60018101905062000351565b5050565b601f821115620003c2576200038c8162000236565b62000397846200024b565b81016020851015620003a7578190505b620003bf620003b6856200024b565b83018262000350565b50505b505050565b600082821c905092915050565b6000620003e760001984600802620003c7565b1980831691505092915050565b6000620004028383620003d4565b9150826002028217905092915050565b6200041d8262000198565b67ffffffffffffffff811115620004395762000438620001a3565b5b62000445825462000201565b6200045282828562000377565b600060209050601f8311600181146200048a576000841562000475578287015190505b620004818582620003f4565b865550620004f1565b601f1984166200049a8662000236565b60005b82811015620004c4578489015182556001820191506020850194506020810190506200049d565b86831015620004e45784890151620004e0601f891682620003d4565b8355505b6001600288020188555050505b505050505050565b614a9380620005096000396000f3fe6080604052600436106101f95760003560e01c80638c6743e01161010d578063b88d4fde116100a0578063c87b56dd1161006f578063c87b56dd14610771578063d204c45e146107ae578063e985e9c5146107d7578063f2fde38b14610814578063f3020d831461083d576101f9565b8063b88d4fde146106a5578063bb230748146106ce578063bd1157a91461070b578063c12e1a0714610748576101f9565b8063a22cb465116100dc578063a22cb465146105fa578063a3ee38ae14610623578063a983fa4914610660578063b364cf7d1461067c576101f9565b80638c6743e01461053c5780638da5cb5b1461056757806395d89b41146105925780639f1cabc6146105bd576101f9565b80633a28551e116101905780636352211e1161015f5780636352211e1461044357806370a0823114610480578063715018a6146104bd578063747f9b4f146104d457806384c4bd4b14610511576101f9565b80633a28551e1461037757806342842e0e146103b45780634412e439146103dd57806361789f031461041a576101f9565b806309f5c475116101cc57806309f5c475146102cc57806314050c5a146102e857806323b872dd1461032557806326530f391461034e576101f9565b806301ffc9a7146101fe57806306fdde031461023b578063081812fc14610266578063095ea7b3146102a3575b600080fd5b34801561020a57600080fd5b5061022560048036038101906102209190612fb5565b610859565b6040516102329190612ffd565b60405180910390f35b34801561024757600080fd5b5061025061093b565b60405161025d91906130a8565b60405180910390f35b34801561027257600080fd5b5061028d60048036038101906102889190613100565b6109cd565b60405161029a919061316e565b60405180910390f35b3480156102af57600080fd5b506102ca60048036038101906102c591906131b5565b610a13565b005b6102e660048036038101906102e19190613100565b610b2a565b005b3480156102f457600080fd5b5061030f600480360381019061030a9190613100565b610bb5565b60405161031c9190613204565b60405180910390f35b34801561033157600080fd5b5061034c6004803603810190610347919061321f565b610bcd565b005b34801561035a57600080fd5b506103756004803603810190610370919061321f565b610d67565b005b34801561038357600080fd5b5061039e60048036038101906103999190613272565b610d77565b6040516103ab91906132c0565b60405180910390f35b3480156103c057600080fd5b506103db60048036038101906103d6919061321f565b610daa565b005b3480156103e957600080fd5b5061040460048036038101906103ff9190613272565b610f44565b6040516104119190613204565b60405180910390f35b34801561042657600080fd5b50610441600480360381019061043c9190613410565b610f5c565b005b34801561044f57600080fd5b5061046a60048036038101906104659190613100565b6111d6565b604051610477919061316e565b60405180910390f35b34801561048c57600080fd5b506104a760048036038101906104a29190613272565b61125c565b6040516104b49190613204565b60405180910390f35b3480156104c957600080fd5b506104d2611313565b005b3480156104e057600080fd5b506104fb60048036038101906104f69190613100565b611327565b6040516105089190613204565b60405180910390f35b34801561051d57600080fd5b5061052661133f565b6040516105339190613204565b60405180910390f35b34801561054857600080fd5b5061055161134b565b60405161055e9190613204565b60405180910390f35b34801561057357600080fd5b5061057c611361565b604051610589919061316e565b60405180910390f35b34801561059e57600080fd5b506105a761138b565b6040516105b491906130a8565b60405180910390f35b3480156105c957600080fd5b506105e460048036038101906105df919061349b565b61141d565b6040516105f19190612ffd565b60405180910390f35b34801561060657600080fd5b50610621600480360381019061061c9190613510565b611458565b005b34801561062f57600080fd5b5061064a60048036038101906106459190613550565b61146e565b6040516106579190613204565b60405180910390f35b61067a60048036038101906106759190613607565b611574565b005b34801561068857600080fd5b506106a3600480360381019061069e9190613647565b6116a2565b005b3480156106b157600080fd5b506106cc60048036038101906106c79190613728565b611829565b005b3480156106da57600080fd5b506106f560048036038101906106f09190613100565b61188b565b6040516107029190612ffd565b60405180910390f35b34801561071757600080fd5b50610732600480360381019061072d91906137ab565b6118ab565b60405161073f919061316e565b60405180910390f35b34801561075457600080fd5b5061076f600480360381019061076a91906137eb565b6118f9565b005b34801561077d57600080fd5b5061079860048036038101906107939190613100565b611977565b6040516107a591906130a8565b60405180910390f35b3480156107ba57600080fd5b506107d560048036038101906107d0919061383e565b611989565b005b3480156107e357600080fd5b506107fe60048036038101906107f9919061389a565b6119c2565b60405161080b9190612ffd565b60405180910390f35b34801561082057600080fd5b5061083b60048036038101906108369190613272565b611a56565b005b61085760048036038101906108529190613647565b611ad9565b005b60007f80ac58cd000000000000000000000000000000000000000000000000000000007bffffffffffffffffffffffffffffffffffffffffffffffffffffffff1916827bffffffffffffffffffffffffffffffffffffffffffffffffffffffff1916148061092457507f5b5e139f000000000000000000000000000000000000000000000000000000007bffffffffffffffffffffffffffffffffffffffffffffffffffffffff1916827bffffffffffffffffffffffffffffffffffffffffffffffffffffffff1916145b80610934575061093382611baa565b5b9050919050565b60606000805461094a90613909565b80601f016020809104026020016040519081016040528092919081815260200182805461097690613909565b80156109c35780601f10610998576101008083540402835291602001916109c3565b820191906000526020600020905b8154815290600101906020018083116109a657829003601f168201915b5050505050905090565b60006109d882611c14565b6004600083815260200190815260200160002060009054906101000a900473ffffffffffffffffffffffffffffffffffffffff169050919050565b6000610a1e826111d6565b90508073ffffffffffffffffffffffffffffffffffffffff168373ffffffffffffffffffffffffffffffffffffffff1603610a8e576040517f08c379a0000000000000000000000000000000000000000000000000000000008152600401610a85906139ac565b60405180910390fd5b8073ffffffffffffffffffffffffffffffffffffffff16610aad611c5f565b73ffffffffffffffffffffffffffffffffffffffff161480610adc5750610adb81610ad6611c5f565b6119c2565b5b610b1b576040517f08c379a0000000000000000000000000000000000000000000000000000000008152600401610b1290613a3e565b60405180910390fd5b610b258383611c67565b505050565b600c600082815260200190815260200160002054600b600083815260200190815260200160002054610b5c9190613a8d565b341015610b9e576040517f08c379a0000000000000000000000000000000000000000000000000000000008152600401610b9590613b0d565b60405180910390fd5b610ba781611d20565b610bb2303383610d67565b50565b600b6020528060005260406000206000915090505481565b806010600082815260200190815260200160002060009054906101000a900460ff1615610c2f576040517f08c379a0000000000000000000000000000000000000000000000000000000008152600401610c2690613b9f565b60405180910390fd5b600073ffffffffffffffffffffffffffffffffffffffff168473ffffffffffffffffffffffffffffffffffffffff1603610c9e576040517f08c379a0000000000000000000000000000000000000000000000000000000008152600401610c9590613c0b565b60405180910390fd5b600073ffffffffffffffffffffffffffffffffffffffff168373ffffffffffffffffffffffffffffffffffffffff1603610d0d576040517f08c379a0000000000000000000000000000000000000000000000000000000008152600401610d0490613c77565b60405180910390fd5b610d178483611d4f565b610d56576040517f08c379a0000000000000000000000000000000000000000000000000000000008152600401610d4d90613ce3565b60405180910390fd5b610d61848484611de4565b50505050565b610d72838383610daa565b505050565b600f6020528060005260406000206000915054906101000a900473ffffffffffffffffffffffffffffffffffffffff1681565b806010600082815260200190815260200160002060009054906101000a900460ff1615610e0c576040517f08c379a0000000000000000000000000000000000000000000000000000000008152600401610e0390613b9f565b60405180910390fd5b600073ffffffffffffffffffffffffffffffffffffffff168473ffffffffffffffffffffffffffffffffffffffff1603610e7b576040517f08c379a0000000000000000000000000000000000000000000000000000000008152600401610e7290613c0b565b60405180910390fd5b600073ffffffffffffffffffffffffffffffffffffffff168373ffffffffffffffffffffffffffffffffffffffff1603610eea576040517f08c379a0000000000000000000000000000000000000000000000000000000008152600401610ee190613c77565b60405180910390fd5b610ef48483611d4f565b610f33576040517f08c379a0000000000000000000000000000000000000000000000000000000008152600401610f2a90613ce3565b60405180910390fd5b610f3e848484611de4565b50505050565b600e6020528060005260406000206000915090505481565b3373ffffffffffffffffffffffffffffffffffffffff16610f7c846111d6565b73ffffffffffffffffffffffffffffffffffffffff1603610fd2576040517f08c379a0000000000000000000000000000000000000000000000000000000008152600401610fc990613d75565b60405180910390fd5b6000600a83604051610fe49190613dd1565b9081526020016040518091039020805480602002602001604051908101604052809291908181526020016000905b828210156110be57838290600052602060002001805461103190613909565b80601f016020809104026020016040519081016040528092919081815260200182805461105d90613909565b80156110aa5780601f1061107f576101008083540402835291602001916110aa565b820191906000526020600020905b81548152906001019060200180831161108d57829003601f168201915b505050505081526020019060010190611012565b5050505090506000600182516110d49190613de8565b67ffffffffffffffff8111156110ed576110ec6132e5565b5b60405190808252806020026020018201604052801561112057816020015b606081526020019060019003908161110b5790505b50905060005b825181101561117b5782818151811061114257611141613e1c565b5b602002602001015182828151811061115d5761115c613e1c565b5b6020026020010181905250808061117390613e4b565b915050611126565b50828183518151811061119157611190613e1c565b5b602002602001018190525080600a856040516111ad9190613dd1565b908152602001604051809103902090805190602001906111ce929190612e16565b505050505050565b6000806111e2836120dd565b9050600073ffffffffffffffffffffffffffffffffffffffff168173ffffffffffffffffffffffffffffffffffffffff1603611253576040517f08c379a000000000000000000000000000000000000000000000000000000000815260040161124a90613edf565b60405180910390fd5b80915050919050565b60008073ffffffffffffffffffffffffffffffffffffffff168273ffffffffffffffffffffffffffffffffffffffff16036112cc576040517f08c379a00000000000000000000000000000000000000000000000000000000081526004016112c390613f71565b60405180910390fd5b600360008373ffffffffffffffffffffffffffffffffffffffff1673ffffffffffffffffffffffffffffffffffffffff168152602001908152602001600020549050919050565b61131b61211a565b6113256000612198565b565b600c6020528060005260406000206000915090505481565b60088060000154905081565b600080611358600861225e565b90508091505090565b6000600760009054906101000a900473ffffffffffffffffffffffffffffffffffffffff16905090565b60606001805461139a90613909565b80601f01602080910402602001604051908101604052809291908181526020018280546113c690613909565b80156114135780601f106113e857610100808354040283529160200191611413565b820191906000526020600020905b8154815290600101906020018083116113f657829003601f168201915b5050505050905090565b600060016009836040516114319190613dd1565b908152602001604051809103902060009054906101000a900460ff1660ff16149050919050565b61146a611463611c5f565b838361226c565b5050565b600061147861211a565b6114818361141d565b156114c1576040517f08c379a00000000000000000000000000000000000000000000000000000000081526004016114b890613fdd565b60405180910390fd5b60006114cb61134b565b90506114d760086123d8565b60016009856040516114e99190613dd1565b908152602001604051809103902060006101000a81548160ff021916908360ff160217905550604051806020016040528084815250600a8560405161152e9190613dd1565b908152602001604051809103902090600161154a929190612e6f565b5061155585826123ee565b61155f818561260b565b6115693382611c67565b809150509392505050565b600c6000838152602001908152602001600020543410156115ca576040517f08c379a00000000000000000000000000000000000000000000000000000000081526004016115c190614049565b60405180910390fd5b34600e60003373ffffffffffffffffffffffffffffffffffffffff1673ffffffffffffffffffffffffffffffffffffffff16815260200190815260200160002060008282546116199190613de8565b9250508190555080600f60003373ffffffffffffffffffffffffffffffffffffffff1673ffffffffffffffffffffffffffffffffffffffff16815260200190815260200160002060006101000a81548173ffffffffffffffffffffffffffffffffffffffff021916908373ffffffffffffffffffffffffffffffffffffffff1602179055505050565b6116ac3383611d4f565b6116eb576040517f08c379a00000000000000000000000000000000000000000000000000000000081526004016116e2906140db565b60405180910390fd5b6116f6333084610d67565b6000600d600084815260200190815260200160002080548060200260200160405190810160405280929190818152602001828054801561178b57602002820191906000526020600020905b8160009054906101000a900473ffffffffffffffffffffffffffffffffffffffff1673ffffffffffffffffffffffffffffffffffffffff1681526020019060010190808311611741575b5050505050905060005b8151811015611823578273ffffffffffffffffffffffffffffffffffffffff168282815181106117c8576117c7613e1c565b5b602002602001015173ffffffffffffffffffffffffffffffffffffffff16146118105761180f8483838151811061180257611801613e1c565b5b6020026020010151611ad9565b5b808061181b90613e4b565b915050611795565b50505050565b61183a611834611c5f565b83611d4f565b611879576040517f08c379a00000000000000000000000000000000000000000000000000000000081526004016118709061416d565b60405180910390fd5b61188584848484612678565b50505050565b60106020528060005260406000206000915054906101000a900460ff1681565b600d60205281600052604060002081815481106118c757600080fd5b906000526020600020016000915091509054906101000a900473ffffffffffffffffffffffffffffffffffffffff1681565b6119033384611d4f565b611942576040517f08c379a0000000000000000000000000000000000000000000000000000000008152600401611939906141ff565b60405180910390fd5b81600b60008581526020019081526020016000208190555080600c600085815260200190815260200160002081905550505050565b6060611982826126d4565b9050919050565b61199161211a565b600061199d600861225e565b90506119a960086123d8565b6119b383826127e6565b6119bd818361260b565b505050565b6000600560008473ffffffffffffffffffffffffffffffffffffffff1673ffffffffffffffffffffffffffffffffffffffff16815260200190815260200160002060008373ffffffffffffffffffffffffffffffffffffffff1673ffffffffffffffffffffffffffffffffffffffff16815260200190815260200160002060009054906101000a900460ff16905092915050565b611a5e61211a565b600073ffffffffffffffffffffffffffffffffffffffff168173ffffffffffffffffffffffffffffffffffffffff1603611acd576040517f08c379a0000000000000000000000000000000000000000000000000000000008152600401611ac490614291565b60405180910390fd5b611ad681612198565b50565b611ae161211a565b6000600f60008373ffffffffffffffffffffffffffffffffffffffff1673ffffffffffffffffffffffffffffffffffffffff16815260200190815260200160002060009054906101000a900473ffffffffffffffffffffffffffffffffffffffff1690506000600c60008581526020019081526020016000205490508173ffffffffffffffffffffffffffffffffffffffff166108fc829081150290604051600060405180830381858888f19350505050158015611ba3573d6000803e3d6000fd5b5050505050565b60007f01ffc9a7000000000000000000000000000000000000000000000000000000007bffffffffffffffffffffffffffffffffffffffffffffffffffffffff1916827bffffffffffffffffffffffffffffffffffffffffffffffffffffffff1916149050919050565b611c1d81612804565b611c5c576040517f08c379a0000000000000000000000000000000000000000000000000000000008152600401611c5390613edf565b60405180910390fd5b50565b600033905090565b816004600083815260200190815260200160002060006101000a81548173ffffffffffffffffffffffffffffffffffffffff021916908373ffffffffffffffffffffffffffffffffffffffff160217905550808273ffffffffffffffffffffffffffffffffffffffff16611cda836111d6565b73ffffffffffffffffffffffffffffffffffffffff167f8c5be1e5ebec7d5bd14f71427d1e84f3dd0314c0f7b2291e5b200ac8c7c3b92560405160405180910390a45050565b60006010600083815260200190815260200160002060006101000a81548160ff02191690831515021790555050565b600080611d5b836111d6565b90508073ffffffffffffffffffffffffffffffffffffffff168473ffffffffffffffffffffffffffffffffffffffff161480611d9d5750611d9c81856119c2565b5b80611ddb57508373ffffffffffffffffffffffffffffffffffffffff16611dc3846109cd565b73ffffffffffffffffffffffffffffffffffffffff16145b91505092915050565b8273ffffffffffffffffffffffffffffffffffffffff16611e04826111d6565b73ffffffffffffffffffffffffffffffffffffffff1614611e5a576040517f08c379a0000000000000000000000000000000000000000000000000000000008152600401611e5190614323565b60405180910390fd5b600073ffffffffffffffffffffffffffffffffffffffff168273ffffffffffffffffffffffffffffffffffffffff1603611ec9576040517f08c379a0000000000000000000000000000000000000000000000000000000008152600401611ec0906143b5565b60405180910390fd5b611ed68383836001612845565b8273ffffffffffffffffffffffffffffffffffffffff16611ef6826111d6565b73ffffffffffffffffffffffffffffffffffffffff1614611f4c576040517f08c379a0000000000000000000000000000000000000000000000000000000008152600401611f4390614323565b60405180910390fd5b6004600082815260200190815260200160002060006101000a81549073ffffffffffffffffffffffffffffffffffffffff02191690556001600360008573ffffffffffffffffffffffffffffffffffffffff1673ffffffffffffffffffffffffffffffffffffffff168152602001908152602001600020600082825403925050819055506001600360008473ffffffffffffffffffffffffffffffffffffffff1673ffffffffffffffffffffffffffffffffffffffff16815260200190815260200160002060008282540192505081905550816002600083815260200190815260200160002060006101000a81548173ffffffffffffffffffffffffffffffffffffffff021916908373ffffffffffffffffffffffffffffffffffffffff160217905550808273ffffffffffffffffffffffffffffffffffffffff168473ffffffffffffffffffffffffffffffffffffffff167fddf252ad1be2c89b69c2b068fc378daa952ba7f163c4a11628f55a4df523b3ef60405160405180910390a46120d8838383600161296b565b505050565b60006002600083815260200190815260200160002060009054906101000a900473ffffffffffffffffffffffffffffffffffffffff169050919050565b612122611c5f565b73ffffffffffffffffffffffffffffffffffffffff16612140611361565b73ffffffffffffffffffffffffffffffffffffffff1614612196576040517f08c379a000000000000000000000000000000000000000000000000000000000815260040161218d90614421565b60405180910390fd5b565b6000600760009054906101000a900473ffffffffffffffffffffffffffffffffffffffff16905081600760006101000a81548173ffffffffffffffffffffffffffffffffffffffff021916908373ffffffffffffffffffffffffffffffffffffffff1602179055508173ffffffffffffffffffffffffffffffffffffffff168173ffffffffffffffffffffffffffffffffffffffff167f8be0079c531659141344cd1fd0a4f28419497f9722a3daafe3b4186f6b6457e060405160405180910390a35050565b600081600001549050919050565b8173ffffffffffffffffffffffffffffffffffffffff168373ffffffffffffffffffffffffffffffffffffffff16036122da576040517f08c379a00000000000000000000000000000000000000000000000000000000081526004016122d19061448d565b60405180910390fd5b80600560008573ffffffffffffffffffffffffffffffffffffffff1673ffffffffffffffffffffffffffffffffffffffff16815260200190815260200160002060008473ffffffffffffffffffffffffffffffffffffffff1673ffffffffffffffffffffffffffffffffffffffff16815260200190815260200160002060006101000a81548160ff0219169083151502179055508173ffffffffffffffffffffffffffffffffffffffff168373ffffffffffffffffffffffffffffffffffffffff167f17307eab39ab6107e8899845ad3d59bd9653f200f220920489ca2b5937696c31836040516123cb9190612ffd565b60405180910390a3505050565b6001816000016000828254019250508190555050565b600073ffffffffffffffffffffffffffffffffffffffff168273ffffffffffffffffffffffffffffffffffffffff160361245d576040517f08c379a0000000000000000000000000000000000000000000000000000000008152600401612454906144f9565b60405180910390fd5b61246681612804565b156124a6576040517f08c379a000000000000000000000000000000000000000000000000000000000815260040161249d90614565565b60405180910390fd5b6124b4600083836001612845565b6124bd81612804565b156124fd576040517f08c379a00000000000000000000000000000000000000000000000000000000081526004016124f490614565565b60405180910390fd5b6001600360008473ffffffffffffffffffffffffffffffffffffffff1673ffffffffffffffffffffffffffffffffffffffff16815260200190815260200160002060008282540192505081905550816002600083815260200190815260200160002060006101000a81548173ffffffffffffffffffffffffffffffffffffffff021916908373ffffffffffffffffffffffffffffffffffffffff160217905550808273ffffffffffffffffffffffffffffffffffffffff16600073ffffffffffffffffffffffffffffffffffffffff167fddf252ad1be2c89b69c2b068fc378daa952ba7f163c4a11628f55a4df523b3ef60405160405180910390a461260760008383600161296b565b5050565b61261482612804565b612653576040517f08c379a000000000000000000000000000000000000000000000000000000000815260040161264a906145f7565b60405180910390fd5b8060066000848152602001908152602001600020908161267391906147c3565b505050565b612683848484611de4565b61268f84848484612971565b6126ce576040517f08c379a00000000000000000000000000000000000000000000000000000000081526004016126c590614907565b60405180910390fd5b50505050565b60606126df82611c14565b60006006600084815260200190815260200160002080546126ff90613909565b80601f016020809104026020016040519081016040528092919081815260200182805461272b90613909565b80156127785780601f1061274d57610100808354040283529160200191612778565b820191906000526020600020905b81548152906001019060200180831161275b57829003601f168201915b505050505090506000612789612af8565b9050600081510361279e5781925050506127e1565b6000825111156127d35780826040516020016127bb929190614927565b604051602081830303815290604052925050506127e1565b6127dc84612b0f565b925050505b919050565b612800828260405180602001604052806000815250612b77565b5050565b60008073ffffffffffffffffffffffffffffffffffffffff16612826836120dd565b73ffffffffffffffffffffffffffffffffffffffff1614159050919050565b600181111561296557600073ffffffffffffffffffffffffffffffffffffffff168473ffffffffffffffffffffffffffffffffffffffff16146128d95780600360008673ffffffffffffffffffffffffffffffffffffffff1673ffffffffffffffffffffffffffffffffffffffff16815260200190815260200160002060008282546128d19190613a8d565b925050819055505b600073ffffffffffffffffffffffffffffffffffffffff168373ffffffffffffffffffffffffffffffffffffffff16146129645780600360008573ffffffffffffffffffffffffffffffffffffffff1673ffffffffffffffffffffffffffffffffffffffff168152602001908152602001600020600082825461295c9190613de8565b925050819055505b5b50505050565b50505050565b60006129928473ffffffffffffffffffffffffffffffffffffffff16612bd2565b15612aeb578373ffffffffffffffffffffffffffffffffffffffff1663150b7a026129bb611c5f565b8786866040518563ffffffff1660e01b81526004016129dd94939291906149a0565b6020604051808303816000875af1925050508015612a1957506040513d601f19601f82011682018060405250810190612a169190614a01565b60015b612a9b573d8060008114612a49576040519150601f19603f3d011682016040523d82523d6000602084013e612a4e565b606091505b506000815103612a93576040517f08c379a0000000000000000000000000000000000000000000000000000000008152600401612a8a90614907565b60405180910390fd5b805181602001fd5b63150b7a0260e01b7bffffffffffffffffffffffffffffffffffffffffffffffffffffffff1916817bffffffffffffffffffffffffffffffffffffffffffffffffffffffff191614915050612af0565b600190505b949350505050565b606060405180602001604052806000815250905090565b6060612b1a82611c14565b6000612b24612af8565b90506000815111612b445760405180602001604052806000815250612b6f565b80612b4e84612bf5565b604051602001612b5f929190614927565b6040516020818303038152906040525b915050919050565b612b8183836123ee565b612b8e6000848484612971565b612bcd576040517f08c379a0000000000000000000000000000000000000000000000000000000008152600401612bc490614907565b60405180910390fd5b505050565b6000808273ffffffffffffffffffffffffffffffffffffffff163b119050919050565b606060006001612c0484612cc3565b01905060008167ffffffffffffffff811115612c2357612c226132e5565b5b6040519080825280601f01601f191660200182016040528015612c555781602001600182028036833780820191505090505b509050600082602001820190505b600115612cb8578080600190039150507f3031323334353637383961626364656600000000000000000000000000000000600a86061a8153600a8581612cac57612cab614a2e565b5b04945060008503612c63575b819350505050919050565b600080600090507a184f03e93ff9f4daa797ed6e38ed64bf6a1f0100000000000000008310612d21577a184f03e93ff9f4daa797ed6e38ed64bf6a1f0100000000000000008381612d1757612d16614a2e565b5b0492506040810190505b6d04ee2d6d415b85acef81000000008310612d5e576d04ee2d6d415b85acef81000000008381612d5457612d53614a2e565b5b0492506020810190505b662386f26fc100008310612d8d57662386f26fc100008381612d8357612d82614a2e565b5b0492506010810190505b6305f5e1008310612db6576305f5e1008381612dac57612dab614a2e565b5b0492506008810190505b6127108310612ddb576127108381612dd157612dd0614a2e565b5b0492506004810190505b60648310612dfe5760648381612df457612df3614a2e565b5b0492506002810190505b600a8310612e0d576001810190505b80915050919050565b828054828255906000526020600020908101928215612e5e579160200282015b82811115612e5d578251829081612e4d91906147c3565b5091602001919060010190612e36565b5b509050612e6b9190612ec8565b5090565b828054828255906000526020600020908101928215612eb7579160200282015b82811115612eb6578251829081612ea691906147c3565b5091602001919060010190612e8f565b5b509050612ec49190612ec8565b5090565b5b80821115612ee85760008181612edf9190612eec565b50600101612ec9565b5090565b508054612ef890613909565b6000825580601f10612f0a5750612f29565b601f016020900490600052602060002090810190612f289190612f2c565b5b50565b5b80821115612f45576000816000905550600101612f2d565b5090565b6000604051905090565b600080fd5b600080fd5b60007fffffffff0000000000000000000000000000000000000000000000000000000082169050919050565b612f9281612f5d565b8114612f9d57600080fd5b50565b600081359050612faf81612f89565b92915050565b600060208284031215612fcb57612fca612f53565b5b6000612fd984828501612fa0565b91505092915050565b60008115159050919050565b612ff781612fe2565b82525050565b60006020820190506130126000830184612fee565b92915050565b600081519050919050565b600082825260208201905092915050565b60005b83811015613052578082015181840152602081019050613037565b60008484015250505050565b6000601f19601f8301169050919050565b600061307a82613018565b6130848185613023565b9350613094818560208601613034565b61309d8161305e565b840191505092915050565b600060208201905081810360008301526130c2818461306f565b905092915050565b6000819050919050565b6130dd816130ca565b81146130e857600080fd5b50565b6000813590506130fa816130d4565b92915050565b60006020828403121561311657613115612f53565b5b6000613124848285016130eb565b91505092915050565b600073ffffffffffffffffffffffffffffffffffffffff82169050919050565b60006131588261312d565b9050919050565b6131688161314d565b82525050565b6000602082019050613183600083018461315f565b92915050565b6131928161314d565b811461319d57600080fd5b50565b6000813590506131af81613189565b92915050565b600080604083850312156131cc576131cb612f53565b5b60006131da858286016131a0565b92505060206131eb858286016130eb565b9150509250929050565b6131fe816130ca565b82525050565b600060208201905061321960008301846131f5565b92915050565b60008060006060848603121561323857613237612f53565b5b6000613246868287016131a0565b9350506020613257868287016131a0565b9250506040613268868287016130eb565b9150509250925092565b60006020828403121561328857613287612f53565b5b6000613296848285016131a0565b91505092915050565b60006132aa8261312d565b9050919050565b6132ba8161329f565b82525050565b60006020820190506132d560008301846132b1565b92915050565b600080fd5b600080fd5b7f4e487b7100000000000000000000000000000000000000000000000000000000600052604160045260246000fd5b61331d8261305e565b810181811067ffffffffffffffff8211171561333c5761333b6132e5565b5b80604052505050565b600061334f612f49565b905061335b8282613314565b919050565b600067ffffffffffffffff82111561337b5761337a6132e5565b5b6133848261305e565b9050602081019050919050565b82818337600083830152505050565b60006133b36133ae84613360565b613345565b9050828152602081018484840111156133cf576133ce6132e0565b5b6133da848285613391565b509392505050565b600082601f8301126133f7576133f66132db565b5b81356134078482602086016133a0565b91505092915050565b60008060006060848603121561342957613428612f53565b5b6000613437868287016130eb565b935050602084013567ffffffffffffffff81111561345857613457612f58565b5b613464868287016133e2565b925050604084013567ffffffffffffffff81111561348557613484612f58565b5b613491868287016133e2565b9150509250925092565b6000602082840312156134b1576134b0612f53565b5b600082013567ffffffffffffffff8111156134cf576134ce612f58565b5b6134db848285016133e2565b91505092915050565b6134ed81612fe2565b81146134f857600080fd5b50565b60008135905061350a816134e4565b92915050565b6000806040838503121561352757613526612f53565b5b6000613535858286016131a0565b9250506020613546858286016134fb565b9150509250929050565b60008060006060848603121561356957613568612f53565b5b6000613577868287016131a0565b935050602084013567ffffffffffffffff81111561359857613597612f58565b5b6135a4868287016133e2565b925050604084013567ffffffffffffffff8111156135c5576135c4612f58565b5b6135d1868287016133e2565b9150509250925092565b6135e48161329f565b81146135ef57600080fd5b50565b600081359050613601816135db565b92915050565b6000806040838503121561361e5761361d612f53565b5b600061362c858286016130eb565b925050602061363d858286016135f2565b9150509250929050565b6000806040838503121561365e5761365d612f53565b5b600061366c858286016130eb565b925050602061367d858286016131a0565b9150509250929050565b600067ffffffffffffffff8211156136a2576136a16132e5565b5b6136ab8261305e565b9050602081019050919050565b60006136cb6136c684613687565b613345565b9050828152602081018484840111156136e7576136e66132e0565b5b6136f2848285613391565b509392505050565b600082601f83011261370f5761370e6132db565b5b813561371f8482602086016136b8565b91505092915050565b6000806000806080858703121561374257613741612f53565b5b6000613750878288016131a0565b9450506020613761878288016131a0565b9350506040613772878288016130eb565b925050606085013567ffffffffffffffff81111561379357613792612f58565b5b61379f878288016136fa565b91505092959194509250565b600080604083850312156137c2576137c1612f53565b5b60006137d0858286016130eb565b92505060206137e1858286016130eb565b9150509250929050565b60008060006060848603121561380457613803612f53565b5b6000613812868287016130eb565b9350506020613823868287016130eb565b9250506040613834868287016130eb565b9150509250925092565b6000806040838503121561385557613854612f53565b5b6000613863858286016131a0565b925050602083013567ffffffffffffffff81111561388457613883612f58565b5b613890858286016133e2565b9150509250929050565b600080604083850312156138b1576138b0612f53565b5b60006138bf858286016131a0565b92505060206138d0858286016131a0565b9150509250929050565b7f4e487b7100000000000000000000000000000000000000000000000000000000600052602260045260246000fd5b6000600282049050600182168061392157607f821691505b602082108103613934576139336138da565b5b50919050565b7f4552433732313a20617070726f76616c20746f2063757272656e74206f776e6560008201527f7200000000000000000000000000000000000000000000000000000000000000602082015250565b6000613996602183613023565b91506139a18261393a565b604082019050919050565b600060208201905081810360008301526139c581613989565b9050919050565b7f4552433732313a20617070726f76652063616c6c6572206973206e6f7420746f60008201527f6b656e206f776e6572206f7220617070726f76656420666f7220616c6c000000602082015250565b6000613a28603d83613023565b9150613a33826139cc565b604082019050919050565b60006020820190508181036000830152613a5781613a1b565b9050919050565b7f4e487b7100000000000000000000000000000000000000000000000000000000600052601160045260246000fd5b6000613a98826130ca565b9150613aa3836130ca565b9250828203905081811115613abb57613aba613a5e565b5b92915050565b7f706c656173652070617920636f727265637420616d6f756e7400000000000000600082015250565b6000613af7601983613023565b9150613b0282613ac1565b602082019050919050565b60006020820190508181036000830152613b2681613aea565b9050919050565b7f546f6b656e2069732068656c642062792074686520736d61727420636f6e747260008201527f6163742c207472616e73666572206e6f7420616c6c6f77656400000000000000602082015250565b6000613b89603983613023565b9150613b9482613b2d565b604082019050919050565b60006020820190508181036000830152613bb881613b7c565b9050919050565b7f46726f6d2061646472657373206973206e6f742076616c696400000000000000600082015250565b6000613bf5601983613023565b9150613c0082613bbf565b602082019050919050565b60006020820190508181036000830152613c2481613be8565b9050919050565b7f546f2061646472657373206973206e6f742076616c6964000000000000000000600082015250565b6000613c61601783613023565b9150613c6c82613c2b565b602082019050919050565b60006020820190508181036000830152613c9081613c54565b9050919050565b7f5472616e73666572206e6f74207065726d697474656400000000000000000000600082015250565b6000613ccd601683613023565b9150613cd882613c97565b602082019050919050565b60006020820190508181036000830152613cfc81613cc0565b9050919050565b7f53656e646572206973206e6f7420746865206f776e6572206f6620746865207460008201527f6f6b656e00000000000000000000000000000000000000000000000000000000602082015250565b6000613d5f602483613023565b9150613d6a82613d03565b604082019050919050565b60006020820190508181036000830152613d8e81613d52565b9050919050565b600081905092915050565b6000613dab82613018565b613db58185613d95565b9350613dc5818560208601613034565b80840191505092915050565b6000613ddd8284613da0565b915081905092915050565b6000613df3826130ca565b9150613dfe836130ca565b9250828201905080821115613e1657613e15613a5e565b5b92915050565b7f4e487b7100000000000000000000000000000000000000000000000000000000600052603260045260246000fd5b6000613e56826130ca565b91507fffffffffffffffffffffffffffffffffffffffffffffffffffffffffffffffff8203613e8857613e87613a5e565b5b600182019050919050565b7f4552433732313a20696e76616c696420746f6b656e2049440000000000000000600082015250565b6000613ec9601883613023565b9150613ed482613e93565b602082019050919050565b60006020820190508181036000830152613ef881613ebc565b9050919050565b7f4552433732313a2061646472657373207a65726f206973206e6f74206120766160008201527f6c6964206f776e65720000000000000000000000000000000000000000000000602082015250565b6000613f5b602983613023565b9150613f6682613eff565b604082019050919050565b60006020820190508181036000830152613f8a81613f4e565b9050919050565b7f4e465420616c7265616479206d696e7465640000000000000000000000000000600082015250565b6000613fc7601283613023565b9150613fd282613f91565b602082019050919050565b60006020820190508181036000830152613ff681613fba565b9050919050565b7f706c65617365206465706f73697420636f727265637420616d6f756e74000000600082015250565b6000614033601d83613023565b915061403e82613ffd565b602082019050919050565b6000602082019050818103600083015261406281614026565b9050919050565b7f6f6e6c79206f776e6572206f66204e46542063616e207374617274206573637260008201527f6f772070726f6365737300000000000000000000000000000000000000000000602082015250565b60006140c5602a83613023565b91506140d082614069565b604082019050919050565b600060208201905081810360008301526140f4816140b8565b9050919050565b7f4552433732313a2063616c6c6572206973206e6f7420746f6b656e206f776e6560008201527f72206f7220617070726f76656400000000000000000000000000000000000000602082015250565b6000614157602d83613023565b9150614162826140fb565b604082019050919050565b600060208201905081810360008301526141868161414a565b9050919050565b7f6f6e6c79206f776e6572206f66204e46542063616e20637265617465206c697360008201527f74696e6700000000000000000000000000000000000000000000000000000000602082015250565b60006141e9602483613023565b91506141f48261418d565b604082019050919050565b60006020820190508181036000830152614218816141dc565b9050919050565b7f4f776e61626c653a206e6577206f776e657220697320746865207a65726f206160008201527f6464726573730000000000000000000000000000000000000000000000000000602082015250565b600061427b602683613023565b91506142868261421f565b604082019050919050565b600060208201905081810360008301526142aa8161426e565b9050919050565b7f4552433732313a207472616e736665722066726f6d20696e636f72726563742060008201527f6f776e6572000000000000000000000000000000000000000000000000000000602082015250565b600061430d602583613023565b9150614318826142b1565b604082019050919050565b6000602082019050818103600083015261433c81614300565b9050919050565b7f4552433732313a207472616e7366657220746f20746865207a65726f2061646460008201527f7265737300000000000000000000000000000000000000000000000000000000602082015250565b600061439f602483613023565b91506143aa82614343565b604082019050919050565b600060208201905081810360008301526143ce81614392565b9050919050565b7f4f776e61626c653a2063616c6c6572206973206e6f7420746865206f776e6572600082015250565b600061440b602083613023565b9150614416826143d5565b602082019050919050565b6000602082019050818103600083015261443a816143fe565b9050919050565b7f4552433732313a20617070726f766520746f2063616c6c657200000000000000600082015250565b6000614477601983613023565b915061448282614441565b602082019050919050565b600060208201905081810360008301526144a68161446a565b9050919050565b7f4552433732313a206d696e7420746f20746865207a65726f2061646472657373600082015250565b60006144e3602083613023565b91506144ee826144ad565b602082019050919050565b60006020820190508181036000830152614512816144d6565b9050919050565b7f4552433732313a20746f6b656e20616c7265616479206d696e74656400000000600082015250565b600061454f601c83613023565b915061455a82614519565b602082019050919050565b6000602082019050818103600083015261457e81614542565b9050919050565b7f45524337323155524953746f726167653a2055524920736574206f66206e6f6e60008201527f6578697374656e7420746f6b656e000000000000000000000000000000000000602082015250565b60006145e1602e83613023565b91506145ec82614585565b604082019050919050565b60006020820190508181036000830152614610816145d4565b9050919050565b60008190508160005260206000209050919050565b60006020601f8301049050919050565b600082821b905092915050565b6000600883026146797fffffffffffffffffffffffffffffffffffffffffffffffffffffffffffffffff8261463c565b614683868361463c565b95508019841693508086168417925050509392505050565b6000819050919050565b60006146c06146bb6146b6846130ca565b61469b565b6130ca565b9050919050565b6000819050919050565b6146da836146a5565b6146ee6146e6826146c7565b848454614649565b825550505050565b600090565b6147036146f6565b61470e8184846146d1565b505050565b5b81811015614732576147276000826146fb565b600181019050614714565b5050565b601f8211156147775761474881614617565b6147518461462c565b81016020851015614760578190505b61477461476c8561462c565b830182614713565b50505b505050565b600082821c905092915050565b600061479a6000198460080261477c565b1980831691505092915050565b60006147b38383614789565b9150826002028217905092915050565b6147cc82613018565b67ffffffffffffffff8111156147e5576147e46132e5565b5b6147ef8254613909565b6147fa828285614736565b600060209050601f83116001811461482d576000841561481b578287015190505b61482585826147a7565b86555061488d565b601f19841661483b86614617565b60005b828110156148635784890151825560018201915060208501945060208101905061483e565b86831015614880578489015161487c601f891682614789565b8355505b6001600288020188555050505b505050505050565b7f4552433732313a207472616e7366657220746f206e6f6e20455243373231526560008201527f63656976657220696d706c656d656e7465720000000000000000000000000000602082015250565b60006148f1603283613023565b91506148fc82614895565b604082019050919050565b60006020820190508181036000830152614920816148e4565b9050919050565b60006149338285613da0565b915061493f8284613da0565b91508190509392505050565b600081519050919050565b600082825260208201905092915050565b60006149728261494b565b61497c8185614956565b935061498c818560208601613034565b6149958161305e565b840191505092915050565b60006080820190506149b5600083018761315f565b6149c2602083018661315f565b6149cf60408301856131f5565b81810360608301526149e18184614967565b905095945050505050565b6000815190506149fb81612f89565b92915050565b600060208284031215614a1757614a16612f53565b5b6000614a25848285016149ec565b91505092915050565b7f4e487b7100000000000000000000000000000000000000000000000000000000600052601260045260246000fdfea26469706673582212208633ea7f1e37381141172def15b462ae196d64f344c0d2f29452fa7c3d9a1b1264736f6c63430008110033",
    "linkReferences": {},
    "deployedLinkReferences": {}
}