{
  "_format": "hh-sol-artifact-1",
  "contractName": "ThreeBricks1",
  "sourceName": "contracts/ThreeBricks1.sol",
  "abi": [
    {
      "inputs": [],
      "stateMutability": "nonpayable",
      "type": "constructor"
    },
    {
      "anonymous": false,
      "inputs": [
        {
          "indexed": true,
          "internalType": "address",
          "name": "owner",
          "type": "address"
        },
        {
          "indexed": true,
          "internalType": "address",
          "name": "approved",
          "type": "address"
        },
        {
          "indexed": true,
          "internalType": "uint256",
          "name": "tokenId",
          "type": "uint256"
        }
      ],
      "name": "Approval",
      "type": "event"
    },
    {
      "anonymous": false,
      "inputs": [
        {
          "indexed": true,
          "internalType": "address",
          "name": "owner",
          "type": "address"
        },
        {
          "indexed": true,
          "internalType": "address",
          "name": "operator",
          "type": "address"
        },
        {
          "indexed": false,
          "internalType": "bool",
          "name": "approved",
          "type": "bool"
        }
      ],
      "name": "ApprovalForAll",
      "type": "event"
    },
    {
      "anonymous": false,
      "inputs": [
        {
          "indexed": true,
          "internalType": "address",
          "name": "previousOwner",
          "type": "address"
        },
        {
          "indexed": true,
          "internalType": "address",
          "name": "newOwner",
          "type": "address"
        }
      ],
      "name": "OwnershipTransferred",
      "type": "event"
    },
    {
      "anonymous": false,
      "inputs": [
        {
          "indexed": true,
          "internalType": "address",
          "name": "from",
          "type": "address"
        },
        {
          "indexed": true,
          "internalType": "address",
          "name": "to",
          "type": "address"
        },
        {
          "indexed": true,
          "internalType": "uint256",
          "name": "tokenId",
          "type": "uint256"
        }
      ],
      "name": "Transfer",
      "type": "event"
    },
    {
      "inputs": [
        {
          "internalType": "uint256",
          "name": "tokenId",
          "type": "uint256"
        },
        {
          "internalType": "address",
          "name": "chosenBuyer",
          "type": "address"
        }
      ],
      "name": "NFTOwnerStartEscrow",
      "outputs": [],
      "stateMutability": "payable",
      "type": "function"
    },
    {
      "inputs": [],
      "name": "_tokenIdCounter",
      "outputs": [
        {
          "internalType": "uint256",
          "name": "_value",
          "type": "uint256"
        }
      ],
      "stateMutability": "view",
      "type": "function"
    },
    {
      "inputs": [
        {
          "internalType": "address",
          "name": "to",
          "type": "address"
        },
        {
          "internalType": "uint256",
          "name": "tokenId",
          "type": "uint256"
        }
      ],
      "name": "approve",
      "outputs": [],
      "stateMutability": "nonpayable",
      "type": "function"
    },
    {
      "inputs": [
        {
          "internalType": "address",
          "name": "owner",
          "type": "address"
        }
      ],
      "name": "balanceOf",
      "outputs": [
        {
          "internalType": "uint256",
          "name": "",
          "type": "uint256"
        }
      ],
      "stateMutability": "view",
      "type": "function"
    },
    {
      "inputs": [
        {
          "internalType": "address",
          "name": "",
          "type": "address"
        }
      ],
      "name": "buyerAddressToBuyerPayableAddress",
      "outputs": [
        {
          "internalType": "address payable",
          "name": "",
          "type": "address"
        }
      ],
      "stateMutability": "view",
      "type": "function"
    },
    {
      "inputs": [
        {
          "internalType": "address",
          "name": "",
          "type": "address"
        }
      ],
      "name": "buyerAddressToDownPayment",
      "outputs": [
        {
          "internalType": "uint256",
          "name": "",
          "type": "uint256"
        }
      ],
      "stateMutability": "view",
      "type": "function"
    },
    {
      "inputs": [
        {
          "internalType": "uint256",
          "name": "tokenId",
          "type": "uint256"
        }
      ],
      "name": "completePaymentAndEsrow",
      "outputs": [],
      "stateMutability": "payable",
      "type": "function"
    },
    {
      "inputs": [
        {
          "internalType": "uint256",
          "name": "tokenId",
          "type": "uint256"
        },
        {
          "internalType": "uint256",
          "name": "_propertyPrice",
          "type": "uint256"
        },
        {
          "internalType": "uint256",
          "name": "_downPayment",
          "type": "uint256"
        }
      ],
      "name": "createPropertyListing",
      "outputs": [],
      "stateMutability": "nonpayable",
      "type": "function"
    },
    {
      "inputs": [
        {
          "internalType": "uint256",
          "name": "",
          "type": "uint256"
        }
      ],
      "name": "downPayment",
      "outputs": [
        {
          "internalType": "uint256",
          "name": "",
          "type": "uint256"
        }
      ],
      "stateMutability": "view",
      "type": "function"
    },
    {
      "inputs": [
        {
          "internalType": "uint256",
          "name": "tokenId",
          "type": "uint256"
        }
      ],
      "name": "getApproved",
      "outputs": [
        {
          "internalType": "address",
          "name": "",
          "type": "address"
        }
      ],
      "stateMutability": "view",
      "type": "function"
    },
    {
      "inputs": [],
      "name": "getCurrentTokenIdCounter",
      "outputs": [
        {
          "internalType": "uint256",
          "name": "",
          "type": "uint256"
        }
      ],
      "stateMutability": "view",
      "type": "function"
    },
    {
      "inputs": [
        {
          "internalType": "address",
          "name": "owner",
          "type": "address"
        },
        {
          "internalType": "address",
          "name": "operator",
          "type": "address"
        }
      ],
      "name": "isApprovedForAll",
      "outputs": [
        {
          "internalType": "bool",
          "name": "",
          "type": "bool"
        }
      ],
      "stateMutability": "view",
      "type": "function"
    },
    {
      "inputs": [
        {
          "internalType": "string",
          "name": "uri",
          "type": "string"
        }
      ],
      "name": "isContentOwned",
      "outputs": [
        {
          "internalType": "bool",
          "name": "",
          "type": "bool"
        }
      ],
      "stateMutability": "view",
      "type": "function"
    },
    {
      "inputs": [
        {
          "internalType": "uint256",
          "name": "tokenId",
          "type": "uint256"
        },
        {
          "internalType": "address payable",
          "name": "userPayableAddress",
          "type": "address"
        }
      ],
      "name": "makeDownPayment",
      "outputs": [],
      "stateMutability": "payable",
      "type": "function"
    },
    {
      "inputs": [
        {
          "internalType": "address",
          "name": "recipient",
          "type": "address"
        },
        {
          "internalType": "string",
          "name": "ipfsTitleDeedURI",
          "type": "string"
        },
        {
          "internalType": "string",
          "name": "propertyId",
          "type": "string"
        }
      ],
      "name": "mintNFT",
      "outputs": [
        {
          "internalType": "uint256",
          "name": "",
          "type": "uint256"
        }
      ],
      "stateMutability": "nonpayable",
      "type": "function"
    },
    {
      "inputs": [],
      "name": "name",
      "outputs": [
        {
          "internalType": "string",
          "name": "",
          "type": "string"
        }
      ],
      "stateMutability": "view",
      "type": "function"
    },
    {
      "inputs": [],
      "name": "owner",
      "outputs": [
        {
          "internalType": "address",
          "name": "",
          "type": "address"
        }
      ],
      "stateMutability": "view",
      "type": "function"
    },
    {
      "inputs": [
        {
          "internalType": "uint256",
          "name": "tokenId",
          "type": "uint256"
        }
      ],
      "name": "ownerOf",
      "outputs": [
        {
          "internalType": "address",
          "name": "",
          "type": "address"
        }
      ],
      "stateMutability": "view",
      "type": "function"
    },
    {
      "inputs": [
        {
          "internalType": "uint256",
          "name": "",
          "type": "uint256"
        }
      ],
      "name": "propertyPrice",
      "outputs": [
        {
          "internalType": "uint256",
          "name": "",
          "type": "uint256"
        }
      ],
      "stateMutability": "view",
      "type": "function"
    },
    {
      "inputs": [
        {
          "internalType": "uint256",
          "name": "tokenId",
          "type": "uint256"
        },
        {
          "internalType": "address",
          "name": "_buyerAddress",
          "type": "address"
        }
      ],
      "name": "releaseDownPayment",
      "outputs": [],
      "stateMutability": "payable",
      "type": "function"
    },
    {
      "inputs": [],
      "name": "renounceOwnership",
      "outputs": [],
      "stateMutability": "nonpayable",
      "type": "function"
    },
    {
      "inputs": [
        {
          "internalType": "address",
          "name": "from",
          "type": "address"
        },
        {
          "internalType": "address",
          "name": "to",
          "type": "address"
        },
        {
          "internalType": "uint256",
          "name": "tokenId",
          "type": "uint256"
        }
      ],
      "name": "safeTransferFrom",
      "outputs": [],
      "stateMutability": "nonpayable",
      "type": "function"
    },
    {
      "inputs": [
        {
          "internalType": "address",
          "name": "from",
          "type": "address"
        },
        {
          "internalType": "address",
          "name": "to",
          "type": "address"
        },
        {
          "internalType": "uint256",
          "name": "tokenId",
          "type": "uint256"
        },
        {
          "internalType": "bytes",
          "name": "data",
          "type": "bytes"
        }
      ],
      "name": "safeTransferFrom",
      "outputs": [],
      "stateMutability": "nonpayable",
      "type": "function"
    },
    {
      "inputs": [
        {
          "internalType": "address",
          "name": "operator",
          "type": "address"
        },
        {
          "internalType": "bool",
          "name": "approved",
          "type": "bool"
        }
      ],
      "name": "setApprovalForAll",
      "outputs": [],
      "stateMutability": "nonpayable",
      "type": "function"
    },
    {
      "inputs": [
        {
          "internalType": "bytes4",
          "name": "interfaceId",
          "type": "bytes4"
        }
      ],
      "name": "supportsInterface",
      "outputs": [
        {
          "internalType": "bool",
          "name": "",
          "type": "bool"
        }
      ],
      "stateMutability": "view",
      "type": "function"
    },
    {
      "inputs": [],
      "name": "symbol",
      "outputs": [
        {
          "internalType": "string",
          "name": "",
          "type": "string"
        }
      ],
      "stateMutability": "view",
      "type": "function"
    },
    {
      "inputs": [
        {
          "internalType": "uint256",
          "name": "",
          "type": "uint256"
        },
        {
          "internalType": "uint256",
          "name": "",
          "type": "uint256"
        }
      ],
      "name": "tokenIdToBuyerAddress",
      "outputs": [
        {
          "internalType": "address",
          "name": "",
          "type": "address"
        }
      ],
      "stateMutability": "view",
      "type": "function"
    },
    {
      "inputs": [
        {
          "internalType": "uint256",
          "name": "",
          "type": "uint256"
        }
      ],
      "name": "tokenIdToSellerPayableAddress",
      "outputs": [
        {
          "internalType": "address payable",
          "name": "",
          "type": "address"
        }
      ],
      "stateMutability": "view",
      "type": "function"
    },
    {
      "inputs": [
        {
          "internalType": "uint256",
          "name": "tokenId",
          "type": "uint256"
        }
      ],
      "name": "tokenURI",
      "outputs": [
        {
          "internalType": "string",
          "name": "",
          "type": "string"
        }
      ],
      "stateMutability": "view",
      "type": "function"
    },
    {
      "inputs": [
        {
          "internalType": "address",
          "name": "from",
          "type": "address"
        },
        {
          "internalType": "address",
          "name": "to",
          "type": "address"
        },
        {
          "internalType": "uint256",
          "name": "tokenId",
          "type": "uint256"
        }
      ],
      "name": "tranfer",
      "outputs": [],
      "stateMutability": "nonpayable",
      "type": "function"
    },
    {
      "inputs": [
        {
          "internalType": "address",
          "name": "from",
          "type": "address"
        },
        {
          "internalType": "address",
          "name": "to",
          "type": "address"
        },
        {
          "internalType": "uint256",
          "name": "tokenId",
          "type": "uint256"
        }
      ],
      "name": "transferFrom",
      "outputs": [],
      "stateMutability": "nonpayable",
      "type": "function"
    },
    {
      "inputs": [
        {
          "internalType": "address",
          "name": "newOwner",
          "type": "address"
        }
      ],
      "name": "transferOwnership",
      "outputs": [],
      "stateMutability": "nonpayable",
      "type": "function"
    }
  ],
  "bytecode": "0x60806040523480156200001157600080fd5b506040518060400160405280600c81526020017f5468726565427269636b733100000000000000000000000000000000000000008152506040518060400160405280600481526020017f544252530000000000000000000000000000000000000000000000000000000081525081600090816200008f919062000412565b508060019081620000a1919062000412565b505050620000c4620000b8620000ca60201b60201c565b620000d260201b60201c565b620004f9565b600033905090565b6000600760009054906101000a900473ffffffffffffffffffffffffffffffffffffffff16905081600760006101000a81548173ffffffffffffffffffffffffffffffffffffffff021916908373ffffffffffffffffffffffffffffffffffffffff1602179055508173ffffffffffffffffffffffffffffffffffffffff168173ffffffffffffffffffffffffffffffffffffffff167f8be0079c531659141344cd1fd0a4f28419497f9722a3daafe3b4186f6b6457e060405160405180910390a35050565b600081519050919050565b7f4e487b7100000000000000000000000000000000000000000000000000000000600052604160045260246000fd5b7f4e487b7100000000000000000000000000000000000000000000000000000000600052602260045260246000fd5b600060028204905060018216806200021a57607f821691505b60208210810362000230576200022f620001d2565b5b50919050565b60008190508160005260206000209050919050565b60006020601f8301049050919050565b600082821b905092915050565b6000600883026200029a7fffffffffffffffffffffffffffffffffffffffffffffffffffffffffffffffff826200025b565b620002a686836200025b565b95508019841693508086168417925050509392505050565b6000819050919050565b6000819050919050565b6000620002f3620002ed620002e784620002be565b620002c8565b620002be565b9050919050565b6000819050919050565b6200030f83620002d2565b620003276200031e82620002fa565b84845462000268565b825550505050565b600090565b6200033e6200032f565b6200034b81848462000304565b505050565b5b8181101562000373576200036760008262000334565b60018101905062000351565b5050565b601f821115620003c2576200038c8162000236565b62000397846200024b565b81016020851015620003a7578190505b620003bf620003b6856200024b565b83018262000350565b50505b505050565b600082821c905092915050565b6000620003e760001984600802620003c7565b1980831691505092915050565b6000620004028383620003d4565b9150826002028217905092915050565b6200041d8262000198565b67ffffffffffffffff811115620004395762000438620001a3565b5b62000445825462000201565b6200045282828562000377565b600060209050601f8311600181146200048a576000841562000475578287015190505b620004818582620003f4565b865550620004f1565b601f1984166200049a8662000236565b60005b82811015620004c4578489015182556001820191506020850194506020810190506200049d565b86831015620004e45784890151620004e0601f891682620003d4565b8355505b6001600288020188555050505b505050505050565b61431080620005096000396000f3fe6080604052600436106101e35760003560e01c80638c6743e011610102578063b364cf7d11610095578063c87b56dd11610064578063c87b56dd14610725578063e985e9c514610762578063f2fde38b1461079f578063f3020d83146107c8576101e3565b8063b364cf7d1461067a578063b88d4fde14610696578063bd1157a9146106bf578063c12e1a07146106fc576101e3565b80639f1cabc6116100d15780639f1cabc6146105bb578063a22cb465146105f8578063a3ee38ae14610621578063a983fa491461065e576101e3565b80638c6743e0146104fd5780638da5cb5b14610528578063914e58f51461055357806395d89b4114610590576101e3565b80633a28551e1161017a57806370a082311161014957806370a0823114610441578063715018a61461047e578063747f9b4f1461049557806384c4bd4b146104d2576101e3565b80633a28551e1461036157806342842e0e1461039e5780634412e439146103c75780636352211e14610404576101e3565b806309f5c475116101b657806309f5c475146102b657806314050c5a146102d257806323b872dd1461030f57806326530f3914610338576101e3565b806301ffc9a7146101e857806306fdde0314610225578063081812fc14610250578063095ea7b31461028d575b600080fd5b3480156101f457600080fd5b5061020f600480360381019061020a9190612ad3565b6107e4565b60405161021c9190612b1b565b60405180910390f35b34801561023157600080fd5b5061023a6108c6565b6040516102479190612bc6565b60405180910390f35b34801561025c57600080fd5b5061027760048036038101906102729190612c1e565b610958565b6040516102849190612c8c565b60405180910390f35b34801561029957600080fd5b506102b460048036038101906102af9190612cd3565b61099e565b005b6102d060048036038101906102cb9190612c1e565b610ab5565b005b3480156102de57600080fd5b506102f960048036038101906102f49190612c1e565b610b5c565b6040516103069190612d22565b60405180910390f35b34801561031b57600080fd5b5061033660048036038101906103319190612d3d565b610b74565b005b34801561034457600080fd5b5061035f600480360381019061035a9190612d3d565b610bd4565b005b34801561036d57600080fd5b5061038860048036038101906103839190612d90565b610be4565b6040516103959190612dde565b60405180910390f35b3480156103aa57600080fd5b506103c560048036038101906103c09190612d3d565b610c17565b005b3480156103d357600080fd5b506103ee60048036038101906103e99190612d90565b610d4e565b6040516103fb9190612d22565b60405180910390f35b34801561041057600080fd5b5061042b60048036038101906104269190612c1e565b610d66565b6040516104389190612c8c565b60405180910390f35b34801561044d57600080fd5b5061046860048036038101906104639190612d90565b610dec565b6040516104759190612d22565b60405180910390f35b34801561048a57600080fd5b50610493610ea3565b005b3480156104a157600080fd5b506104bc60048036038101906104b79190612c1e565b610eb7565b6040516104c99190612d22565b60405180910390f35b3480156104de57600080fd5b506104e7610ecf565b6040516104f49190612d22565b60405180910390f35b34801561050957600080fd5b50610512610edb565b60405161051f9190612d22565b60405180910390f35b34801561053457600080fd5b5061053d610ef1565b60405161054a9190612c8c565b60405180910390f35b34801561055f57600080fd5b5061057a60048036038101906105759190612c1e565b610f1b565b6040516105879190612dde565b60405180910390f35b34801561059c57600080fd5b506105a5610f4e565b6040516105b29190612bc6565b60405180910390f35b3480156105c757600080fd5b506105e260048036038101906105dd9190612f2e565b610fe0565b6040516105ef9190612b1b565b60405180910390f35b34801561060457600080fd5b5061061f600480360381019061061a9190612fa3565b61101b565b005b34801561062d57600080fd5b5061064860048036038101906106439190612fe3565b611031565b6040516106559190612d22565b60405180910390f35b6106786004803603810190610673919061309a565b611137565b005b610694600480360381019061068f91906130da565b611256565b005b3480156106a257600080fd5b506106bd60048036038101906106b891906131bb565b611498565b005b3480156106cb57600080fd5b506106e660048036038101906106e1919061323e565b6114fa565b6040516106f39190612c8c565b60405180910390f35b34801561070857600080fd5b50610723600480360381019061071e919061327e565b611548565b005b34801561073157600080fd5b5061074c60048036038101906107479190612c1e565b61164a565b6040516107599190612bc6565b60405180910390f35b34801561076e57600080fd5b50610789600480360381019061078491906132d1565b61165c565b6040516107969190612b1b565b60405180910390f35b3480156107ab57600080fd5b506107c660048036038101906107c19190612d90565b6116f0565b005b6107e260048036038101906107dd91906130da565b611773565b005b60007f80ac58cd000000000000000000000000000000000000000000000000000000007bffffffffffffffffffffffffffffffffffffffffffffffffffffffff1916827bffffffffffffffffffffffffffffffffffffffffffffffffffffffff191614806108af57507f5b5e139f000000000000000000000000000000000000000000000000000000007bffffffffffffffffffffffffffffffffffffffffffffffffffffffff1916827bffffffffffffffffffffffffffffffffffffffffffffffffffffffff1916145b806108bf57506108be82611777565b5b9050919050565b6060600080546108d590613340565b80601f016020809104026020016040519081016040528092919081815260200182805461090190613340565b801561094e5780601f106109235761010080835404028352916020019161094e565b820191906000526020600020905b81548152906001019060200180831161093157829003601f168201915b5050505050905090565b6000610963826117e1565b6004600083815260200190815260200160002060009054906101000a900473ffffffffffffffffffffffffffffffffffffffff169050919050565b60006109a982610d66565b90508073ffffffffffffffffffffffffffffffffffffffff168373ffffffffffffffffffffffffffffffffffffffff1603610a19576040517f08c379a0000000000000000000000000000000000000000000000000000000008152600401610a10906133e3565b60405180910390fd5b8073ffffffffffffffffffffffffffffffffffffffff16610a3861182c565b73ffffffffffffffffffffffffffffffffffffffff161480610a675750610a6681610a6161182c565b61165c565b5b610aa6576040517f08c379a0000000000000000000000000000000000000000000000000000000008152600401610a9d90613475565b60405180910390fd5b610ab08383611834565b505050565b610ac0303383610bd4565b60006010600083815260200190815260200160002060009054906101000a900473ffffffffffffffffffffffffffffffffffffffff1690506000600b60008481526020019081526020016000205490508173ffffffffffffffffffffffffffffffffffffffff166108fc829081150290604051600060405180830381858888f19350505050158015610b56573d6000803e3d6000fd5b50505050565b600b6020528060005260406000206000915090505481565b610b85610b7f61182c565b826118ed565b610bc4576040517f08c379a0000000000000000000000000000000000000000000000000000000008152600401610bbb90613507565b60405180910390fd5b610bcf838383611982565b505050565b610bdf838383610c17565b505050565b600f6020528060005260406000206000915054906101000a900473ffffffffffffffffffffffffffffffffffffffff1681565b600073ffffffffffffffffffffffffffffffffffffffff168373ffffffffffffffffffffffffffffffffffffffff1603610c86576040517f08c379a0000000000000000000000000000000000000000000000000000000008152600401610c7d90613573565b60405180910390fd5b600073ffffffffffffffffffffffffffffffffffffffff168273ffffffffffffffffffffffffffffffffffffffff1603610cf5576040517f08c379a0000000000000000000000000000000000000000000000000000000008152600401610cec906135df565b60405180910390fd5b610cff83826118ed565b610d3e576040517f08c379a0000000000000000000000000000000000000000000000000000000008152600401610d359061364b565b60405180910390fd5b610d49838383611982565b505050565b600e6020528060005260406000206000915090505481565b600080610d7283611c7b565b9050600073ffffffffffffffffffffffffffffffffffffffff168173ffffffffffffffffffffffffffffffffffffffff1603610de3576040517f08c379a0000000000000000000000000000000000000000000000000000000008152600401610dda906136b7565b60405180910390fd5b80915050919050565b60008073ffffffffffffffffffffffffffffffffffffffff168273ffffffffffffffffffffffffffffffffffffffff1603610e5c576040517f08c379a0000000000000000000000000000000000000000000000000000000008152600401610e5390613749565b60405180910390fd5b600360008373ffffffffffffffffffffffffffffffffffffffff1673ffffffffffffffffffffffffffffffffffffffff168152602001908152602001600020549050919050565b610eab611cb8565b610eb56000611d36565b565b600c6020528060005260406000206000915090505481565b60088060000154905081565b600080610ee86008611dfc565b90508091505090565b6000600760009054906101000a900473ffffffffffffffffffffffffffffffffffffffff16905090565b60106020528060005260406000206000915054906101000a900473ffffffffffffffffffffffffffffffffffffffff1681565b606060018054610f5d90613340565b80601f0160208091040260200160405190810160405280929190818152602001828054610f8990613340565b8015610fd65780601f10610fab57610100808354040283529160200191610fd6565b820191906000526020600020905b815481529060010190602001808311610fb957829003601f168201915b5050505050905090565b60006001600983604051610ff491906137a5565b908152602001604051809103902060009054906101000a900460ff1660ff16149050919050565b61102d61102661182c565b8383611e0a565b5050565b600061103b611cb8565b61104483610fe0565b15611084576040517f08c379a000000000000000000000000000000000000000000000000000000000815260040161107b90613808565b60405180910390fd5b600061108e610edb565b905061109a6008611f76565b60016009856040516110ac91906137a5565b908152602001604051809103902060006101000a81548160ff021916908360ff160217905550604051806020016040528084815250600a856040516110f191906137a5565b908152602001604051809103902090600161110d92919061293b565b506111188582611f8c565b61112281856121a9565b61112c3382611834565b809150509392505050565b80600f60003373ffffffffffffffffffffffffffffffffffffffff1673ffffffffffffffffffffffffffffffffffffffff16815260200190815260200160002060006101000a81548173ffffffffffffffffffffffffffffffffffffffff021916908373ffffffffffffffffffffffffffffffffffffffff1602179055506000600d6000848152602001908152602001600020905080829080600181540180825580915050600190039060005260206000200160009091909190916101000a81548173ffffffffffffffffffffffffffffffffffffffff021916908373ffffffffffffffffffffffffffffffffffffffff16021790555080600d6000858152602001908152602001600020908054611250929190612994565b50505050565b61126033836118ed565b61129f576040517f08c379a00000000000000000000000000000000000000000000000000000000081526004016112969061389a565b60405180910390fd5b6112aa333084610bd4565b6000600d600084815260200190815260200160002080548060200260200160405190810160405280929190818152602001828054801561133f57602002820191906000526020600020905b8160009054906101000a900473ffffffffffffffffffffffffffffffffffffffff1673ffffffffffffffffffffffffffffffffffffffff16815260200190600101908083116112f5575b5050505050905060005b8151811015611492578273ffffffffffffffffffffffffffffffffffffffff1682828151811061137c5761137b6138ba565b5b602002602001015173ffffffffffffffffffffffffffffffffffffffff161461147f576000600f60008484815181106113b8576113b76138ba565b5b602002602001015173ffffffffffffffffffffffffffffffffffffffff1673ffffffffffffffffffffffffffffffffffffffff16815260200190815260200160002060009054906101000a900473ffffffffffffffffffffffffffffffffffffffff1690506000600c60008781526020019081526020016000205490508173ffffffffffffffffffffffffffffffffffffffff166108fc829081150290604051600060405180830381858888f1935050505015801561147b573d6000803e3d6000fd5b5050505b808061148a90613918565b915050611349565b50505050565b6114a96114a361182c565b836118ed565b6114e8576040517f08c379a00000000000000000000000000000000000000000000000000000000081526004016114df90613507565b60405180910390fd5b6114f484848484612216565b50505050565b600d602052816000526040600020818154811061151657600080fd5b906000526020600020016000915091509054906101000a900473ffffffffffffffffffffffffffffffffffffffff1681565b61155233846118ed565b611591576040517f08c379a0000000000000000000000000000000000000000000000000000000008152600401611588906139d2565b60405180910390fd5b670de0b6b3a7640000826115a591906139f2565b600b600085815260200190815260200160002081905550670de0b6b3a7640000816115d091906139f2565b600c60008581526020019081526020016000208190555060003390506000819050806010600087815260200190815260200160002060006101000a81548173ffffffffffffffffffffffffffffffffffffffff021916908373ffffffffffffffffffffffffffffffffffffffff1602179055505050505050565b606061165582612272565b9050919050565b6000600560008473ffffffffffffffffffffffffffffffffffffffff1673ffffffffffffffffffffffffffffffffffffffff16815260200190815260200160002060008373ffffffffffffffffffffffffffffffffffffffff1673ffffffffffffffffffffffffffffffffffffffff16815260200190815260200160002060009054906101000a900460ff16905092915050565b6116f8611cb8565b600073ffffffffffffffffffffffffffffffffffffffff168173ffffffffffffffffffffffffffffffffffffffff1603611767576040517f08c379a000000000000000000000000000000000000000000000000000000000815260040161175e90613aa6565b60405180910390fd5b61177081611d36565b50565b5050565b60007f01ffc9a7000000000000000000000000000000000000000000000000000000007bffffffffffffffffffffffffffffffffffffffffffffffffffffffff1916827bffffffffffffffffffffffffffffffffffffffffffffffffffffffff1916149050919050565b6117ea81612384565b611829576040517f08c379a0000000000000000000000000000000000000000000000000000000008152600401611820906136b7565b60405180910390fd5b50565b600033905090565b816004600083815260200190815260200160002060006101000a81548173ffffffffffffffffffffffffffffffffffffffff021916908373ffffffffffffffffffffffffffffffffffffffff160217905550808273ffffffffffffffffffffffffffffffffffffffff166118a783610d66565b73ffffffffffffffffffffffffffffffffffffffff167f8c5be1e5ebec7d5bd14f71427d1e84f3dd0314c0f7b2291e5b200ac8c7c3b92560405160405180910390a45050565b6000806118f983610d66565b90508073ffffffffffffffffffffffffffffffffffffffff168473ffffffffffffffffffffffffffffffffffffffff16148061193b575061193a818561165c565b5b8061197957508373ffffffffffffffffffffffffffffffffffffffff1661196184610958565b73ffffffffffffffffffffffffffffffffffffffff16145b91505092915050565b8273ffffffffffffffffffffffffffffffffffffffff166119a282610d66565b73ffffffffffffffffffffffffffffffffffffffff16146119f8576040517f08c379a00000000000000000000000000000000000000000000000000000000081526004016119ef90613b38565b60405180910390fd5b600073ffffffffffffffffffffffffffffffffffffffff168273ffffffffffffffffffffffffffffffffffffffff1603611a67576040517f08c379a0000000000000000000000000000000000000000000000000000000008152600401611a5e90613bca565b60405180910390fd5b611a7483838360016123c5565b8273ffffffffffffffffffffffffffffffffffffffff16611a9482610d66565b73ffffffffffffffffffffffffffffffffffffffff1614611aea576040517f08c379a0000000000000000000000000000000000000000000000000000000008152600401611ae190613b38565b60405180910390fd5b6004600082815260200190815260200160002060006101000a81549073ffffffffffffffffffffffffffffffffffffffff02191690556001600360008573ffffffffffffffffffffffffffffffffffffffff1673ffffffffffffffffffffffffffffffffffffffff168152602001908152602001600020600082825403925050819055506001600360008473ffffffffffffffffffffffffffffffffffffffff1673ffffffffffffffffffffffffffffffffffffffff16815260200190815260200160002060008282540192505081905550816002600083815260200190815260200160002060006101000a81548173ffffffffffffffffffffffffffffffffffffffff021916908373ffffffffffffffffffffffffffffffffffffffff160217905550808273ffffffffffffffffffffffffffffffffffffffff168473ffffffffffffffffffffffffffffffffffffffff167fddf252ad1be2c89b69c2b068fc378daa952ba7f163c4a11628f55a4df523b3ef60405160405180910390a4611c7683838360016124eb565b505050565b60006002600083815260200190815260200160002060009054906101000a900473ffffffffffffffffffffffffffffffffffffffff169050919050565b611cc061182c565b73ffffffffffffffffffffffffffffffffffffffff16611cde610ef1565b73ffffffffffffffffffffffffffffffffffffffff1614611d34576040517f08c379a0000000000000000000000000000000000000000000000000000000008152600401611d2b90613c36565b60405180910390fd5b565b6000600760009054906101000a900473ffffffffffffffffffffffffffffffffffffffff16905081600760006101000a81548173ffffffffffffffffffffffffffffffffffffffff021916908373ffffffffffffffffffffffffffffffffffffffff1602179055508173ffffffffffffffffffffffffffffffffffffffff168173ffffffffffffffffffffffffffffffffffffffff167f8be0079c531659141344cd1fd0a4f28419497f9722a3daafe3b4186f6b6457e060405160405180910390a35050565b600081600001549050919050565b8173ffffffffffffffffffffffffffffffffffffffff168373ffffffffffffffffffffffffffffffffffffffff1603611e78576040517f08c379a0000000000000000000000000000000000000000000000000000000008152600401611e6f90613ca2565b60405180910390fd5b80600560008573ffffffffffffffffffffffffffffffffffffffff1673ffffffffffffffffffffffffffffffffffffffff16815260200190815260200160002060008473ffffffffffffffffffffffffffffffffffffffff1673ffffffffffffffffffffffffffffffffffffffff16815260200190815260200160002060006101000a81548160ff0219169083151502179055508173ffffffffffffffffffffffffffffffffffffffff168373ffffffffffffffffffffffffffffffffffffffff167f17307eab39ab6107e8899845ad3d59bd9653f200f220920489ca2b5937696c3183604051611f699190612b1b565b60405180910390a3505050565b6001816000016000828254019250508190555050565b600073ffffffffffffffffffffffffffffffffffffffff168273ffffffffffffffffffffffffffffffffffffffff1603611ffb576040517f08c379a0000000000000000000000000000000000000000000000000000000008152600401611ff290613d0e565b60405180910390fd5b61200481612384565b15612044576040517f08c379a000000000000000000000000000000000000000000000000000000000815260040161203b90613d7a565b60405180910390fd5b6120526000838360016123c5565b61205b81612384565b1561209b576040517f08c379a000000000000000000000000000000000000000000000000000000000815260040161209290613d7a565b60405180910390fd5b6001600360008473ffffffffffffffffffffffffffffffffffffffff1673ffffffffffffffffffffffffffffffffffffffff16815260200190815260200160002060008282540192505081905550816002600083815260200190815260200160002060006101000a81548173ffffffffffffffffffffffffffffffffffffffff021916908373ffffffffffffffffffffffffffffffffffffffff160217905550808273ffffffffffffffffffffffffffffffffffffffff16600073ffffffffffffffffffffffffffffffffffffffff167fddf252ad1be2c89b69c2b068fc378daa952ba7f163c4a11628f55a4df523b3ef60405160405180910390a46121a56000838360016124eb565b5050565b6121b282612384565b6121f1576040517f08c379a00000000000000000000000000000000000000000000000000000000081526004016121e890613e0c565b60405180910390fd5b806006600084815260200190815260200160002090816122119190613fd8565b505050565b612221848484611982565b61222d848484846124f1565b61226c576040517f08c379a00000000000000000000000000000000000000000000000000000000081526004016122639061411c565b60405180910390fd5b50505050565b606061227d826117e1565b600060066000848152602001908152602001600020805461229d90613340565b80601f01602080910402602001604051908101604052809291908181526020018280546122c990613340565b80156123165780601f106122eb57610100808354040283529160200191612316565b820191906000526020600020905b8154815290600101906020018083116122f957829003601f168201915b505050505090506000612327612678565b9050600081510361233c57819250505061237f565b60008251111561237157808260405160200161235992919061413c565b6040516020818303038152906040529250505061237f565b61237a8461268f565b925050505b919050565b60008073ffffffffffffffffffffffffffffffffffffffff166123a683611c7b565b73ffffffffffffffffffffffffffffffffffffffff1614159050919050565b60018111156124e557600073ffffffffffffffffffffffffffffffffffffffff168473ffffffffffffffffffffffffffffffffffffffff16146124595780600360008673ffffffffffffffffffffffffffffffffffffffff1673ffffffffffffffffffffffffffffffffffffffff16815260200190815260200160002060008282546124519190614160565b925050819055505b600073ffffffffffffffffffffffffffffffffffffffff168373ffffffffffffffffffffffffffffffffffffffff16146124e45780600360008573ffffffffffffffffffffffffffffffffffffffff1673ffffffffffffffffffffffffffffffffffffffff16815260200190815260200160002060008282546124dc9190614194565b925050819055505b5b50505050565b50505050565b60006125128473ffffffffffffffffffffffffffffffffffffffff166126f7565b1561266b578373ffffffffffffffffffffffffffffffffffffffff1663150b7a0261253b61182c565b8786866040518563ffffffff1660e01b815260040161255d949392919061421d565b6020604051808303816000875af192505050801561259957506040513d601f19601f82011682018060405250810190612596919061427e565b60015b61261b573d80600081146125c9576040519150601f19603f3d011682016040523d82523d6000602084013e6125ce565b606091505b506000815103612613576040517f08c379a000000000000000000000000000000000000000000000000000000000815260040161260a9061411c565b60405180910390fd5b805181602001fd5b63150b7a0260e01b7bffffffffffffffffffffffffffffffffffffffffffffffffffffffff1916817bffffffffffffffffffffffffffffffffffffffffffffffffffffffff191614915050612670565b600190505b949350505050565b606060405180602001604052806000815250905090565b606061269a826117e1565b60006126a4612678565b905060008151116126c457604051806020016040528060008152506126ef565b806126ce8461271a565b6040516020016126df92919061413c565b6040516020818303038152906040525b915050919050565b6000808273ffffffffffffffffffffffffffffffffffffffff163b119050919050565b606060006001612729846127e8565b01905060008167ffffffffffffffff81111561274857612747612e03565b5b6040519080825280601f01601f19166020018201604052801561277a5781602001600182028036833780820191505090505b509050600082602001820190505b6001156127dd578080600190039150507f3031323334353637383961626364656600000000000000000000000000000000600a86061a8153600a85816127d1576127d06142ab565b5b04945060008503612788575b819350505050919050565b600080600090507a184f03e93ff9f4daa797ed6e38ed64bf6a1f0100000000000000008310612846577a184f03e93ff9f4daa797ed6e38ed64bf6a1f010000000000000000838161283c5761283b6142ab565b5b0492506040810190505b6d04ee2d6d415b85acef81000000008310612883576d04ee2d6d415b85acef81000000008381612879576128786142ab565b5b0492506020810190505b662386f26fc1000083106128b257662386f26fc1000083816128a8576128a76142ab565b5b0492506010810190505b6305f5e10083106128db576305f5e10083816128d1576128d06142ab565b5b0492506008810190505b61271083106129005761271083816128f6576128f56142ab565b5b0492506004810190505b606483106129235760648381612919576129186142ab565b5b0492506002810190505b600a8310612932576001810190505b80915050919050565b828054828255906000526020600020908101928215612983579160200282015b828111156129825782518290816129729190613fd8565b509160200191906001019061295b565b5b50905061299091906129e6565b5090565b8280548282559060005260206000209081019282156129d55760005260206000209182015b828111156129d45782548255916001019190600101906129b9565b5b5090506129e29190612a0a565b5090565b5b80821115612a0657600081816129fd9190612a27565b506001016129e7565b5090565b5b80821115612a23576000816000905550600101612a0b565b5090565b508054612a3390613340565b6000825580601f10612a455750612a64565b601f016020900490600052602060002090810190612a639190612a0a565b5b50565b6000604051905090565b600080fd5b600080fd5b60007fffffffff0000000000000000000000000000000000000000000000000000000082169050919050565b612ab081612a7b565b8114612abb57600080fd5b50565b600081359050612acd81612aa7565b92915050565b600060208284031215612ae957612ae8612a71565b5b6000612af784828501612abe565b91505092915050565b60008115159050919050565b612b1581612b00565b82525050565b6000602082019050612b306000830184612b0c565b92915050565b600081519050919050565b600082825260208201905092915050565b60005b83811015612b70578082015181840152602081019050612b55565b60008484015250505050565b6000601f19601f8301169050919050565b6000612b9882612b36565b612ba28185612b41565b9350612bb2818560208601612b52565b612bbb81612b7c565b840191505092915050565b60006020820190508181036000830152612be08184612b8d565b905092915050565b6000819050919050565b612bfb81612be8565b8114612c0657600080fd5b50565b600081359050612c1881612bf2565b92915050565b600060208284031215612c3457612c33612a71565b5b6000612c4284828501612c09565b91505092915050565b600073ffffffffffffffffffffffffffffffffffffffff82169050919050565b6000612c7682612c4b565b9050919050565b612c8681612c6b565b82525050565b6000602082019050612ca16000830184612c7d565b92915050565b612cb081612c6b565b8114612cbb57600080fd5b50565b600081359050612ccd81612ca7565b92915050565b60008060408385031215612cea57612ce9612a71565b5b6000612cf885828601612cbe565b9250506020612d0985828601612c09565b9150509250929050565b612d1c81612be8565b82525050565b6000602082019050612d376000830184612d13565b92915050565b600080600060608486031215612d5657612d55612a71565b5b6000612d6486828701612cbe565b9350506020612d7586828701612cbe565b9250506040612d8686828701612c09565b9150509250925092565b600060208284031215612da657612da5612a71565b5b6000612db484828501612cbe565b91505092915050565b6000612dc882612c4b565b9050919050565b612dd881612dbd565b82525050565b6000602082019050612df36000830184612dcf565b92915050565b600080fd5b600080fd5b7f4e487b7100000000000000000000000000000000000000000000000000000000600052604160045260246000fd5b612e3b82612b7c565b810181811067ffffffffffffffff82111715612e5a57612e59612e03565b5b80604052505050565b6000612e6d612a67565b9050612e798282612e32565b919050565b600067ffffffffffffffff821115612e9957612e98612e03565b5b612ea282612b7c565b9050602081019050919050565b82818337600083830152505050565b6000612ed1612ecc84612e7e565b612e63565b905082815260208101848484011115612eed57612eec612dfe565b5b612ef8848285612eaf565b509392505050565b600082601f830112612f1557612f14612df9565b5b8135612f25848260208601612ebe565b91505092915050565b600060208284031215612f4457612f43612a71565b5b600082013567ffffffffffffffff811115612f6257612f61612a76565b5b612f6e84828501612f00565b91505092915050565b612f8081612b00565b8114612f8b57600080fd5b50565b600081359050612f9d81612f77565b92915050565b60008060408385031215612fba57612fb9612a71565b5b6000612fc885828601612cbe565b9250506020612fd985828601612f8e565b9150509250929050565b600080600060608486031215612ffc57612ffb612a71565b5b600061300a86828701612cbe565b935050602084013567ffffffffffffffff81111561302b5761302a612a76565b5b61303786828701612f00565b925050604084013567ffffffffffffffff81111561305857613057612a76565b5b61306486828701612f00565b9150509250925092565b61307781612dbd565b811461308257600080fd5b50565b6000813590506130948161306e565b92915050565b600080604083850312156130b1576130b0612a71565b5b60006130bf85828601612c09565b92505060206130d085828601613085565b9150509250929050565b600080604083850312156130f1576130f0612a71565b5b60006130ff85828601612c09565b925050602061311085828601612cbe565b9150509250929050565b600067ffffffffffffffff82111561313557613134612e03565b5b61313e82612b7c565b9050602081019050919050565b600061315e6131598461311a565b612e63565b90508281526020810184848401111561317a57613179612dfe565b5b613185848285612eaf565b509392505050565b600082601f8301126131a2576131a1612df9565b5b81356131b284826020860161314b565b91505092915050565b600080600080608085870312156131d5576131d4612a71565b5b60006131e387828801612cbe565b94505060206131f487828801612cbe565b935050604061320587828801612c09565b925050606085013567ffffffffffffffff81111561322657613225612a76565b5b6132328782880161318d565b91505092959194509250565b6000806040838503121561325557613254612a71565b5b600061326385828601612c09565b925050602061327485828601612c09565b9150509250929050565b60008060006060848603121561329757613296612a71565b5b60006132a586828701612c09565b93505060206132b686828701612c09565b92505060406132c786828701612c09565b9150509250925092565b600080604083850312156132e8576132e7612a71565b5b60006132f685828601612cbe565b925050602061330785828601612cbe565b9150509250929050565b7f4e487b7100000000000000000000000000000000000000000000000000000000600052602260045260246000fd5b6000600282049050600182168061335857607f821691505b60208210810361336b5761336a613311565b5b50919050565b7f4552433732313a20617070726f76616c20746f2063757272656e74206f776e6560008201527f7200000000000000000000000000000000000000000000000000000000000000602082015250565b60006133cd602183612b41565b91506133d882613371565b604082019050919050565b600060208201905081810360008301526133fc816133c0565b9050919050565b7f4552433732313a20617070726f76652063616c6c6572206973206e6f7420746f60008201527f6b656e206f776e6572206f7220617070726f76656420666f7220616c6c000000602082015250565b600061345f603d83612b41565b915061346a82613403565b604082019050919050565b6000602082019050818103600083015261348e81613452565b9050919050565b7f4552433732313a2063616c6c6572206973206e6f7420746f6b656e206f776e6560008201527f72206f7220617070726f76656400000000000000000000000000000000000000602082015250565b60006134f1602d83612b41565b91506134fc82613495565b604082019050919050565b60006020820190508181036000830152613520816134e4565b9050919050565b7f46726f6d2061646472657373206973206e6f742076616c696400000000000000600082015250565b600061355d601983612b41565b915061356882613527565b602082019050919050565b6000602082019050818103600083015261358c81613550565b9050919050565b7f546f2061646472657373206973206e6f742076616c6964000000000000000000600082015250565b60006135c9601783612b41565b91506135d482613593565b602082019050919050565b600060208201905081810360008301526135f8816135bc565b9050919050565b7f5472616e73666572206e6f74207065726d697474656400000000000000000000600082015250565b6000613635601683612b41565b9150613640826135ff565b602082019050919050565b6000602082019050818103600083015261366481613628565b9050919050565b7f4552433732313a20696e76616c696420746f6b656e2049440000000000000000600082015250565b60006136a1601883612b41565b91506136ac8261366b565b602082019050919050565b600060208201905081810360008301526136d081613694565b9050919050565b7f4552433732313a2061646472657373207a65726f206973206e6f74206120766160008201527f6c6964206f776e65720000000000000000000000000000000000000000000000602082015250565b6000613733602983612b41565b915061373e826136d7565b604082019050919050565b6000602082019050818103600083015261376281613726565b9050919050565b600081905092915050565b600061377f82612b36565b6137898185613769565b9350613799818560208601612b52565b80840191505092915050565b60006137b18284613774565b915081905092915050565b7f4e465420616c7265616479206d696e7465640000000000000000000000000000600082015250565b60006137f2601283612b41565b91506137fd826137bc565b602082019050919050565b60006020820190508181036000830152613821816137e5565b9050919050565b7f6f6e6c79206f776e6572206f66204e46542063616e207374617274206573637260008201527f6f772070726f6365737300000000000000000000000000000000000000000000602082015250565b6000613884602a83612b41565b915061388f82613828565b604082019050919050565b600060208201905081810360008301526138b381613877565b9050919050565b7f4e487b7100000000000000000000000000000000000000000000000000000000600052603260045260246000fd5b7f4e487b7100000000000000000000000000000000000000000000000000000000600052601160045260246000fd5b600061392382612be8565b91507fffffffffffffffffffffffffffffffffffffffffffffffffffffffffffffffff8203613955576139546138e9565b5b600182019050919050565b7f6f6e6c79206f776e6572206f66204e46542063616e20637265617465206c697360008201527f74696e6700000000000000000000000000000000000000000000000000000000602082015250565b60006139bc602483612b41565b91506139c782613960565b604082019050919050565b600060208201905081810360008301526139eb816139af565b9050919050565b60006139fd82612be8565b9150613a0883612be8565b9250828202613a1681612be8565b91508282048414831517613a2d57613a2c6138e9565b5b5092915050565b7f4f776e61626c653a206e6577206f776e657220697320746865207a65726f206160008201527f6464726573730000000000000000000000000000000000000000000000000000602082015250565b6000613a90602683612b41565b9150613a9b82613a34565b604082019050919050565b60006020820190508181036000830152613abf81613a83565b9050919050565b7f4552433732313a207472616e736665722066726f6d20696e636f72726563742060008201527f6f776e6572000000000000000000000000000000000000000000000000000000602082015250565b6000613b22602583612b41565b9150613b2d82613ac6565b604082019050919050565b60006020820190508181036000830152613b5181613b15565b9050919050565b7f4552433732313a207472616e7366657220746f20746865207a65726f2061646460008201527f7265737300000000000000000000000000000000000000000000000000000000602082015250565b6000613bb4602483612b41565b9150613bbf82613b58565b604082019050919050565b60006020820190508181036000830152613be381613ba7565b9050919050565b7f4f776e61626c653a2063616c6c6572206973206e6f7420746865206f776e6572600082015250565b6000613c20602083612b41565b9150613c2b82613bea565b602082019050919050565b60006020820190508181036000830152613c4f81613c13565b9050919050565b7f4552433732313a20617070726f766520746f2063616c6c657200000000000000600082015250565b6000613c8c601983612b41565b9150613c9782613c56565b602082019050919050565b60006020820190508181036000830152613cbb81613c7f565b9050919050565b7f4552433732313a206d696e7420746f20746865207a65726f2061646472657373600082015250565b6000613cf8602083612b41565b9150613d0382613cc2565b602082019050919050565b60006020820190508181036000830152613d2781613ceb565b9050919050565b7f4552433732313a20746f6b656e20616c7265616479206d696e74656400000000600082015250565b6000613d64601c83612b41565b9150613d6f82613d2e565b602082019050919050565b60006020820190508181036000830152613d9381613d57565b9050919050565b7f45524337323155524953746f726167653a2055524920736574206f66206e6f6e60008201527f6578697374656e7420746f6b656e000000000000000000000000000000000000602082015250565b6000613df6602e83612b41565b9150613e0182613d9a565b604082019050919050565b60006020820190508181036000830152613e2581613de9565b9050919050565b60008190508160005260206000209050919050565b60006020601f8301049050919050565b600082821b905092915050565b600060088302613e8e7fffffffffffffffffffffffffffffffffffffffffffffffffffffffffffffffff82613e51565b613e988683613e51565b95508019841693508086168417925050509392505050565b6000819050919050565b6000613ed5613ed0613ecb84612be8565b613eb0565b612be8565b9050919050565b6000819050919050565b613eef83613eba565b613f03613efb82613edc565b848454613e5e565b825550505050565b600090565b613f18613f0b565b613f23818484613ee6565b505050565b5b81811015613f4757613f3c600082613f10565b600181019050613f29565b5050565b601f821115613f8c57613f5d81613e2c565b613f6684613e41565b81016020851015613f75578190505b613f89613f8185613e41565b830182613f28565b50505b505050565b600082821c905092915050565b6000613faf60001984600802613f91565b1980831691505092915050565b6000613fc88383613f9e565b9150826002028217905092915050565b613fe182612b36565b67ffffffffffffffff811115613ffa57613ff9612e03565b5b6140048254613340565b61400f828285613f4b565b600060209050601f8311600181146140425760008415614030578287015190505b61403a8582613fbc565b8655506140a2565b601f19841661405086613e2c565b60005b8281101561407857848901518255600182019150602085019450602081019050614053565b868310156140955784890151614091601f891682613f9e565b8355505b6001600288020188555050505b505050505050565b7f4552433732313a207472616e7366657220746f206e6f6e20455243373231526560008201527f63656976657220696d706c656d656e7465720000000000000000000000000000602082015250565b6000614106603283612b41565b9150614111826140aa565b604082019050919050565b60006020820190508181036000830152614135816140f9565b9050919050565b60006141488285613774565b91506141548284613774565b91508190509392505050565b600061416b82612be8565b915061417683612be8565b925082820390508181111561418e5761418d6138e9565b5b92915050565b600061419f82612be8565b91506141aa83612be8565b92508282019050808211156141c2576141c16138e9565b5b92915050565b600081519050919050565b600082825260208201905092915050565b60006141ef826141c8565b6141f981856141d3565b9350614209818560208601612b52565b61421281612b7c565b840191505092915050565b60006080820190506142326000830187612c7d565b61423f6020830186612c7d565b61424c6040830185612d13565b818103606083015261425e81846141e4565b905095945050505050565b60008151905061427881612aa7565b92915050565b60006020828403121561429457614293612a71565b5b60006142a284828501614269565b91505092915050565b7f4e487b7100000000000000000000000000000000000000000000000000000000600052601260045260246000fdfea26469706673582212207ce08364cd71bf0752af265d542e86584551bd887d3f2b0efd3fb72d10b03afb64736f6c63430008110033",
  "linkReferences": {},
  "deployedLinkReferences": {}
}