{
  "_format": "hh-sol-artifact-1",
  "contractName": "ThreeBricks",
  "sourceName": "contracts/ThreeBricks.sol",
  "abi": [
    {
      "inputs": [],
      "stateMutability": "nonpayable",
      "type": "constructor"
    },
    {
      "anonymous": false,
      "inputs": [
        {
          "indexed": true,
          "internalType": "address",
          "name": "owner",
          "type": "address"
        },
        {
          "indexed": true,
          "internalType": "address",
          "name": "approved",
          "type": "address"
        },
        {
          "indexed": true,
          "internalType": "uint256",
          "name": "tokenId",
          "type": "uint256"
        }
      ],
      "name": "Approval",
      "type": "event"
    },
    {
      "anonymous": false,
      "inputs": [
        {
          "indexed": true,
          "internalType": "address",
          "name": "owner",
          "type": "address"
        },
        {
          "indexed": true,
          "internalType": "address",
          "name": "operator",
          "type": "address"
        },
        {
          "indexed": false,
          "internalType": "bool",
          "name": "approved",
          "type": "bool"
        }
      ],
      "name": "ApprovalForAll",
      "type": "event"
    },
    {
      "anonymous": false,
      "inputs": [
        {
          "indexed": true,
          "internalType": "address",
          "name": "previousOwner",
          "type": "address"
        },
        {
          "indexed": true,
          "internalType": "address",
          "name": "newOwner",
          "type": "address"
        }
      ],
      "name": "OwnershipTransferred",
      "type": "event"
    },
    {
      "anonymous": false,
      "inputs": [
        {
          "indexed": true,
          "internalType": "address",
          "name": "from",
          "type": "address"
        },
        {
          "indexed": true,
          "internalType": "address",
          "name": "to",
          "type": "address"
        },
        {
          "indexed": true,
          "internalType": "uint256",
          "name": "tokenId",
          "type": "uint256"
        }
      ],
      "name": "Transfer",
      "type": "event"
    },
    {
      "inputs": [
        {
          "internalType": "uint256",
          "name": "tokenId",
          "type": "uint256"
        },
        {
          "internalType": "address",
          "name": "chosenBuyer",
          "type": "address"
        }
      ],
      "name": "NFTOwnerStartEscrow",
      "outputs": [],
      "stateMutability": "payable",
      "type": "function"
    },
    {
      "inputs": [],
      "name": "_tokenIdCounter",
      "outputs": [
        {
          "internalType": "uint256",
          "name": "_value",
          "type": "uint256"
        }
      ],
      "stateMutability": "view",
      "type": "function"
    },
    {
      "inputs": [
        {
          "internalType": "address",
          "name": "to",
          "type": "address"
        },
        {
          "internalType": "uint256",
          "name": "tokenId",
          "type": "uint256"
        }
      ],
      "name": "approve",
      "outputs": [],
      "stateMutability": "nonpayable",
      "type": "function"
    },
    {
      "inputs": [
        {
          "internalType": "address",
          "name": "owner",
          "type": "address"
        }
      ],
      "name": "balanceOf",
      "outputs": [
        {
          "internalType": "uint256",
          "name": "",
          "type": "uint256"
        }
      ],
      "stateMutability": "view",
      "type": "function"
    },
    {
      "inputs": [
        {
          "internalType": "address",
          "name": "",
          "type": "address"
        }
      ],
      "name": "buyerAddressToBuyerPayableAddress",
      "outputs": [
        {
          "internalType": "address payable",
          "name": "",
          "type": "address"
        }
      ],
      "stateMutability": "view",
      "type": "function"
    },
    {
      "inputs": [
        {
          "internalType": "address",
          "name": "",
          "type": "address"
        }
      ],
      "name": "buyerAddressToDownPayment",
      "outputs": [
        {
          "internalType": "uint256",
          "name": "",
          "type": "uint256"
        }
      ],
      "stateMutability": "view",
      "type": "function"
    },
    {
      "inputs": [
        {
          "internalType": "uint256",
          "name": "tokenId",
          "type": "uint256"
        }
      ],
      "name": "completePaymentAndEsrow",
      "outputs": [],
      "stateMutability": "payable",
      "type": "function"
    },
    {
      "inputs": [
        {
          "internalType": "uint256",
          "name": "tokenId",
          "type": "uint256"
        },
        {
          "internalType": "uint256",
          "name": "_propertyPrice",
          "type": "uint256"
        },
        {
          "internalType": "uint256",
          "name": "_downPayment",
          "type": "uint256"
        }
      ],
      "name": "createPropertyListing",
      "outputs": [],
      "stateMutability": "nonpayable",
      "type": "function"
    },
    {
      "inputs": [
        {
          "internalType": "uint256",
          "name": "",
          "type": "uint256"
        }
      ],
      "name": "downPayment",
      "outputs": [
        {
          "internalType": "uint256",
          "name": "",
          "type": "uint256"
        }
      ],
      "stateMutability": "view",
      "type": "function"
    },
    {
      "inputs": [
        {
          "internalType": "uint256",
          "name": "tokenId",
          "type": "uint256"
        }
      ],
      "name": "getApproved",
      "outputs": [
        {
          "internalType": "address",
          "name": "",
          "type": "address"
        }
      ],
      "stateMutability": "view",
      "type": "function"
    },
    {
      "inputs": [],
      "name": "getCurrentTokenIdCounter",
      "outputs": [
        {
          "internalType": "uint256",
          "name": "",
          "type": "uint256"
        }
      ],
      "stateMutability": "view",
      "type": "function"
    },
    {
      "inputs": [
        {
          "internalType": "address",
          "name": "owner",
          "type": "address"
        },
        {
          "internalType": "address",
          "name": "operator",
          "type": "address"
        }
      ],
      "name": "isApprovedForAll",
      "outputs": [
        {
          "internalType": "bool",
          "name": "",
          "type": "bool"
        }
      ],
      "stateMutability": "view",
      "type": "function"
    },
    {
      "inputs": [
        {
          "internalType": "string",
          "name": "uri",
          "type": "string"
        }
      ],
      "name": "isContentOwned",
      "outputs": [
        {
          "internalType": "bool",
          "name": "",
          "type": "bool"
        }
      ],
      "stateMutability": "view",
      "type": "function"
    },
    {
      "inputs": [
        {
          "internalType": "uint256",
          "name": "tokenId",
          "type": "uint256"
        },
        {
          "internalType": "address payable",
          "name": "userPayableAddress",
          "type": "address"
        }
      ],
      "name": "makeDownPayment",
      "outputs": [],
      "stateMutability": "payable",
      "type": "function"
    },
    {
      "inputs": [
        {
          "internalType": "address",
          "name": "recipient",
          "type": "address"
        },
        {
          "internalType": "string",
          "name": "ipfsTitleDeedURI",
          "type": "string"
        },
        {
          "internalType": "string",
          "name": "propertyId",
          "type": "string"
        }
      ],
      "name": "mintNFT",
      "outputs": [
        {
          "internalType": "uint256",
          "name": "",
          "type": "uint256"
        }
      ],
      "stateMutability": "nonpayable",
      "type": "function"
    },
    {
      "inputs": [],
      "name": "name",
      "outputs": [
        {
          "internalType": "string",
          "name": "",
          "type": "string"
        }
      ],
      "stateMutability": "view",
      "type": "function"
    },
    {
      "inputs": [],
      "name": "owner",
      "outputs": [
        {
          "internalType": "address",
          "name": "",
          "type": "address"
        }
      ],
      "stateMutability": "view",
      "type": "function"
    },
    {
      "inputs": [
        {
          "internalType": "uint256",
          "name": "tokenId",
          "type": "uint256"
        }
      ],
      "name": "ownerOf",
      "outputs": [
        {
          "internalType": "address",
          "name": "",
          "type": "address"
        }
      ],
      "stateMutability": "view",
      "type": "function"
    },
    {
      "inputs": [
        {
          "internalType": "uint256",
          "name": "",
          "type": "uint256"
        }
      ],
      "name": "propertyPrice",
      "outputs": [
        {
          "internalType": "uint256",
          "name": "",
          "type": "uint256"
        }
      ],
      "stateMutability": "view",
      "type": "function"
    },
    {
      "inputs": [
        {
          "internalType": "uint256",
          "name": "tokenId",
          "type": "uint256"
        },
        {
          "internalType": "address",
          "name": "_buyerAddress",
          "type": "address"
        }
      ],
      "name": "releaseDownPayment",
      "outputs": [],
      "stateMutability": "payable",
      "type": "function"
    },
    {
      "inputs": [],
      "name": "renounceOwnership",
      "outputs": [],
      "stateMutability": "nonpayable",
      "type": "function"
    },
    {
      "inputs": [
        {
          "internalType": "address",
          "name": "from",
          "type": "address"
        },
        {
          "internalType": "address",
          "name": "to",
          "type": "address"
        },
        {
          "internalType": "uint256",
          "name": "tokenId",
          "type": "uint256"
        }
      ],
      "name": "safeTransferFrom",
      "outputs": [],
      "stateMutability": "nonpayable",
      "type": "function"
    },
    {
      "inputs": [
        {
          "internalType": "address",
          "name": "from",
          "type": "address"
        },
        {
          "internalType": "address",
          "name": "to",
          "type": "address"
        },
        {
          "internalType": "uint256",
          "name": "tokenId",
          "type": "uint256"
        },
        {
          "internalType": "bytes",
          "name": "data",
          "type": "bytes"
        }
      ],
      "name": "safeTransferFrom",
      "outputs": [],
      "stateMutability": "nonpayable",
      "type": "function"
    },
    {
      "inputs": [
        {
          "internalType": "address",
          "name": "operator",
          "type": "address"
        },
        {
          "internalType": "bool",
          "name": "approved",
          "type": "bool"
        }
      ],
      "name": "setApprovalForAll",
      "outputs": [],
      "stateMutability": "nonpayable",
      "type": "function"
    },
    {
      "inputs": [
        {
          "internalType": "bytes4",
          "name": "interfaceId",
          "type": "bytes4"
        }
      ],
      "name": "supportsInterface",
      "outputs": [
        {
          "internalType": "bool",
          "name": "",
          "type": "bool"
        }
      ],
      "stateMutability": "view",
      "type": "function"
    },
    {
      "inputs": [],
      "name": "symbol",
      "outputs": [
        {
          "internalType": "string",
          "name": "",
          "type": "string"
        }
      ],
      "stateMutability": "view",
      "type": "function"
    },
    {
      "inputs": [
        {
          "internalType": "uint256",
          "name": "",
          "type": "uint256"
        },
        {
          "internalType": "uint256",
          "name": "",
          "type": "uint256"
        }
      ],
      "name": "tokenIdToBuyerAddress",
      "outputs": [
        {
          "internalType": "address",
          "name": "",
          "type": "address"
        }
      ],
      "stateMutability": "view",
      "type": "function"
    },
    {
      "inputs": [
        {
          "internalType": "uint256",
          "name": "",
          "type": "uint256"
        }
      ],
      "name": "tokenIdToSellerPayableAddress",
      "outputs": [
        {
          "internalType": "address payable",
          "name": "",
          "type": "address"
        }
      ],
      "stateMutability": "view",
      "type": "function"
    },
    {
      "inputs": [
        {
          "internalType": "uint256",
          "name": "tokenId",
          "type": "uint256"
        }
      ],
      "name": "tokenURI",
      "outputs": [
        {
          "internalType": "string",
          "name": "",
          "type": "string"
        }
      ],
      "stateMutability": "view",
      "type": "function"
    },
    {
      "inputs": [
        {
          "internalType": "address",
          "name": "from",
          "type": "address"
        },
        {
          "internalType": "address",
          "name": "to",
          "type": "address"
        },
        {
          "internalType": "uint256",
          "name": "tokenId",
          "type": "uint256"
        }
      ],
      "name": "tranfer",
      "outputs": [],
      "stateMutability": "nonpayable",
      "type": "function"
    },
    {
      "inputs": [
        {
          "internalType": "address",
          "name": "from",
          "type": "address"
        },
        {
          "internalType": "address",
          "name": "to",
          "type": "address"
        },
        {
          "internalType": "uint256",
          "name": "tokenId",
          "type": "uint256"
        }
      ],
      "name": "transferFrom",
      "outputs": [],
      "stateMutability": "nonpayable",
      "type": "function"
    },
    {
      "inputs": [
        {
          "internalType": "address",
          "name": "newOwner",
          "type": "address"
        }
      ],
      "name": "transferOwnership",
      "outputs": [],
      "stateMutability": "nonpayable",
      "type": "function"
    }
  ],
  "bytecode": "0x60806040523480156200001157600080fd5b506040518060400160405280600b81526020017f5468726565427269636b730000000000000000000000000000000000000000008152506040518060400160405280600481526020017f544252530000000000000000000000000000000000000000000000000000000081525081600090816200008f919062000412565b508060019081620000a1919062000412565b505050620000c4620000b8620000ca60201b60201c565b620000d260201b60201c565b620004f9565b600033905090565b6000600760009054906101000a900473ffffffffffffffffffffffffffffffffffffffff16905081600760006101000a81548173ffffffffffffffffffffffffffffffffffffffff021916908373ffffffffffffffffffffffffffffffffffffffff1602179055508173ffffffffffffffffffffffffffffffffffffffff168173ffffffffffffffffffffffffffffffffffffffff167f8be0079c531659141344cd1fd0a4f28419497f9722a3daafe3b4186f6b6457e060405160405180910390a35050565b600081519050919050565b7f4e487b7100000000000000000000000000000000000000000000000000000000600052604160045260246000fd5b7f4e487b7100000000000000000000000000000000000000000000000000000000600052602260045260246000fd5b600060028204905060018216806200021a57607f821691505b60208210810362000230576200022f620001d2565b5b50919050565b60008190508160005260206000209050919050565b60006020601f8301049050919050565b600082821b905092915050565b6000600883026200029a7fffffffffffffffffffffffffffffffffffffffffffffffffffffffffffffffff826200025b565b620002a686836200025b565b95508019841693508086168417925050509392505050565b6000819050919050565b6000819050919050565b6000620002f3620002ed620002e784620002be565b620002c8565b620002be565b9050919050565b6000819050919050565b6200030f83620002d2565b620003276200031e82620002fa565b84845462000268565b825550505050565b600090565b6200033e6200032f565b6200034b81848462000304565b505050565b5b8181101562000373576200036760008262000334565b60018101905062000351565b5050565b601f821115620003c2576200038c8162000236565b62000397846200024b565b81016020851015620003a7578190505b620003bf620003b6856200024b565b83018262000350565b50505b505050565b600082821c905092915050565b6000620003e760001984600802620003c7565b1980831691505092915050565b6000620004028383620003d4565b9150826002028217905092915050565b6200041d8262000198565b67ffffffffffffffff811115620004395762000438620001a3565b5b62000445825462000201565b6200045282828562000377565b600060209050601f8311600181146200048a576000841562000475578287015190505b620004818582620003f4565b865550620004f1565b601f1984166200049a8662000236565b60005b82811015620004c4578489015182556001820191506020850194506020810190506200049d565b86831015620004e45784890151620004e0601f891682620003d4565b8355505b6001600288020188555050505b505050505050565b6143f080620005096000396000f3fe6080604052600436106101e35760003560e01c80638c6743e011610102578063b364cf7d11610095578063c87b56dd11610064578063c87b56dd14610725578063e985e9c514610762578063f2fde38b1461079f578063f3020d83146107c8576101e3565b8063b364cf7d1461067a578063b88d4fde14610696578063bd1157a9146106bf578063c12e1a07146106fc576101e3565b80639f1cabc6116100d15780639f1cabc6146105bb578063a22cb465146105f8578063a3ee38ae14610621578063a983fa491461065e576101e3565b80638c6743e0146104fd5780638da5cb5b14610528578063914e58f51461055357806395d89b4114610590576101e3565b80633a28551e1161017a57806370a082311161014957806370a0823114610441578063715018a61461047e578063747f9b4f1461049557806384c4bd4b146104d2576101e3565b80633a28551e1461036157806342842e0e1461039e5780634412e439146103c75780636352211e14610404576101e3565b806309f5c475116101b657806309f5c475146102b657806314050c5a146102d257806323b872dd1461030f57806326530f3914610338576101e3565b806301ffc9a7146101e857806306fdde0314610225578063081812fc14610250578063095ea7b31461028d575b600080fd5b3480156101f457600080fd5b5061020f600480360381019061020a9190612b47565b6107e4565b60405161021c9190612b8f565b60405180910390f35b34801561023157600080fd5b5061023a6108c6565b6040516102479190612c3a565b60405180910390f35b34801561025c57600080fd5b5061027760048036038101906102729190612c92565b610958565b6040516102849190612d00565b60405180910390f35b34801561029957600080fd5b506102b460048036038101906102af9190612d47565b61099e565b005b6102d060048036038101906102cb9190612c92565b610ab5565b005b3480156102de57600080fd5b506102f960048036038101906102f49190612c92565b610bd0565b6040516103069190612d96565b60405180910390f35b34801561031b57600080fd5b5061033660048036038101906103319190612db1565b610be8565b005b34801561034457600080fd5b5061035f600480360381019061035a9190612db1565b610c48565b005b34801561036d57600080fd5b5061038860048036038101906103839190612e04565b610c58565b6040516103959190612e52565b60405180910390f35b3480156103aa57600080fd5b506103c560048036038101906103c09190612db1565b610c8b565b005b3480156103d357600080fd5b506103ee60048036038101906103e99190612e04565b610dc2565b6040516103fb9190612d96565b60405180910390f35b34801561041057600080fd5b5061042b60048036038101906104269190612c92565b610dda565b6040516104389190612d00565b60405180910390f35b34801561044d57600080fd5b5061046860048036038101906104639190612e04565b610e60565b6040516104759190612d96565b60405180910390f35b34801561048a57600080fd5b50610493610f17565b005b3480156104a157600080fd5b506104bc60048036038101906104b79190612c92565b610f2b565b6040516104c99190612d96565b60405180910390f35b3480156104de57600080fd5b506104e7610f43565b6040516104f49190612d96565b60405180910390f35b34801561050957600080fd5b50610512610f4f565b60405161051f9190612d96565b60405180910390f35b34801561053457600080fd5b5061053d610f65565b60405161054a9190612d00565b60405180910390f35b34801561055f57600080fd5b5061057a60048036038101906105759190612c92565b610f8f565b6040516105879190612e52565b60405180910390f35b34801561059c57600080fd5b506105a5610fc2565b6040516105b29190612c3a565b60405180910390f35b3480156105c757600080fd5b506105e260048036038101906105dd9190612fa2565b611054565b6040516105ef9190612b8f565b60405180910390f35b34801561060457600080fd5b5061061f600480360381019061061a9190613017565b61108f565b005b34801561062d57600080fd5b5061064860048036038101906106439190613057565b6110a5565b6040516106559190612d96565b60405180910390f35b6106786004803603810190610673919061310e565b6111ab565b005b610694600480360381019061068f919061314e565b6112ca565b005b3480156106a257600080fd5b506106bd60048036038101906106b8919061322f565b61150c565b005b3480156106cb57600080fd5b506106e660048036038101906106e191906132b2565b61156e565b6040516106f39190612d00565b60405180910390f35b34801561070857600080fd5b50610723600480360381019061071e91906132f2565b6115bc565b005b34801561073157600080fd5b5061074c60048036038101906107479190612c92565b6116be565b6040516107599190612c3a565b60405180910390f35b34801561076e57600080fd5b5061078960048036038101906107849190613345565b6116d0565b6040516107969190612b8f565b60405180910390f35b3480156107ab57600080fd5b506107c660048036038101906107c19190612e04565b611764565b005b6107e260048036038101906107dd919061314e565b6117e7565b005b60007f80ac58cd000000000000000000000000000000000000000000000000000000007bffffffffffffffffffffffffffffffffffffffffffffffffffffffff1916827bffffffffffffffffffffffffffffffffffffffffffffffffffffffff191614806108af57507f5b5e139f000000000000000000000000000000000000000000000000000000007bffffffffffffffffffffffffffffffffffffffffffffffffffffffff1916827bffffffffffffffffffffffffffffffffffffffffffffffffffffffff1916145b806108bf57506108be826117eb565b5b9050919050565b6060600080546108d5906133b4565b80601f0160208091040260200160405190810160405280929190818152602001828054610901906133b4565b801561094e5780601f106109235761010080835404028352916020019161094e565b820191906000526020600020905b81548152906001019060200180831161093157829003601f168201915b5050505050905090565b600061096382611855565b6004600083815260200190815260200160002060009054906101000a900473ffffffffffffffffffffffffffffffffffffffff169050919050565b60006109a982610dda565b90508073ffffffffffffffffffffffffffffffffffffffff168373ffffffffffffffffffffffffffffffffffffffff1603610a19576040517f08c379a0000000000000000000000000000000000000000000000000000000008152600401610a1090613457565b60405180910390fd5b8073ffffffffffffffffffffffffffffffffffffffff16610a386118a0565b73ffffffffffffffffffffffffffffffffffffffff161480610a675750610a6681610a616118a0565b6116d0565b5b610aa6576040517f08c379a0000000000000000000000000000000000000000000000000000000008152600401610a9d906134e9565b60405180910390fd5b610ab083836118a8565b505050565b600c600082815260200190815260200160002054600b600083815260200190815260200160002054610ae79190613538565b341015610b29576040517f08c379a0000000000000000000000000000000000000000000000000000000008152600401610b20906135b8565b60405180910390fd5b610b34303383610c48565b60006010600083815260200190815260200160002060009054906101000a900473ffffffffffffffffffffffffffffffffffffffff1690506000600b60008481526020019081526020016000205490508173ffffffffffffffffffffffffffffffffffffffff166108fc829081150290604051600060405180830381858888f19350505050158015610bca573d6000803e3d6000fd5b50505050565b600b6020528060005260406000206000915090505481565b610bf9610bf36118a0565b82611961565b610c38576040517f08c379a0000000000000000000000000000000000000000000000000000000008152600401610c2f9061364a565b60405180910390fd5b610c438383836119f6565b505050565b610c53838383610c8b565b505050565b600f6020528060005260406000206000915054906101000a900473ffffffffffffffffffffffffffffffffffffffff1681565b600073ffffffffffffffffffffffffffffffffffffffff168373ffffffffffffffffffffffffffffffffffffffff1603610cfa576040517f08c379a0000000000000000000000000000000000000000000000000000000008152600401610cf1906136b6565b60405180910390fd5b600073ffffffffffffffffffffffffffffffffffffffff168273ffffffffffffffffffffffffffffffffffffffff1603610d69576040517f08c379a0000000000000000000000000000000000000000000000000000000008152600401610d6090613722565b60405180910390fd5b610d738382611961565b610db2576040517f08c379a0000000000000000000000000000000000000000000000000000000008152600401610da99061378e565b60405180910390fd5b610dbd8383836119f6565b505050565b600e6020528060005260406000206000915090505481565b600080610de683611cef565b9050600073ffffffffffffffffffffffffffffffffffffffff168173ffffffffffffffffffffffffffffffffffffffff1603610e57576040517f08c379a0000000000000000000000000000000000000000000000000000000008152600401610e4e906137fa565b60405180910390fd5b80915050919050565b60008073ffffffffffffffffffffffffffffffffffffffff168273ffffffffffffffffffffffffffffffffffffffff1603610ed0576040517f08c379a0000000000000000000000000000000000000000000000000000000008152600401610ec79061388c565b60405180910390fd5b600360008373ffffffffffffffffffffffffffffffffffffffff1673ffffffffffffffffffffffffffffffffffffffff168152602001908152602001600020549050919050565b610f1f611d2c565b610f296000611daa565b565b600c6020528060005260406000206000915090505481565b60088060000154905081565b600080610f5c6008611e70565b90508091505090565b6000600760009054906101000a900473ffffffffffffffffffffffffffffffffffffffff16905090565b60106020528060005260406000206000915054906101000a900473ffffffffffffffffffffffffffffffffffffffff1681565b606060018054610fd1906133b4565b80601f0160208091040260200160405190810160405280929190818152602001828054610ffd906133b4565b801561104a5780601f1061101f5761010080835404028352916020019161104a565b820191906000526020600020905b81548152906001019060200180831161102d57829003601f168201915b5050505050905090565b6000600160098360405161106891906138e8565b908152602001604051809103902060009054906101000a900460ff1660ff16149050919050565b6110a161109a6118a0565b8383611e7e565b5050565b60006110af611d2c565b6110b883611054565b156110f8576040517f08c379a00000000000000000000000000000000000000000000000000000000081526004016110ef9061394b565b60405180910390fd5b6000611102610f4f565b905061110e6008611fea565b600160098560405161112091906138e8565b908152602001604051809103902060006101000a81548160ff021916908360ff160217905550604051806020016040528084815250600a8560405161116591906138e8565b90815260200160405180910390209060016111819291906129af565b5061118c8582612000565b611196818561221d565b6111a033826118a8565b809150509392505050565b80600f60003373ffffffffffffffffffffffffffffffffffffffff1673ffffffffffffffffffffffffffffffffffffffff16815260200190815260200160002060006101000a81548173ffffffffffffffffffffffffffffffffffffffff021916908373ffffffffffffffffffffffffffffffffffffffff1602179055506000600d6000848152602001908152602001600020905080829080600181540180825580915050600190039060005260206000200160009091909190916101000a81548173ffffffffffffffffffffffffffffffffffffffff021916908373ffffffffffffffffffffffffffffffffffffffff16021790555080600d60008581526020019081526020016000209080546112c4929190612a08565b50505050565b6112d43383611961565b611313576040517f08c379a000000000000000000000000000000000000000000000000000000000815260040161130a906139dd565b60405180910390fd5b61131e333084610c48565b6000600d60008481526020019081526020016000208054806020026020016040519081016040528092919081815260200182805480156113b357602002820191906000526020600020905b8160009054906101000a900473ffffffffffffffffffffffffffffffffffffffff1673ffffffffffffffffffffffffffffffffffffffff1681526020019060010190808311611369575b5050505050905060005b8151811015611506578273ffffffffffffffffffffffffffffffffffffffff168282815181106113f0576113ef6139fd565b5b602002602001015173ffffffffffffffffffffffffffffffffffffffff16146114f3576000600f600084848151811061142c5761142b6139fd565b5b602002602001015173ffffffffffffffffffffffffffffffffffffffff1673ffffffffffffffffffffffffffffffffffffffff16815260200190815260200160002060009054906101000a900473ffffffffffffffffffffffffffffffffffffffff1690506000600c60008781526020019081526020016000205490508173ffffffffffffffffffffffffffffffffffffffff166108fc829081150290604051600060405180830381858888f193505050501580156114ef573d6000803e3d6000fd5b5050505b80806114fe90613a2c565b9150506113bd565b50505050565b61151d6115176118a0565b83611961565b61155c576040517f08c379a00000000000000000000000000000000000000000000000000000000081526004016115539061364a565b60405180910390fd5b6115688484848461228a565b50505050565b600d602052816000526040600020818154811061158a57600080fd5b906000526020600020016000915091509054906101000a900473ffffffffffffffffffffffffffffffffffffffff1681565b6115c63384611961565b611605576040517f08c379a00000000000000000000000000000000000000000000000000000000081526004016115fc90613ae6565b60405180910390fd5b670de0b6b3a7640000826116199190613b06565b600b600085815260200190815260200160002081905550670de0b6b3a7640000816116449190613b06565b600c60008581526020019081526020016000208190555060003390506000819050806010600087815260200190815260200160002060006101000a81548173ffffffffffffffffffffffffffffffffffffffff021916908373ffffffffffffffffffffffffffffffffffffffff1602179055505050505050565b60606116c9826122e6565b9050919050565b6000600560008473ffffffffffffffffffffffffffffffffffffffff1673ffffffffffffffffffffffffffffffffffffffff16815260200190815260200160002060008373ffffffffffffffffffffffffffffffffffffffff1673ffffffffffffffffffffffffffffffffffffffff16815260200190815260200160002060009054906101000a900460ff16905092915050565b61176c611d2c565b600073ffffffffffffffffffffffffffffffffffffffff168173ffffffffffffffffffffffffffffffffffffffff16036117db576040517f08c379a00000000000000000000000000000000000000000000000000000000081526004016117d290613bba565b60405180910390fd5b6117e481611daa565b50565b5050565b60007f01ffc9a7000000000000000000000000000000000000000000000000000000007bffffffffffffffffffffffffffffffffffffffffffffffffffffffff1916827bffffffffffffffffffffffffffffffffffffffffffffffffffffffff1916149050919050565b61185e816123f8565b61189d576040517f08c379a0000000000000000000000000000000000000000000000000000000008152600401611894906137fa565b60405180910390fd5b50565b600033905090565b816004600083815260200190815260200160002060006101000a81548173ffffffffffffffffffffffffffffffffffffffff021916908373ffffffffffffffffffffffffffffffffffffffff160217905550808273ffffffffffffffffffffffffffffffffffffffff1661191b83610dda565b73ffffffffffffffffffffffffffffffffffffffff167f8c5be1e5ebec7d5bd14f71427d1e84f3dd0314c0f7b2291e5b200ac8c7c3b92560405160405180910390a45050565b60008061196d83610dda565b90508073ffffffffffffffffffffffffffffffffffffffff168473ffffffffffffffffffffffffffffffffffffffff1614806119af57506119ae81856116d0565b5b806119ed57508373ffffffffffffffffffffffffffffffffffffffff166119d584610958565b73ffffffffffffffffffffffffffffffffffffffff16145b91505092915050565b8273ffffffffffffffffffffffffffffffffffffffff16611a1682610dda565b73ffffffffffffffffffffffffffffffffffffffff1614611a6c576040517f08c379a0000000000000000000000000000000000000000000000000000000008152600401611a6390613c4c565b60405180910390fd5b600073ffffffffffffffffffffffffffffffffffffffff168273ffffffffffffffffffffffffffffffffffffffff1603611adb576040517f08c379a0000000000000000000000000000000000000000000000000000000008152600401611ad290613cde565b60405180910390fd5b611ae88383836001612439565b8273ffffffffffffffffffffffffffffffffffffffff16611b0882610dda565b73ffffffffffffffffffffffffffffffffffffffff1614611b5e576040517f08c379a0000000000000000000000000000000000000000000000000000000008152600401611b5590613c4c565b60405180910390fd5b6004600082815260200190815260200160002060006101000a81549073ffffffffffffffffffffffffffffffffffffffff02191690556001600360008573ffffffffffffffffffffffffffffffffffffffff1673ffffffffffffffffffffffffffffffffffffffff168152602001908152602001600020600082825403925050819055506001600360008473ffffffffffffffffffffffffffffffffffffffff1673ffffffffffffffffffffffffffffffffffffffff16815260200190815260200160002060008282540192505081905550816002600083815260200190815260200160002060006101000a81548173ffffffffffffffffffffffffffffffffffffffff021916908373ffffffffffffffffffffffffffffffffffffffff160217905550808273ffffffffffffffffffffffffffffffffffffffff168473ffffffffffffffffffffffffffffffffffffffff167fddf252ad1be2c89b69c2b068fc378daa952ba7f163c4a11628f55a4df523b3ef60405160405180910390a4611cea838383600161255f565b505050565b60006002600083815260200190815260200160002060009054906101000a900473ffffffffffffffffffffffffffffffffffffffff169050919050565b611d346118a0565b73ffffffffffffffffffffffffffffffffffffffff16611d52610f65565b73ffffffffffffffffffffffffffffffffffffffff1614611da8576040517f08c379a0000000000000000000000000000000000000000000000000000000008152600401611d9f90613d4a565b60405180910390fd5b565b6000600760009054906101000a900473ffffffffffffffffffffffffffffffffffffffff16905081600760006101000a81548173ffffffffffffffffffffffffffffffffffffffff021916908373ffffffffffffffffffffffffffffffffffffffff1602179055508173ffffffffffffffffffffffffffffffffffffffff168173ffffffffffffffffffffffffffffffffffffffff167f8be0079c531659141344cd1fd0a4f28419497f9722a3daafe3b4186f6b6457e060405160405180910390a35050565b600081600001549050919050565b8173ffffffffffffffffffffffffffffffffffffffff168373ffffffffffffffffffffffffffffffffffffffff1603611eec576040517f08c379a0000000000000000000000000000000000000000000000000000000008152600401611ee390613db6565b60405180910390fd5b80600560008573ffffffffffffffffffffffffffffffffffffffff1673ffffffffffffffffffffffffffffffffffffffff16815260200190815260200160002060008473ffffffffffffffffffffffffffffffffffffffff1673ffffffffffffffffffffffffffffffffffffffff16815260200190815260200160002060006101000a81548160ff0219169083151502179055508173ffffffffffffffffffffffffffffffffffffffff168373ffffffffffffffffffffffffffffffffffffffff167f17307eab39ab6107e8899845ad3d59bd9653f200f220920489ca2b5937696c3183604051611fdd9190612b8f565b60405180910390a3505050565b6001816000016000828254019250508190555050565b600073ffffffffffffffffffffffffffffffffffffffff168273ffffffffffffffffffffffffffffffffffffffff160361206f576040517f08c379a000000000000000000000000000000000000000000000000000000000815260040161206690613e22565b60405180910390fd5b612078816123f8565b156120b8576040517f08c379a00000000000000000000000000000000000000000000000000000000081526004016120af90613e8e565b60405180910390fd5b6120c6600083836001612439565b6120cf816123f8565b1561210f576040517f08c379a000000000000000000000000000000000000000000000000000000000815260040161210690613e8e565b60405180910390fd5b6001600360008473ffffffffffffffffffffffffffffffffffffffff1673ffffffffffffffffffffffffffffffffffffffff16815260200190815260200160002060008282540192505081905550816002600083815260200190815260200160002060006101000a81548173ffffffffffffffffffffffffffffffffffffffff021916908373ffffffffffffffffffffffffffffffffffffffff160217905550808273ffffffffffffffffffffffffffffffffffffffff16600073ffffffffffffffffffffffffffffffffffffffff167fddf252ad1be2c89b69c2b068fc378daa952ba7f163c4a11628f55a4df523b3ef60405160405180910390a461221960008383600161255f565b5050565b612226826123f8565b612265576040517f08c379a000000000000000000000000000000000000000000000000000000000815260040161225c90613f20565b60405180910390fd5b8060066000848152602001908152602001600020908161228591906140ec565b505050565b6122958484846119f6565b6122a184848484612565565b6122e0576040517f08c379a00000000000000000000000000000000000000000000000000000000081526004016122d790614230565b60405180910390fd5b50505050565b60606122f182611855565b6000600660008481526020019081526020016000208054612311906133b4565b80601f016020809104026020016040519081016040528092919081815260200182805461233d906133b4565b801561238a5780601f1061235f5761010080835404028352916020019161238a565b820191906000526020600020905b81548152906001019060200180831161236d57829003601f168201915b50505050509050600061239b6126ec565b905060008151036123b05781925050506123f3565b6000825111156123e55780826040516020016123cd929190614250565b604051602081830303815290604052925050506123f3565b6123ee84612703565b925050505b919050565b60008073ffffffffffffffffffffffffffffffffffffffff1661241a83611cef565b73ffffffffffffffffffffffffffffffffffffffff1614159050919050565b600181111561255957600073ffffffffffffffffffffffffffffffffffffffff168473ffffffffffffffffffffffffffffffffffffffff16146124cd5780600360008673ffffffffffffffffffffffffffffffffffffffff1673ffffffffffffffffffffffffffffffffffffffff16815260200190815260200160002060008282546124c59190613538565b925050819055505b600073ffffffffffffffffffffffffffffffffffffffff168373ffffffffffffffffffffffffffffffffffffffff16146125585780600360008573ffffffffffffffffffffffffffffffffffffffff1673ffffffffffffffffffffffffffffffffffffffff16815260200190815260200160002060008282546125509190614274565b925050819055505b5b50505050565b50505050565b60006125868473ffffffffffffffffffffffffffffffffffffffff1661276b565b156126df578373ffffffffffffffffffffffffffffffffffffffff1663150b7a026125af6118a0565b8786866040518563ffffffff1660e01b81526004016125d194939291906142fd565b6020604051808303816000875af192505050801561260d57506040513d601f19601f8201168201806040525081019061260a919061435e565b60015b61268f573d806000811461263d576040519150601f19603f3d011682016040523d82523d6000602084013e612642565b606091505b506000815103612687576040517f08c379a000000000000000000000000000000000000000000000000000000000815260040161267e90614230565b60405180910390fd5b805181602001fd5b63150b7a0260e01b7bffffffffffffffffffffffffffffffffffffffffffffffffffffffff1916817bffffffffffffffffffffffffffffffffffffffffffffffffffffffff1916149150506126e4565b600190505b949350505050565b606060405180602001604052806000815250905090565b606061270e82611855565b60006127186126ec565b905060008151116127385760405180602001604052806000815250612763565b806127428461278e565b604051602001612753929190614250565b6040516020818303038152906040525b915050919050565b6000808273ffffffffffffffffffffffffffffffffffffffff163b119050919050565b60606000600161279d8461285c565b01905060008167ffffffffffffffff8111156127bc576127bb612e77565b5b6040519080825280601f01601f1916602001820160405280156127ee5781602001600182028036833780820191505090505b509050600082602001820190505b600115612851578080600190039150507f3031323334353637383961626364656600000000000000000000000000000000600a86061a8153600a85816128455761284461438b565b5b049450600085036127fc575b819350505050919050565b600080600090507a184f03e93ff9f4daa797ed6e38ed64bf6a1f01000000000000000083106128ba577a184f03e93ff9f4daa797ed6e38ed64bf6a1f01000000000000000083816128b0576128af61438b565b5b0492506040810190505b6d04ee2d6d415b85acef810000000083106128f7576d04ee2d6d415b85acef810000000083816128ed576128ec61438b565b5b0492506020810190505b662386f26fc10000831061292657662386f26fc10000838161291c5761291b61438b565b5b0492506010810190505b6305f5e100831061294f576305f5e10083816129455761294461438b565b5b0492506008810190505b612710831061297457612710838161296a5761296961438b565b5b0492506004810190505b60648310612997576064838161298d5761298c61438b565b5b0492506002810190505b600a83106129a6576001810190505b80915050919050565b8280548282559060005260206000209081019282156129f7579160200282015b828111156129f65782518290816129e691906140ec565b50916020019190600101906129cf565b5b509050612a049190612a5a565b5090565b828054828255906000526020600020908101928215612a495760005260206000209182015b82811115612a48578254825591600101919060010190612a2d565b5b509050612a569190612a7e565b5090565b5b80821115612a7a5760008181612a719190612a9b565b50600101612a5b565b5090565b5b80821115612a97576000816000905550600101612a7f565b5090565b508054612aa7906133b4565b6000825580601f10612ab95750612ad8565b601f016020900490600052602060002090810190612ad79190612a7e565b5b50565b6000604051905090565b600080fd5b600080fd5b60007fffffffff0000000000000000000000000000000000000000000000000000000082169050919050565b612b2481612aef565b8114612b2f57600080fd5b50565b600081359050612b4181612b1b565b92915050565b600060208284031215612b5d57612b5c612ae5565b5b6000612b6b84828501612b32565b91505092915050565b60008115159050919050565b612b8981612b74565b82525050565b6000602082019050612ba46000830184612b80565b92915050565b600081519050919050565b600082825260208201905092915050565b60005b83811015612be4578082015181840152602081019050612bc9565b60008484015250505050565b6000601f19601f8301169050919050565b6000612c0c82612baa565b612c168185612bb5565b9350612c26818560208601612bc6565b612c2f81612bf0565b840191505092915050565b60006020820190508181036000830152612c548184612c01565b905092915050565b6000819050919050565b612c6f81612c5c565b8114612c7a57600080fd5b50565b600081359050612c8c81612c66565b92915050565b600060208284031215612ca857612ca7612ae5565b5b6000612cb684828501612c7d565b91505092915050565b600073ffffffffffffffffffffffffffffffffffffffff82169050919050565b6000612cea82612cbf565b9050919050565b612cfa81612cdf565b82525050565b6000602082019050612d156000830184612cf1565b92915050565b612d2481612cdf565b8114612d2f57600080fd5b50565b600081359050612d4181612d1b565b92915050565b60008060408385031215612d5e57612d5d612ae5565b5b6000612d6c85828601612d32565b9250506020612d7d85828601612c7d565b9150509250929050565b612d9081612c5c565b82525050565b6000602082019050612dab6000830184612d87565b92915050565b600080600060608486031215612dca57612dc9612ae5565b5b6000612dd886828701612d32565b9350506020612de986828701612d32565b9250506040612dfa86828701612c7d565b9150509250925092565b600060208284031215612e1a57612e19612ae5565b5b6000612e2884828501612d32565b91505092915050565b6000612e3c82612cbf565b9050919050565b612e4c81612e31565b82525050565b6000602082019050612e676000830184612e43565b92915050565b600080fd5b600080fd5b7f4e487b7100000000000000000000000000000000000000000000000000000000600052604160045260246000fd5b612eaf82612bf0565b810181811067ffffffffffffffff82111715612ece57612ecd612e77565b5b80604052505050565b6000612ee1612adb565b9050612eed8282612ea6565b919050565b600067ffffffffffffffff821115612f0d57612f0c612e77565b5b612f1682612bf0565b9050602081019050919050565b82818337600083830152505050565b6000612f45612f4084612ef2565b612ed7565b905082815260208101848484011115612f6157612f60612e72565b5b612f6c848285612f23565b509392505050565b600082601f830112612f8957612f88612e6d565b5b8135612f99848260208601612f32565b91505092915050565b600060208284031215612fb857612fb7612ae5565b5b600082013567ffffffffffffffff811115612fd657612fd5612aea565b5b612fe284828501612f74565b91505092915050565b612ff481612b74565b8114612fff57600080fd5b50565b60008135905061301181612feb565b92915050565b6000806040838503121561302e5761302d612ae5565b5b600061303c85828601612d32565b925050602061304d85828601613002565b9150509250929050565b6000806000606084860312156130705761306f612ae5565b5b600061307e86828701612d32565b935050602084013567ffffffffffffffff81111561309f5761309e612aea565b5b6130ab86828701612f74565b925050604084013567ffffffffffffffff8111156130cc576130cb612aea565b5b6130d886828701612f74565b9150509250925092565b6130eb81612e31565b81146130f657600080fd5b50565b600081359050613108816130e2565b92915050565b6000806040838503121561312557613124612ae5565b5b600061313385828601612c7d565b9250506020613144858286016130f9565b9150509250929050565b6000806040838503121561316557613164612ae5565b5b600061317385828601612c7d565b925050602061318485828601612d32565b9150509250929050565b600067ffffffffffffffff8211156131a9576131a8612e77565b5b6131b282612bf0565b9050602081019050919050565b60006131d26131cd8461318e565b612ed7565b9050828152602081018484840111156131ee576131ed612e72565b5b6131f9848285612f23565b509392505050565b600082601f83011261321657613215612e6d565b5b81356132268482602086016131bf565b91505092915050565b6000806000806080858703121561324957613248612ae5565b5b600061325787828801612d32565b945050602061326887828801612d32565b935050604061327987828801612c7d565b925050606085013567ffffffffffffffff81111561329a57613299612aea565b5b6132a687828801613201565b91505092959194509250565b600080604083850312156132c9576132c8612ae5565b5b60006132d785828601612c7d565b92505060206132e885828601612c7d565b9150509250929050565b60008060006060848603121561330b5761330a612ae5565b5b600061331986828701612c7d565b935050602061332a86828701612c7d565b925050604061333b86828701612c7d565b9150509250925092565b6000806040838503121561335c5761335b612ae5565b5b600061336a85828601612d32565b925050602061337b85828601612d32565b9150509250929050565b7f4e487b7100000000000000000000000000000000000000000000000000000000600052602260045260246000fd5b600060028204905060018216806133cc57607f821691505b6020821081036133df576133de613385565b5b50919050565b7f4552433732313a20617070726f76616c20746f2063757272656e74206f776e6560008201527f7200000000000000000000000000000000000000000000000000000000000000602082015250565b6000613441602183612bb5565b915061344c826133e5565b604082019050919050565b6000602082019050818103600083015261347081613434565b9050919050565b7f4552433732313a20617070726f76652063616c6c6572206973206e6f7420746f60008201527f6b656e206f776e6572206f7220617070726f76656420666f7220616c6c000000602082015250565b60006134d3603d83612bb5565b91506134de82613477565b604082019050919050565b60006020820190508181036000830152613502816134c6565b9050919050565b7f4e487b7100000000000000000000000000000000000000000000000000000000600052601160045260246000fd5b600061354382612c5c565b915061354e83612c5c565b925082820390508181111561356657613565613509565b5b92915050565b7f706c656173652070617920636f727265637420616d6f756e7400000000000000600082015250565b60006135a2601983612bb5565b91506135ad8261356c565b602082019050919050565b600060208201905081810360008301526135d181613595565b9050919050565b7f4552433732313a2063616c6c6572206973206e6f7420746f6b656e206f776e6560008201527f72206f7220617070726f76656400000000000000000000000000000000000000602082015250565b6000613634602d83612bb5565b915061363f826135d8565b604082019050919050565b6000602082019050818103600083015261366381613627565b9050919050565b7f46726f6d2061646472657373206973206e6f742076616c696400000000000000600082015250565b60006136a0601983612bb5565b91506136ab8261366a565b602082019050919050565b600060208201905081810360008301526136cf81613693565b9050919050565b7f546f2061646472657373206973206e6f742076616c6964000000000000000000600082015250565b600061370c601783612bb5565b9150613717826136d6565b602082019050919050565b6000602082019050818103600083015261373b816136ff565b9050919050565b7f5472616e73666572206e6f74207065726d697474656400000000000000000000600082015250565b6000613778601683612bb5565b915061378382613742565b602082019050919050565b600060208201905081810360008301526137a78161376b565b9050919050565b7f4552433732313a20696e76616c696420746f6b656e2049440000000000000000600082015250565b60006137e4601883612bb5565b91506137ef826137ae565b602082019050919050565b60006020820190508181036000830152613813816137d7565b9050919050565b7f4552433732313a2061646472657373207a65726f206973206e6f74206120766160008201527f6c6964206f776e65720000000000000000000000000000000000000000000000602082015250565b6000613876602983612bb5565b91506138818261381a565b604082019050919050565b600060208201905081810360008301526138a581613869565b9050919050565b600081905092915050565b60006138c282612baa565b6138cc81856138ac565b93506138dc818560208601612bc6565b80840191505092915050565b60006138f482846138b7565b915081905092915050565b7f4e465420616c7265616479206d696e7465640000000000000000000000000000600082015250565b6000613935601283612bb5565b9150613940826138ff565b602082019050919050565b6000602082019050818103600083015261396481613928565b9050919050565b7f6f6e6c79206f776e6572206f66204e46542063616e207374617274206573637260008201527f6f772070726f6365737300000000000000000000000000000000000000000000602082015250565b60006139c7602a83612bb5565b91506139d28261396b565b604082019050919050565b600060208201905081810360008301526139f6816139ba565b9050919050565b7f4e487b7100000000000000000000000000000000000000000000000000000000600052603260045260246000fd5b6000613a3782612c5c565b91507fffffffffffffffffffffffffffffffffffffffffffffffffffffffffffffffff8203613a6957613a68613509565b5b600182019050919050565b7f6f6e6c79206f776e6572206f66204e46542063616e20637265617465206c697360008201527f74696e6700000000000000000000000000000000000000000000000000000000602082015250565b6000613ad0602483612bb5565b9150613adb82613a74565b604082019050919050565b60006020820190508181036000830152613aff81613ac3565b9050919050565b6000613b1182612c5c565b9150613b1c83612c5c565b9250828202613b2a81612c5c565b91508282048414831517613b4157613b40613509565b5b5092915050565b7f4f776e61626c653a206e6577206f776e657220697320746865207a65726f206160008201527f6464726573730000000000000000000000000000000000000000000000000000602082015250565b6000613ba4602683612bb5565b9150613baf82613b48565b604082019050919050565b60006020820190508181036000830152613bd381613b97565b9050919050565b7f4552433732313a207472616e736665722066726f6d20696e636f72726563742060008201527f6f776e6572000000000000000000000000000000000000000000000000000000602082015250565b6000613c36602583612bb5565b9150613c4182613bda565b604082019050919050565b60006020820190508181036000830152613c6581613c29565b9050919050565b7f4552433732313a207472616e7366657220746f20746865207a65726f2061646460008201527f7265737300000000000000000000000000000000000000000000000000000000602082015250565b6000613cc8602483612bb5565b9150613cd382613c6c565b604082019050919050565b60006020820190508181036000830152613cf781613cbb565b9050919050565b7f4f776e61626c653a2063616c6c6572206973206e6f7420746865206f776e6572600082015250565b6000613d34602083612bb5565b9150613d3f82613cfe565b602082019050919050565b60006020820190508181036000830152613d6381613d27565b9050919050565b7f4552433732313a20617070726f766520746f2063616c6c657200000000000000600082015250565b6000613da0601983612bb5565b9150613dab82613d6a565b602082019050919050565b60006020820190508181036000830152613dcf81613d93565b9050919050565b7f4552433732313a206d696e7420746f20746865207a65726f2061646472657373600082015250565b6000613e0c602083612bb5565b9150613e1782613dd6565b602082019050919050565b60006020820190508181036000830152613e3b81613dff565b9050919050565b7f4552433732313a20746f6b656e20616c7265616479206d696e74656400000000600082015250565b6000613e78601c83612bb5565b9150613e8382613e42565b602082019050919050565b60006020820190508181036000830152613ea781613e6b565b9050919050565b7f45524337323155524953746f726167653a2055524920736574206f66206e6f6e60008201527f6578697374656e7420746f6b656e000000000000000000000000000000000000602082015250565b6000613f0a602e83612bb5565b9150613f1582613eae565b604082019050919050565b60006020820190508181036000830152613f3981613efd565b9050919050565b60008190508160005260206000209050919050565b60006020601f8301049050919050565b600082821b905092915050565b600060088302613fa27fffffffffffffffffffffffffffffffffffffffffffffffffffffffffffffffff82613f65565b613fac8683613f65565b95508019841693508086168417925050509392505050565b6000819050919050565b6000613fe9613fe4613fdf84612c5c565b613fc4565b612c5c565b9050919050565b6000819050919050565b61400383613fce565b61401761400f82613ff0565b848454613f72565b825550505050565b600090565b61402c61401f565b614037818484613ffa565b505050565b5b8181101561405b57614050600082614024565b60018101905061403d565b5050565b601f8211156140a05761407181613f40565b61407a84613f55565b81016020851015614089578190505b61409d61409585613f55565b83018261403c565b50505b505050565b600082821c905092915050565b60006140c3600019846008026140a5565b1980831691505092915050565b60006140dc83836140b2565b9150826002028217905092915050565b6140f582612baa565b67ffffffffffffffff81111561410e5761410d612e77565b5b61411882546133b4565b61412382828561405f565b600060209050601f8311600181146141565760008415614144578287015190505b61414e85826140d0565b8655506141b6565b601f19841661416486613f40565b60005b8281101561418c57848901518255600182019150602085019450602081019050614167565b868310156141a957848901516141a5601f8916826140b2565b8355505b6001600288020188555050505b505050505050565b7f4552433732313a207472616e7366657220746f206e6f6e20455243373231526560008201527f63656976657220696d706c656d656e7465720000000000000000000000000000602082015250565b600061421a603283612bb5565b9150614225826141be565b604082019050919050565b600060208201905081810360008301526142498161420d565b9050919050565b600061425c82856138b7565b915061426882846138b7565b91508190509392505050565b600061427f82612c5c565b915061428a83612c5c565b92508282019050808211156142a2576142a1613509565b5b92915050565b600081519050919050565b600082825260208201905092915050565b60006142cf826142a8565b6142d981856142b3565b93506142e9818560208601612bc6565b6142f281612bf0565b840191505092915050565b60006080820190506143126000830187612cf1565b61431f6020830186612cf1565b61432c6040830185612d87565b818103606083015261433e81846142c4565b905095945050505050565b60008151905061435881612b1b565b92915050565b60006020828403121561437457614373612ae5565b5b600061438284828501614349565b91505092915050565b7f4e487b7100000000000000000000000000000000000000000000000000000000600052601260045260246000fdfea264697066735822122091216547c66072a84b656c916859bf97bb72855483e7be09ada20f12e42401df64736f6c63430008110033",
  "linkReferences": {},
  "deployedLinkReferences": {}
}