{
  "_format": "hh-sol-artifact-1",
  "contractName": "ThreeBricks",
  "sourceName": "contracts/ThreeBricks.sol",
  "abi": [
    {
      "inputs": [],
      "stateMutability": "nonpayable",
      "type": "constructor"
    },
    {
      "anonymous": false,
      "inputs": [
        {
          "indexed": true,
          "internalType": "address",
          "name": "owner",
          "type": "address"
        },
        {
          "indexed": true,
          "internalType": "address",
          "name": "approved",
          "type": "address"
        },
        {
          "indexed": true,
          "internalType": "uint256",
          "name": "tokenId",
          "type": "uint256"
        }
      ],
      "name": "Approval",
      "type": "event"
    },
    {
      "anonymous": false,
      "inputs": [
        {
          "indexed": true,
          "internalType": "address",
          "name": "owner",
          "type": "address"
        },
        {
          "indexed": true,
          "internalType": "address",
          "name": "operator",
          "type": "address"
        },
        {
          "indexed": false,
          "internalType": "bool",
          "name": "approved",
          "type": "bool"
        }
      ],
      "name": "ApprovalForAll",
      "type": "event"
    },
    {
      "anonymous": false,
      "inputs": [
        {
          "indexed": true,
          "internalType": "address",
          "name": "previousOwner",
          "type": "address"
        },
        {
          "indexed": true,
          "internalType": "address",
          "name": "newOwner",
          "type": "address"
        }
      ],
      "name": "OwnershipTransferred",
      "type": "event"
    },
    {
      "anonymous": false,
      "inputs": [
        {
          "indexed": true,
          "internalType": "address",
          "name": "from",
          "type": "address"
        },
        {
          "indexed": true,
          "internalType": "address",
          "name": "to",
          "type": "address"
        },
        {
          "indexed": true,
          "internalType": "uint256",
          "name": "tokenId",
          "type": "uint256"
        }
      ],
      "name": "Transfer",
      "type": "event"
    },
    {
      "inputs": [
        {
          "internalType": "uint256",
          "name": "tokenId",
          "type": "uint256"
        },
        {
          "internalType": "address",
          "name": "chosenBuyer",
          "type": "address"
        }
      ],
      "name": "NFTOwnerStartEscrow",
      "outputs": [],
      "stateMutability": "nonpayable",
      "type": "function"
    },
    {
      "inputs": [],
      "name": "_tokenIdCounter",
      "outputs": [
        {
          "internalType": "uint256",
          "name": "_value",
          "type": "uint256"
        }
      ],
      "stateMutability": "view",
      "type": "function"
    },
    {
      "inputs": [
        {
          "internalType": "address",
          "name": "to",
          "type": "address"
        },
        {
          "internalType": "uint256",
          "name": "tokenId",
          "type": "uint256"
        }
      ],
      "name": "approve",
      "outputs": [],
      "stateMutability": "nonpayable",
      "type": "function"
    },
    {
      "inputs": [
        {
          "internalType": "address",
          "name": "owner",
          "type": "address"
        }
      ],
      "name": "balanceOf",
      "outputs": [
        {
          "internalType": "uint256",
          "name": "",
          "type": "uint256"
        }
      ],
      "stateMutability": "view",
      "type": "function"
    },
    {
      "inputs": [
        {
          "internalType": "address",
          "name": "",
          "type": "address"
        }
      ],
      "name": "buyerAddressToBuyerPayableAddress",
      "outputs": [
        {
          "internalType": "address payable",
          "name": "",
          "type": "address"
        }
      ],
      "stateMutability": "view",
      "type": "function"
    },
    {
      "inputs": [
        {
          "internalType": "address",
          "name": "",
          "type": "address"
        }
      ],
      "name": "buyerAddressToDownPayment",
      "outputs": [
        {
          "internalType": "uint256",
          "name": "",
          "type": "uint256"
        }
      ],
      "stateMutability": "view",
      "type": "function"
    },
    {
      "inputs": [
        {
          "internalType": "uint256",
          "name": "tokenId",
          "type": "uint256"
        }
      ],
      "name": "completePaymentAndEsrow",
      "outputs": [],
      "stateMutability": "payable",
      "type": "function"
    },
    {
      "inputs": [
        {
          "internalType": "uint256",
          "name": "tokenId",
          "type": "uint256"
        },
        {
          "internalType": "uint256",
          "name": "_propertyPrice",
          "type": "uint256"
        },
        {
          "internalType": "uint256",
          "name": "_downPayment",
          "type": "uint256"
        }
      ],
      "name": "createPropertyListing",
      "outputs": [],
      "stateMutability": "nonpayable",
      "type": "function"
    },
    {
      "inputs": [
        {
          "internalType": "uint256",
          "name": "",
          "type": "uint256"
        }
      ],
      "name": "downPayment",
      "outputs": [
        {
          "internalType": "uint256",
          "name": "",
          "type": "uint256"
        }
      ],
      "stateMutability": "view",
      "type": "function"
    },
    {
      "inputs": [
        {
          "internalType": "uint256",
          "name": "tokenId",
          "type": "uint256"
        }
      ],
      "name": "getApproved",
      "outputs": [
        {
          "internalType": "address",
          "name": "",
          "type": "address"
        }
      ],
      "stateMutability": "view",
      "type": "function"
    },
    {
      "inputs": [],
      "name": "getCurrentTokenIdCounter",
      "outputs": [
        {
          "internalType": "uint256",
          "name": "",
          "type": "uint256"
        }
      ],
      "stateMutability": "view",
      "type": "function"
    },
    {
      "inputs": [
        {
          "internalType": "address",
          "name": "owner",
          "type": "address"
        },
        {
          "internalType": "address",
          "name": "operator",
          "type": "address"
        }
      ],
      "name": "isApprovedForAll",
      "outputs": [
        {
          "internalType": "bool",
          "name": "",
          "type": "bool"
        }
      ],
      "stateMutability": "view",
      "type": "function"
    },
    {
      "inputs": [
        {
          "internalType": "string",
          "name": "uri",
          "type": "string"
        }
      ],
      "name": "isContentOwned",
      "outputs": [
        {
          "internalType": "bool",
          "name": "",
          "type": "bool"
        }
      ],
      "stateMutability": "view",
      "type": "function"
    },
    {
      "inputs": [
        {
          "internalType": "uint256",
          "name": "tokenId",
          "type": "uint256"
        },
        {
          "internalType": "address payable",
          "name": "userPayableAddress",
          "type": "address"
        }
      ],
      "name": "makeDownPayment",
      "outputs": [],
      "stateMutability": "payable",
      "type": "function"
    },
    {
      "inputs": [
        {
          "internalType": "address",
          "name": "recipient",
          "type": "address"
        },
        {
          "internalType": "string",
          "name": "ipfsTitleDeedURI",
          "type": "string"
        },
        {
          "internalType": "string",
          "name": "propertyId",
          "type": "string"
        }
      ],
      "name": "mintNFT",
      "outputs": [
        {
          "internalType": "uint256",
          "name": "",
          "type": "uint256"
        }
      ],
      "stateMutability": "nonpayable",
      "type": "function"
    },
    {
      "inputs": [],
      "name": "name",
      "outputs": [
        {
          "internalType": "string",
          "name": "",
          "type": "string"
        }
      ],
      "stateMutability": "view",
      "type": "function"
    },
    {
      "inputs": [],
      "name": "owner",
      "outputs": [
        {
          "internalType": "address",
          "name": "",
          "type": "address"
        }
      ],
      "stateMutability": "view",
      "type": "function"
    },
    {
      "inputs": [
        {
          "internalType": "uint256",
          "name": "tokenId",
          "type": "uint256"
        }
      ],
      "name": "ownerOf",
      "outputs": [
        {
          "internalType": "address",
          "name": "",
          "type": "address"
        }
      ],
      "stateMutability": "view",
      "type": "function"
    },
    {
      "inputs": [
        {
          "internalType": "uint256",
          "name": "",
          "type": "uint256"
        }
      ],
      "name": "propertyPrice",
      "outputs": [
        {
          "internalType": "uint256",
          "name": "",
          "type": "uint256"
        }
      ],
      "stateMutability": "view",
      "type": "function"
    },
    {
      "inputs": [
        {
          "internalType": "uint256",
          "name": "tokenId",
          "type": "uint256"
        },
        {
          "internalType": "address",
          "name": "_buyerAddress",
          "type": "address"
        }
      ],
      "name": "releaseDownPayment",
      "outputs": [],
      "stateMutability": "payable",
      "type": "function"
    },
    {
      "inputs": [],
      "name": "renounceOwnership",
      "outputs": [],
      "stateMutability": "nonpayable",
      "type": "function"
    },
    {
      "inputs": [
        {
          "internalType": "address",
          "name": "from",
          "type": "address"
        },
        {
          "internalType": "address",
          "name": "to",
          "type": "address"
        },
        {
          "internalType": "uint256",
          "name": "tokenId",
          "type": "uint256"
        }
      ],
      "name": "safeTransferFrom",
      "outputs": [],
      "stateMutability": "nonpayable",
      "type": "function"
    },
    {
      "inputs": [
        {
          "internalType": "address",
          "name": "from",
          "type": "address"
        },
        {
          "internalType": "address",
          "name": "to",
          "type": "address"
        },
        {
          "internalType": "uint256",
          "name": "tokenId",
          "type": "uint256"
        },
        {
          "internalType": "bytes",
          "name": "data",
          "type": "bytes"
        }
      ],
      "name": "safeTransferFrom",
      "outputs": [],
      "stateMutability": "nonpayable",
      "type": "function"
    },
    {
      "inputs": [
        {
          "internalType": "address",
          "name": "operator",
          "type": "address"
        },
        {
          "internalType": "bool",
          "name": "approved",
          "type": "bool"
        }
      ],
      "name": "setApprovalForAll",
      "outputs": [],
      "stateMutability": "nonpayable",
      "type": "function"
    },
    {
      "inputs": [
        {
          "internalType": "bytes4",
          "name": "interfaceId",
          "type": "bytes4"
        }
      ],
      "name": "supportsInterface",
      "outputs": [
        {
          "internalType": "bool",
          "name": "",
          "type": "bool"
        }
      ],
      "stateMutability": "view",
      "type": "function"
    },
    {
      "inputs": [],
      "name": "symbol",
      "outputs": [
        {
          "internalType": "string",
          "name": "",
          "type": "string"
        }
      ],
      "stateMutability": "view",
      "type": "function"
    },
    {
      "inputs": [
        {
          "internalType": "uint256",
          "name": "",
          "type": "uint256"
        },
        {
          "internalType": "uint256",
          "name": "",
          "type": "uint256"
        }
      ],
      "name": "tokenIdToBuyerAddress",
      "outputs": [
        {
          "internalType": "address",
          "name": "",
          "type": "address"
        }
      ],
      "stateMutability": "view",
      "type": "function"
    },
    {
      "inputs": [
        {
          "internalType": "uint256",
          "name": "tokenId",
          "type": "uint256"
        }
      ],
      "name": "tokenURI",
      "outputs": [
        {
          "internalType": "string",
          "name": "",
          "type": "string"
        }
      ],
      "stateMutability": "view",
      "type": "function"
    },
    {
      "inputs": [
        {
          "internalType": "address",
          "name": "from",
          "type": "address"
        },
        {
          "internalType": "address",
          "name": "to",
          "type": "address"
        },
        {
          "internalType": "uint256",
          "name": "tokenId",
          "type": "uint256"
        }
      ],
      "name": "tranfer",
      "outputs": [],
      "stateMutability": "nonpayable",
      "type": "function"
    },
    {
      "inputs": [
        {
          "internalType": "address",
          "name": "from",
          "type": "address"
        },
        {
          "internalType": "address",
          "name": "to",
          "type": "address"
        },
        {
          "internalType": "uint256",
          "name": "tokenId",
          "type": "uint256"
        }
      ],
      "name": "transferFrom",
      "outputs": [],
      "stateMutability": "nonpayable",
      "type": "function"
    },
    {
      "inputs": [
        {
          "internalType": "address",
          "name": "newOwner",
          "type": "address"
        }
      ],
      "name": "transferOwnership",
      "outputs": [],
      "stateMutability": "nonpayable",
      "type": "function"
    }
  ],
  "bytecode": "0x60806040523480156200001157600080fd5b506040518060400160405280600b81526020017f5468726565427269636b730000000000000000000000000000000000000000008152506040518060400160405280600481526020017f544252530000000000000000000000000000000000000000000000000000000081525081600090816200008f919062000412565b508060019081620000a1919062000412565b505050620000c4620000b8620000ca60201b60201c565b620000d260201b60201c565b620004f9565b600033905090565b6000600760009054906101000a900473ffffffffffffffffffffffffffffffffffffffff16905081600760006101000a81548173ffffffffffffffffffffffffffffffffffffffff021916908373ffffffffffffffffffffffffffffffffffffffff1602179055508173ffffffffffffffffffffffffffffffffffffffff168173ffffffffffffffffffffffffffffffffffffffff167f8be0079c531659141344cd1fd0a4f28419497f9722a3daafe3b4186f6b6457e060405160405180910390a35050565b600081519050919050565b7f4e487b7100000000000000000000000000000000000000000000000000000000600052604160045260246000fd5b7f4e487b7100000000000000000000000000000000000000000000000000000000600052602260045260246000fd5b600060028204905060018216806200021a57607f821691505b60208210810362000230576200022f620001d2565b5b50919050565b60008190508160005260206000209050919050565b60006020601f8301049050919050565b600082821b905092915050565b6000600883026200029a7fffffffffffffffffffffffffffffffffffffffffffffffffffffffffffffffff826200025b565b620002a686836200025b565b95508019841693508086168417925050509392505050565b6000819050919050565b6000819050919050565b6000620002f3620002ed620002e784620002be565b620002c8565b620002be565b9050919050565b6000819050919050565b6200030f83620002d2565b620003276200031e82620002fa565b84845462000268565b825550505050565b600090565b6200033e6200032f565b6200034b81848462000304565b505050565b5b8181101562000373576200036760008262000334565b60018101905062000351565b5050565b601f821115620003c2576200038c8162000236565b62000397846200024b565b81016020851015620003a7578190505b620003bf620003b6856200024b565b83018262000350565b50505b505050565b600082821c905092915050565b6000620003e760001984600802620003c7565b1980831691505092915050565b6000620004028383620003d4565b9150826002028217905092915050565b6200041d8262000198565b67ffffffffffffffff811115620004395762000438620001a3565b5b62000445825462000201565b6200045282828562000377565b600060209050601f8311600181146200048a576000841562000475578287015190505b620004818582620003f4565b865550620004f1565b601f1984166200049a8662000236565b60005b82811015620004c4578489015182556001820191506020850194506020810190506200049d565b86831015620004e45784890151620004e0601f891682620003d4565b8355505b6001600288020188555050505b505050505050565b61425e80620005096000396000f3fe6080604052600436106101d85760003560e01c806384c4bd4b11610102578063b364cf7d11610095578063c87b56dd11610064578063c87b56dd146106ea578063e985e9c514610727578063f2fde38b14610764578063f3020d831461078d576101d8565b8063b364cf7d14610632578063b88d4fde1461065b578063bd1157a914610684578063c12e1a07146106c1576101d8565b80639f1cabc6116100d15780639f1cabc614610573578063a22cb465146105b0578063a3ee38ae146105d9578063a983fa4914610616576101d8565b806384c4bd4b146104c75780638c6743e0146104f25780638da5cb5b1461051d57806395d89b4114610548576101d8565b806326530f391161017a5780636352211e116101495780636352211e146103f957806370a0823114610436578063715018a614610473578063747f9b4f1461048a576101d8565b806326530f391461032d5780633a28551e1461035657806342842e0e146103935780634412e439146103bc576101d8565b8063095ea7b3116101b6578063095ea7b31461028257806309f5c475146102ab57806314050c5a146102c757806323b872dd14610304576101d8565b806301ffc9a7146101dd57806306fdde031461021a578063081812fc14610245575b600080fd5b3480156101e957600080fd5b5061020460048036038101906101ff919061298b565b6107a9565b60405161021191906129d3565b60405180910390f35b34801561022657600080fd5b5061022f61088b565b60405161023c9190612a7e565b60405180910390f35b34801561025157600080fd5b5061026c60048036038101906102679190612ad6565b61091d565b6040516102799190612b44565b60405180910390f35b34801561028e57600080fd5b506102a960048036038101906102a49190612b8b565b610963565b005b6102c560048036038101906102c09190612ad6565b610a7a565b005b3480156102d357600080fd5b506102ee60048036038101906102e99190612ad6565b610afc565b6040516102fb9190612bda565b60405180910390f35b34801561031057600080fd5b5061032b60048036038101906103269190612bf5565b610b14565b005b34801561033957600080fd5b50610354600480360381019061034f9190612bf5565b610b74565b005b34801561036257600080fd5b5061037d60048036038101906103789190612c48565b610b84565b60405161038a9190612c96565b60405180910390f35b34801561039f57600080fd5b506103ba60048036038101906103b59190612bf5565b610bb7565b005b3480156103c857600080fd5b506103e360048036038101906103de9190612c48565b610cee565b6040516103f09190612bda565b60405180910390f35b34801561040557600080fd5b50610420600480360381019061041b9190612ad6565b610d06565b60405161042d9190612b44565b60405180910390f35b34801561044257600080fd5b5061045d60048036038101906104589190612c48565b610d8c565b60405161046a9190612bda565b60405180910390f35b34801561047f57600080fd5b50610488610e43565b005b34801561049657600080fd5b506104b160048036038101906104ac9190612ad6565b610e57565b6040516104be9190612bda565b60405180910390f35b3480156104d357600080fd5b506104dc610e6f565b6040516104e99190612bda565b60405180910390f35b3480156104fe57600080fd5b50610507610e7b565b6040516105149190612bda565b60405180910390f35b34801561052957600080fd5b50610532610e91565b60405161053f9190612b44565b60405180910390f35b34801561055457600080fd5b5061055d610ebb565b60405161056a9190612a7e565b60405180910390f35b34801561057f57600080fd5b5061059a60048036038101906105959190612de6565b610f4d565b6040516105a791906129d3565b60405180910390f35b3480156105bc57600080fd5b506105d760048036038101906105d29190612e5b565b610f88565b005b3480156105e557600080fd5b5061060060048036038101906105fb9190612e9b565b610f9e565b60405161060d9190612bda565b60405180910390f35b610630600480360381019061062b9190612f52565b6110a4565b005b34801561063e57600080fd5b5061065960048036038101906106549190612f92565b6111d2565b005b34801561066757600080fd5b50610682600480360381019061067d9190613073565b611359565b005b34801561069057600080fd5b506106ab60048036038101906106a691906130f6565b6113bb565b6040516106b89190612b44565b60405180910390f35b3480156106cd57600080fd5b506106e860048036038101906106e39190613136565b611409565b005b3480156106f657600080fd5b50610711600480360381019061070c9190612ad6565b611487565b60405161071e9190612a7e565b60405180910390f35b34801561073357600080fd5b5061074e60048036038101906107499190613189565b611499565b60405161075b91906129d3565b60405180910390f35b34801561077057600080fd5b5061078b60048036038101906107869190612c48565b61152d565b005b6107a760048036038101906107a29190612f92565b6115b0565b005b60007f80ac58cd000000000000000000000000000000000000000000000000000000007bffffffffffffffffffffffffffffffffffffffffffffffffffffffff1916827bffffffffffffffffffffffffffffffffffffffffffffffffffffffff1916148061087457507f5b5e139f000000000000000000000000000000000000000000000000000000007bffffffffffffffffffffffffffffffffffffffffffffffffffffffff1916827bffffffffffffffffffffffffffffffffffffffffffffffffffffffff1916145b80610884575061088382611681565b5b9050919050565b60606000805461089a906131f8565b80601f01602080910402602001604051908101604052809291908181526020018280546108c6906131f8565b80156109135780601f106108e857610100808354040283529160200191610913565b820191906000526020600020905b8154815290600101906020018083116108f657829003601f168201915b5050505050905090565b6000610928826116eb565b6004600083815260200190815260200160002060009054906101000a900473ffffffffffffffffffffffffffffffffffffffff169050919050565b600061096e82610d06565b90508073ffffffffffffffffffffffffffffffffffffffff168373ffffffffffffffffffffffffffffffffffffffff16036109de576040517f08c379a00000000000000000000000000000000000000000000000000000000081526004016109d59061329b565b60405180910390fd5b8073ffffffffffffffffffffffffffffffffffffffff166109fd611736565b73ffffffffffffffffffffffffffffffffffffffff161480610a2c5750610a2b81610a26611736565b611499565b5b610a6b576040517f08c379a0000000000000000000000000000000000000000000000000000000008152600401610a629061332d565b60405180910390fd5b610a75838361173e565b505050565b600c600082815260200190815260200160002054600b600083815260200190815260200160002054610aac919061337c565b341015610aee576040517f08c379a0000000000000000000000000000000000000000000000000000000008152600401610ae5906133fc565b60405180910390fd5b610af9303383610b74565b50565b600b6020528060005260406000206000915090505481565b610b25610b1f611736565b826117f7565b610b64576040517f08c379a0000000000000000000000000000000000000000000000000000000008152600401610b5b9061348e565b60405180910390fd5b610b6f83838361188c565b505050565b610b7f838383610bb7565b505050565b600f6020528060005260406000206000915054906101000a900473ffffffffffffffffffffffffffffffffffffffff1681565b600073ffffffffffffffffffffffffffffffffffffffff168373ffffffffffffffffffffffffffffffffffffffff1603610c26576040517f08c379a0000000000000000000000000000000000000000000000000000000008152600401610c1d906134fa565b60405180910390fd5b600073ffffffffffffffffffffffffffffffffffffffff168273ffffffffffffffffffffffffffffffffffffffff1603610c95576040517f08c379a0000000000000000000000000000000000000000000000000000000008152600401610c8c90613566565b60405180910390fd5b610c9f83826117f7565b610cde576040517f08c379a0000000000000000000000000000000000000000000000000000000008152600401610cd5906135d2565b60405180910390fd5b610ce983838361188c565b505050565b600e6020528060005260406000206000915090505481565b600080610d1283611b85565b9050600073ffffffffffffffffffffffffffffffffffffffff168173ffffffffffffffffffffffffffffffffffffffff1603610d83576040517f08c379a0000000000000000000000000000000000000000000000000000000008152600401610d7a9061363e565b60405180910390fd5b80915050919050565b60008073ffffffffffffffffffffffffffffffffffffffff168273ffffffffffffffffffffffffffffffffffffffff1603610dfc576040517f08c379a0000000000000000000000000000000000000000000000000000000008152600401610df3906136d0565b60405180910390fd5b600360008373ffffffffffffffffffffffffffffffffffffffff1673ffffffffffffffffffffffffffffffffffffffff168152602001908152602001600020549050919050565b610e4b611bc2565b610e556000611c40565b565b600c6020528060005260406000206000915090505481565b60088060000154905081565b600080610e886008611d06565b90508091505090565b6000600760009054906101000a900473ffffffffffffffffffffffffffffffffffffffff16905090565b606060018054610eca906131f8565b80601f0160208091040260200160405190810160405280929190818152602001828054610ef6906131f8565b8015610f435780601f10610f1857610100808354040283529160200191610f43565b820191906000526020600020905b815481529060010190602001808311610f2657829003601f168201915b5050505050905090565b60006001600983604051610f61919061372c565b908152602001604051809103902060009054906101000a900460ff1660ff16149050919050565b610f9a610f93611736565b8383611d14565b5050565b6000610fa8611bc2565b610fb183610f4d565b15610ff1576040517f08c379a0000000000000000000000000000000000000000000000000000000008152600401610fe89061378f565b60405180910390fd5b6000610ffb610e7b565b90506110076008611e80565b6001600985604051611019919061372c565b908152602001604051809103902060006101000a81548160ff021916908360ff160217905550604051806020016040528084815250600a8560405161105e919061372c565b908152602001604051809103902090600161107a929190612845565b506110858582611e96565b61108f81856120b3565b611099338261173e565b809150509392505050565b600c6000838152602001908152602001600020543410156110fa576040517f08c379a00000000000000000000000000000000000000000000000000000000081526004016110f1906137fb565b60405180910390fd5b34600e60003373ffffffffffffffffffffffffffffffffffffffff1673ffffffffffffffffffffffffffffffffffffffff1681526020019081526020016000206000828254611149919061381b565b9250508190555080600f60003373ffffffffffffffffffffffffffffffffffffffff1673ffffffffffffffffffffffffffffffffffffffff16815260200190815260200160002060006101000a81548173ffffffffffffffffffffffffffffffffffffffff021916908373ffffffffffffffffffffffffffffffffffffffff1602179055505050565b6111dc33836117f7565b61121b576040517f08c379a0000000000000000000000000000000000000000000000000000000008152600401611212906138c1565b60405180910390fd5b611226333084610b74565b6000600d60008481526020019081526020016000208054806020026020016040519081016040528092919081815260200182805480156112bb57602002820191906000526020600020905b8160009054906101000a900473ffffffffffffffffffffffffffffffffffffffff1673ffffffffffffffffffffffffffffffffffffffff1681526020019060010190808311611271575b5050505050905060005b8151811015611353578273ffffffffffffffffffffffffffffffffffffffff168282815181106112f8576112f76138e1565b5b602002602001015173ffffffffffffffffffffffffffffffffffffffff16146113405761133f84838381518110611332576113316138e1565b5b60200260200101516115b0565b5b808061134b90613910565b9150506112c5565b50505050565b61136a611364611736565b836117f7565b6113a9576040517f08c379a00000000000000000000000000000000000000000000000000000000081526004016113a09061348e565b60405180910390fd5b6113b584848484612120565b50505050565b600d60205281600052604060002081815481106113d757600080fd5b906000526020600020016000915091509054906101000a900473ffffffffffffffffffffffffffffffffffffffff1681565b61141333846117f7565b611452576040517f08c379a0000000000000000000000000000000000000000000000000000000008152600401611449906139ca565b60405180910390fd5b81600b60008581526020019081526020016000208190555080600c600085815260200190815260200160002081905550505050565b60606114928261217c565b9050919050565b6000600560008473ffffffffffffffffffffffffffffffffffffffff1673ffffffffffffffffffffffffffffffffffffffff16815260200190815260200160002060008373ffffffffffffffffffffffffffffffffffffffff1673ffffffffffffffffffffffffffffffffffffffff16815260200190815260200160002060009054906101000a900460ff16905092915050565b611535611bc2565b600073ffffffffffffffffffffffffffffffffffffffff168173ffffffffffffffffffffffffffffffffffffffff16036115a4576040517f08c379a000000000000000000000000000000000000000000000000000000000815260040161159b90613a5c565b60405180910390fd5b6115ad81611c40565b50565b6115b8611bc2565b6000600f60008373ffffffffffffffffffffffffffffffffffffffff1673ffffffffffffffffffffffffffffffffffffffff16815260200190815260200160002060009054906101000a900473ffffffffffffffffffffffffffffffffffffffff1690506000600c60008581526020019081526020016000205490508173ffffffffffffffffffffffffffffffffffffffff166108fc829081150290604051600060405180830381858888f1935050505015801561167a573d6000803e3d6000fd5b5050505050565b60007f01ffc9a7000000000000000000000000000000000000000000000000000000007bffffffffffffffffffffffffffffffffffffffffffffffffffffffff1916827bffffffffffffffffffffffffffffffffffffffffffffffffffffffff1916149050919050565b6116f48161228e565b611733576040517f08c379a000000000000000000000000000000000000000000000000000000000815260040161172a9061363e565b60405180910390fd5b50565b600033905090565b816004600083815260200190815260200160002060006101000a81548173ffffffffffffffffffffffffffffffffffffffff021916908373ffffffffffffffffffffffffffffffffffffffff160217905550808273ffffffffffffffffffffffffffffffffffffffff166117b183610d06565b73ffffffffffffffffffffffffffffffffffffffff167f8c5be1e5ebec7d5bd14f71427d1e84f3dd0314c0f7b2291e5b200ac8c7c3b92560405160405180910390a45050565b60008061180383610d06565b90508073ffffffffffffffffffffffffffffffffffffffff168473ffffffffffffffffffffffffffffffffffffffff16148061184557506118448185611499565b5b8061188357508373ffffffffffffffffffffffffffffffffffffffff1661186b8461091d565b73ffffffffffffffffffffffffffffffffffffffff16145b91505092915050565b8273ffffffffffffffffffffffffffffffffffffffff166118ac82610d06565b73ffffffffffffffffffffffffffffffffffffffff1614611902576040517f08c379a00000000000000000000000000000000000000000000000000000000081526004016118f990613aee565b60405180910390fd5b600073ffffffffffffffffffffffffffffffffffffffff168273ffffffffffffffffffffffffffffffffffffffff1603611971576040517f08c379a000000000000000000000000000000000000000000000000000000000815260040161196890613b80565b60405180910390fd5b61197e83838360016122cf565b8273ffffffffffffffffffffffffffffffffffffffff1661199e82610d06565b73ffffffffffffffffffffffffffffffffffffffff16146119f4576040517f08c379a00000000000000000000000000000000000000000000000000000000081526004016119eb90613aee565b60405180910390fd5b6004600082815260200190815260200160002060006101000a81549073ffffffffffffffffffffffffffffffffffffffff02191690556001600360008573ffffffffffffffffffffffffffffffffffffffff1673ffffffffffffffffffffffffffffffffffffffff168152602001908152602001600020600082825403925050819055506001600360008473ffffffffffffffffffffffffffffffffffffffff1673ffffffffffffffffffffffffffffffffffffffff16815260200190815260200160002060008282540192505081905550816002600083815260200190815260200160002060006101000a81548173ffffffffffffffffffffffffffffffffffffffff021916908373ffffffffffffffffffffffffffffffffffffffff160217905550808273ffffffffffffffffffffffffffffffffffffffff168473ffffffffffffffffffffffffffffffffffffffff167fddf252ad1be2c89b69c2b068fc378daa952ba7f163c4a11628f55a4df523b3ef60405160405180910390a4611b8083838360016123f5565b505050565b60006002600083815260200190815260200160002060009054906101000a900473ffffffffffffffffffffffffffffffffffffffff169050919050565b611bca611736565b73ffffffffffffffffffffffffffffffffffffffff16611be8610e91565b73ffffffffffffffffffffffffffffffffffffffff1614611c3e576040517f08c379a0000000000000000000000000000000000000000000000000000000008152600401611c3590613bec565b60405180910390fd5b565b6000600760009054906101000a900473ffffffffffffffffffffffffffffffffffffffff16905081600760006101000a81548173ffffffffffffffffffffffffffffffffffffffff021916908373ffffffffffffffffffffffffffffffffffffffff1602179055508173ffffffffffffffffffffffffffffffffffffffff168173ffffffffffffffffffffffffffffffffffffffff167f8be0079c531659141344cd1fd0a4f28419497f9722a3daafe3b4186f6b6457e060405160405180910390a35050565b600081600001549050919050565b8173ffffffffffffffffffffffffffffffffffffffff168373ffffffffffffffffffffffffffffffffffffffff1603611d82576040517f08c379a0000000000000000000000000000000000000000000000000000000008152600401611d7990613c58565b60405180910390fd5b80600560008573ffffffffffffffffffffffffffffffffffffffff1673ffffffffffffffffffffffffffffffffffffffff16815260200190815260200160002060008473ffffffffffffffffffffffffffffffffffffffff1673ffffffffffffffffffffffffffffffffffffffff16815260200190815260200160002060006101000a81548160ff0219169083151502179055508173ffffffffffffffffffffffffffffffffffffffff168373ffffffffffffffffffffffffffffffffffffffff167f17307eab39ab6107e8899845ad3d59bd9653f200f220920489ca2b5937696c3183604051611e7391906129d3565b60405180910390a3505050565b6001816000016000828254019250508190555050565b600073ffffffffffffffffffffffffffffffffffffffff168273ffffffffffffffffffffffffffffffffffffffff1603611f05576040517f08c379a0000000000000000000000000000000000000000000000000000000008152600401611efc90613cc4565b60405180910390fd5b611f0e8161228e565b15611f4e576040517f08c379a0000000000000000000000000000000000000000000000000000000008152600401611f4590613d30565b60405180910390fd5b611f5c6000838360016122cf565b611f658161228e565b15611fa5576040517f08c379a0000000000000000000000000000000000000000000000000000000008152600401611f9c90613d30565b60405180910390fd5b6001600360008473ffffffffffffffffffffffffffffffffffffffff1673ffffffffffffffffffffffffffffffffffffffff16815260200190815260200160002060008282540192505081905550816002600083815260200190815260200160002060006101000a81548173ffffffffffffffffffffffffffffffffffffffff021916908373ffffffffffffffffffffffffffffffffffffffff160217905550808273ffffffffffffffffffffffffffffffffffffffff16600073ffffffffffffffffffffffffffffffffffffffff167fddf252ad1be2c89b69c2b068fc378daa952ba7f163c4a11628f55a4df523b3ef60405160405180910390a46120af6000838360016123f5565b5050565b6120bc8261228e565b6120fb576040517f08c379a00000000000000000000000000000000000000000000000000000000081526004016120f290613dc2565b60405180910390fd5b8060066000848152602001908152602001600020908161211b9190613f8e565b505050565b61212b84848461188c565b612137848484846123fb565b612176576040517f08c379a000000000000000000000000000000000000000000000000000000000815260040161216d906140d2565b60405180910390fd5b50505050565b6060612187826116eb565b60006006600084815260200190815260200160002080546121a7906131f8565b80601f01602080910402602001604051908101604052809291908181526020018280546121d3906131f8565b80156122205780601f106121f557610100808354040283529160200191612220565b820191906000526020600020905b81548152906001019060200180831161220357829003601f168201915b505050505090506000612231612582565b90506000815103612246578192505050612289565b60008251111561227b5780826040516020016122639291906140f2565b60405160208183030381529060405292505050612289565b61228484612599565b925050505b919050565b60008073ffffffffffffffffffffffffffffffffffffffff166122b083611b85565b73ffffffffffffffffffffffffffffffffffffffff1614159050919050565b60018111156123ef57600073ffffffffffffffffffffffffffffffffffffffff168473ffffffffffffffffffffffffffffffffffffffff16146123635780600360008673ffffffffffffffffffffffffffffffffffffffff1673ffffffffffffffffffffffffffffffffffffffff168152602001908152602001600020600082825461235b919061337c565b925050819055505b600073ffffffffffffffffffffffffffffffffffffffff168373ffffffffffffffffffffffffffffffffffffffff16146123ee5780600360008573ffffffffffffffffffffffffffffffffffffffff1673ffffffffffffffffffffffffffffffffffffffff16815260200190815260200160002060008282546123e6919061381b565b925050819055505b5b50505050565b50505050565b600061241c8473ffffffffffffffffffffffffffffffffffffffff16612601565b15612575578373ffffffffffffffffffffffffffffffffffffffff1663150b7a02612445611736565b8786866040518563ffffffff1660e01b8152600401612467949392919061416b565b6020604051808303816000875af19250505080156124a357506040513d601f19601f820116820180604052508101906124a091906141cc565b60015b612525573d80600081146124d3576040519150601f19603f3d011682016040523d82523d6000602084013e6124d8565b606091505b50600081510361251d576040517f08c379a0000000000000000000000000000000000000000000000000000000008152600401612514906140d2565b60405180910390fd5b805181602001fd5b63150b7a0260e01b7bffffffffffffffffffffffffffffffffffffffffffffffffffffffff1916817bffffffffffffffffffffffffffffffffffffffffffffffffffffffff19161491505061257a565b600190505b949350505050565b606060405180602001604052806000815250905090565b60606125a4826116eb565b60006125ae612582565b905060008151116125ce57604051806020016040528060008152506125f9565b806125d884612624565b6040516020016125e99291906140f2565b6040516020818303038152906040525b915050919050565b6000808273ffffffffffffffffffffffffffffffffffffffff163b119050919050565b606060006001612633846126f2565b01905060008167ffffffffffffffff81111561265257612651612cbb565b5b6040519080825280601f01601f1916602001820160405280156126845781602001600182028036833780820191505090505b509050600082602001820190505b6001156126e7578080600190039150507f3031323334353637383961626364656600000000000000000000000000000000600a86061a8153600a85816126db576126da6141f9565b5b04945060008503612692575b819350505050919050565b600080600090507a184f03e93ff9f4daa797ed6e38ed64bf6a1f0100000000000000008310612750577a184f03e93ff9f4daa797ed6e38ed64bf6a1f0100000000000000008381612746576127456141f9565b5b0492506040810190505b6d04ee2d6d415b85acef8100000000831061278d576d04ee2d6d415b85acef81000000008381612783576127826141f9565b5b0492506020810190505b662386f26fc1000083106127bc57662386f26fc1000083816127b2576127b16141f9565b5b0492506010810190505b6305f5e10083106127e5576305f5e10083816127db576127da6141f9565b5b0492506008810190505b612710831061280a576127108381612800576127ff6141f9565b5b0492506004810190505b6064831061282d5760648381612823576128226141f9565b5b0492506002810190505b600a831061283c576001810190505b80915050919050565b82805482825590600052602060002090810192821561288d579160200282015b8281111561288c57825182908161287c9190613f8e565b5091602001919060010190612865565b5b50905061289a919061289e565b5090565b5b808211156128be57600081816128b591906128c2565b5060010161289f565b5090565b5080546128ce906131f8565b6000825580601f106128e057506128ff565b601f0160209004906000526020600020908101906128fe9190612902565b5b50565b5b8082111561291b576000816000905550600101612903565b5090565b6000604051905090565b600080fd5b600080fd5b60007fffffffff0000000000000000000000000000000000000000000000000000000082169050919050565b61296881612933565b811461297357600080fd5b50565b6000813590506129858161295f565b92915050565b6000602082840312156129a1576129a0612929565b5b60006129af84828501612976565b91505092915050565b60008115159050919050565b6129cd816129b8565b82525050565b60006020820190506129e860008301846129c4565b92915050565b600081519050919050565b600082825260208201905092915050565b60005b83811015612a28578082015181840152602081019050612a0d565b60008484015250505050565b6000601f19601f8301169050919050565b6000612a50826129ee565b612a5a81856129f9565b9350612a6a818560208601612a0a565b612a7381612a34565b840191505092915050565b60006020820190508181036000830152612a988184612a45565b905092915050565b6000819050919050565b612ab381612aa0565b8114612abe57600080fd5b50565b600081359050612ad081612aaa565b92915050565b600060208284031215612aec57612aeb612929565b5b6000612afa84828501612ac1565b91505092915050565b600073ffffffffffffffffffffffffffffffffffffffff82169050919050565b6000612b2e82612b03565b9050919050565b612b3e81612b23565b82525050565b6000602082019050612b596000830184612b35565b92915050565b612b6881612b23565b8114612b7357600080fd5b50565b600081359050612b8581612b5f565b92915050565b60008060408385031215612ba257612ba1612929565b5b6000612bb085828601612b76565b9250506020612bc185828601612ac1565b9150509250929050565b612bd481612aa0565b82525050565b6000602082019050612bef6000830184612bcb565b92915050565b600080600060608486031215612c0e57612c0d612929565b5b6000612c1c86828701612b76565b9350506020612c2d86828701612b76565b9250506040612c3e86828701612ac1565b9150509250925092565b600060208284031215612c5e57612c5d612929565b5b6000612c6c84828501612b76565b91505092915050565b6000612c8082612b03565b9050919050565b612c9081612c75565b82525050565b6000602082019050612cab6000830184612c87565b92915050565b600080fd5b600080fd5b7f4e487b7100000000000000000000000000000000000000000000000000000000600052604160045260246000fd5b612cf382612a34565b810181811067ffffffffffffffff82111715612d1257612d11612cbb565b5b80604052505050565b6000612d2561291f565b9050612d318282612cea565b919050565b600067ffffffffffffffff821115612d5157612d50612cbb565b5b612d5a82612a34565b9050602081019050919050565b82818337600083830152505050565b6000612d89612d8484612d36565b612d1b565b905082815260208101848484011115612da557612da4612cb6565b5b612db0848285612d67565b509392505050565b600082601f830112612dcd57612dcc612cb1565b5b8135612ddd848260208601612d76565b91505092915050565b600060208284031215612dfc57612dfb612929565b5b600082013567ffffffffffffffff811115612e1a57612e1961292e565b5b612e2684828501612db8565b91505092915050565b612e38816129b8565b8114612e4357600080fd5b50565b600081359050612e5581612e2f565b92915050565b60008060408385031215612e7257612e71612929565b5b6000612e8085828601612b76565b9250506020612e9185828601612e46565b9150509250929050565b600080600060608486031215612eb457612eb3612929565b5b6000612ec286828701612b76565b935050602084013567ffffffffffffffff811115612ee357612ee261292e565b5b612eef86828701612db8565b925050604084013567ffffffffffffffff811115612f1057612f0f61292e565b5b612f1c86828701612db8565b9150509250925092565b612f2f81612c75565b8114612f3a57600080fd5b50565b600081359050612f4c81612f26565b92915050565b60008060408385031215612f6957612f68612929565b5b6000612f7785828601612ac1565b9250506020612f8885828601612f3d565b9150509250929050565b60008060408385031215612fa957612fa8612929565b5b6000612fb785828601612ac1565b9250506020612fc885828601612b76565b9150509250929050565b600067ffffffffffffffff821115612fed57612fec612cbb565b5b612ff682612a34565b9050602081019050919050565b600061301661301184612fd2565b612d1b565b90508281526020810184848401111561303257613031612cb6565b5b61303d848285612d67565b509392505050565b600082601f83011261305a57613059612cb1565b5b813561306a848260208601613003565b91505092915050565b6000806000806080858703121561308d5761308c612929565b5b600061309b87828801612b76565b94505060206130ac87828801612b76565b93505060406130bd87828801612ac1565b925050606085013567ffffffffffffffff8111156130de576130dd61292e565b5b6130ea87828801613045565b91505092959194509250565b6000806040838503121561310d5761310c612929565b5b600061311b85828601612ac1565b925050602061312c85828601612ac1565b9150509250929050565b60008060006060848603121561314f5761314e612929565b5b600061315d86828701612ac1565b935050602061316e86828701612ac1565b925050604061317f86828701612ac1565b9150509250925092565b600080604083850312156131a05761319f612929565b5b60006131ae85828601612b76565b92505060206131bf85828601612b76565b9150509250929050565b7f4e487b7100000000000000000000000000000000000000000000000000000000600052602260045260246000fd5b6000600282049050600182168061321057607f821691505b602082108103613223576132226131c9565b5b50919050565b7f4552433732313a20617070726f76616c20746f2063757272656e74206f776e6560008201527f7200000000000000000000000000000000000000000000000000000000000000602082015250565b60006132856021836129f9565b915061329082613229565b604082019050919050565b600060208201905081810360008301526132b481613278565b9050919050565b7f4552433732313a20617070726f76652063616c6c6572206973206e6f7420746f60008201527f6b656e206f776e6572206f7220617070726f76656420666f7220616c6c000000602082015250565b6000613317603d836129f9565b9150613322826132bb565b604082019050919050565b600060208201905081810360008301526133468161330a565b9050919050565b7f4e487b7100000000000000000000000000000000000000000000000000000000600052601160045260246000fd5b600061338782612aa0565b915061339283612aa0565b92508282039050818111156133aa576133a961334d565b5b92915050565b7f706c656173652070617920636f727265637420616d6f756e7400000000000000600082015250565b60006133e66019836129f9565b91506133f1826133b0565b602082019050919050565b60006020820190508181036000830152613415816133d9565b9050919050565b7f4552433732313a2063616c6c6572206973206e6f7420746f6b656e206f776e6560008201527f72206f7220617070726f76656400000000000000000000000000000000000000602082015250565b6000613478602d836129f9565b91506134838261341c565b604082019050919050565b600060208201905081810360008301526134a78161346b565b9050919050565b7f46726f6d2061646472657373206973206e6f742076616c696400000000000000600082015250565b60006134e46019836129f9565b91506134ef826134ae565b602082019050919050565b60006020820190508181036000830152613513816134d7565b9050919050565b7f546f2061646472657373206973206e6f742076616c6964000000000000000000600082015250565b60006135506017836129f9565b915061355b8261351a565b602082019050919050565b6000602082019050818103600083015261357f81613543565b9050919050565b7f5472616e73666572206e6f74207065726d697474656400000000000000000000600082015250565b60006135bc6016836129f9565b91506135c782613586565b602082019050919050565b600060208201905081810360008301526135eb816135af565b9050919050565b7f4552433732313a20696e76616c696420746f6b656e2049440000000000000000600082015250565b60006136286018836129f9565b9150613633826135f2565b602082019050919050565b600060208201905081810360008301526136578161361b565b9050919050565b7f4552433732313a2061646472657373207a65726f206973206e6f74206120766160008201527f6c6964206f776e65720000000000000000000000000000000000000000000000602082015250565b60006136ba6029836129f9565b91506136c58261365e565b604082019050919050565b600060208201905081810360008301526136e9816136ad565b9050919050565b600081905092915050565b6000613706826129ee565b61371081856136f0565b9350613720818560208601612a0a565b80840191505092915050565b600061373882846136fb565b915081905092915050565b7f4e465420616c7265616479206d696e7465640000000000000000000000000000600082015250565b60006137796012836129f9565b915061378482613743565b602082019050919050565b600060208201905081810360008301526137a88161376c565b9050919050565b7f706c65617365206465706f73697420636f727265637420616d6f756e74000000600082015250565b60006137e5601d836129f9565b91506137f0826137af565b602082019050919050565b60006020820190508181036000830152613814816137d8565b9050919050565b600061382682612aa0565b915061383183612aa0565b92508282019050808211156138495761384861334d565b5b92915050565b7f6f6e6c79206f776e6572206f66204e46542063616e207374617274206573637260008201527f6f772070726f6365737300000000000000000000000000000000000000000000602082015250565b60006138ab602a836129f9565b91506138b68261384f565b604082019050919050565b600060208201905081810360008301526138da8161389e565b9050919050565b7f4e487b7100000000000000000000000000000000000000000000000000000000600052603260045260246000fd5b600061391b82612aa0565b91507fffffffffffffffffffffffffffffffffffffffffffffffffffffffffffffffff820361394d5761394c61334d565b5b600182019050919050565b7f6f6e6c79206f776e6572206f66204e46542063616e20637265617465206c697360008201527f74696e6700000000000000000000000000000000000000000000000000000000602082015250565b60006139b46024836129f9565b91506139bf82613958565b604082019050919050565b600060208201905081810360008301526139e3816139a7565b9050919050565b7f4f776e61626c653a206e6577206f776e657220697320746865207a65726f206160008201527f6464726573730000000000000000000000000000000000000000000000000000602082015250565b6000613a466026836129f9565b9150613a51826139ea565b604082019050919050565b60006020820190508181036000830152613a7581613a39565b9050919050565b7f4552433732313a207472616e736665722066726f6d20696e636f72726563742060008201527f6f776e6572000000000000000000000000000000000000000000000000000000602082015250565b6000613ad86025836129f9565b9150613ae382613a7c565b604082019050919050565b60006020820190508181036000830152613b0781613acb565b9050919050565b7f4552433732313a207472616e7366657220746f20746865207a65726f2061646460008201527f7265737300000000000000000000000000000000000000000000000000000000602082015250565b6000613b6a6024836129f9565b9150613b7582613b0e565b604082019050919050565b60006020820190508181036000830152613b9981613b5d565b9050919050565b7f4f776e61626c653a2063616c6c6572206973206e6f7420746865206f776e6572600082015250565b6000613bd66020836129f9565b9150613be182613ba0565b602082019050919050565b60006020820190508181036000830152613c0581613bc9565b9050919050565b7f4552433732313a20617070726f766520746f2063616c6c657200000000000000600082015250565b6000613c426019836129f9565b9150613c4d82613c0c565b602082019050919050565b60006020820190508181036000830152613c7181613c35565b9050919050565b7f4552433732313a206d696e7420746f20746865207a65726f2061646472657373600082015250565b6000613cae6020836129f9565b9150613cb982613c78565b602082019050919050565b60006020820190508181036000830152613cdd81613ca1565b9050919050565b7f4552433732313a20746f6b656e20616c7265616479206d696e74656400000000600082015250565b6000613d1a601c836129f9565b9150613d2582613ce4565b602082019050919050565b60006020820190508181036000830152613d4981613d0d565b9050919050565b7f45524337323155524953746f726167653a2055524920736574206f66206e6f6e60008201527f6578697374656e7420746f6b656e000000000000000000000000000000000000602082015250565b6000613dac602e836129f9565b9150613db782613d50565b604082019050919050565b60006020820190508181036000830152613ddb81613d9f565b9050919050565b60008190508160005260206000209050919050565b60006020601f8301049050919050565b600082821b905092915050565b600060088302613e447fffffffffffffffffffffffffffffffffffffffffffffffffffffffffffffffff82613e07565b613e4e8683613e07565b95508019841693508086168417925050509392505050565b6000819050919050565b6000613e8b613e86613e8184612aa0565b613e66565b612aa0565b9050919050565b6000819050919050565b613ea583613e70565b613eb9613eb182613e92565b848454613e14565b825550505050565b600090565b613ece613ec1565b613ed9818484613e9c565b505050565b5b81811015613efd57613ef2600082613ec6565b600181019050613edf565b5050565b601f821115613f4257613f1381613de2565b613f1c84613df7565b81016020851015613f2b578190505b613f3f613f3785613df7565b830182613ede565b50505b505050565b600082821c905092915050565b6000613f6560001984600802613f47565b1980831691505092915050565b6000613f7e8383613f54565b9150826002028217905092915050565b613f97826129ee565b67ffffffffffffffff811115613fb057613faf612cbb565b5b613fba82546131f8565b613fc5828285613f01565b600060209050601f831160018114613ff85760008415613fe6578287015190505b613ff08582613f72565b865550614058565b601f19841661400686613de2565b60005b8281101561402e57848901518255600182019150602085019450602081019050614009565b8683101561404b5784890151614047601f891682613f54565b8355505b6001600288020188555050505b505050505050565b7f4552433732313a207472616e7366657220746f206e6f6e20455243373231526560008201527f63656976657220696d706c656d656e7465720000000000000000000000000000602082015250565b60006140bc6032836129f9565b91506140c782614060565b604082019050919050565b600060208201905081810360008301526140eb816140af565b9050919050565b60006140fe82856136fb565b915061410a82846136fb565b91508190509392505050565b600081519050919050565b600082825260208201905092915050565b600061413d82614116565b6141478185614121565b9350614157818560208601612a0a565b61416081612a34565b840191505092915050565b60006080820190506141806000830187612b35565b61418d6020830186612b35565b61419a6040830185612bcb565b81810360608301526141ac8184614132565b905095945050505050565b6000815190506141c68161295f565b92915050565b6000602082840312156141e2576141e1612929565b5b60006141f0848285016141b7565b91505092915050565b7f4e487b7100000000000000000000000000000000000000000000000000000000600052601260045260246000fdfea2646970667358221220f511dc70e964b9c653875da2ab905581c111736858741935628e4bd6ae5039cc64736f6c63430008110033",
  "linkReferences": {},
  "deployedLinkReferences": {}
}