{
  "_format": "hh-sol-artifact-1",
  "contractName": "ThreeBricks",
  "sourceName": "contracts/ThreeBricks.sol",
  "abi": [
    {
      "inputs": [],
      "stateMutability": "nonpayable",
      "type": "constructor"
    },
    {
      "anonymous": false,
      "inputs": [
        {
          "indexed": true,
          "internalType": "address",
          "name": "owner",
          "type": "address"
        },
        {
          "indexed": true,
          "internalType": "address",
          "name": "approved",
          "type": "address"
        },
        {
          "indexed": true,
          "internalType": "uint256",
          "name": "tokenId",
          "type": "uint256"
        }
      ],
      "name": "Approval",
      "type": "event"
    },
    {
      "anonymous": false,
      "inputs": [
        {
          "indexed": true,
          "internalType": "address",
          "name": "owner",
          "type": "address"
        },
        {
          "indexed": true,
          "internalType": "address",
          "name": "operator",
          "type": "address"
        },
        {
          "indexed": false,
          "internalType": "bool",
          "name": "approved",
          "type": "bool"
        }
      ],
      "name": "ApprovalForAll",
      "type": "event"
    },
    {
      "anonymous": false,
      "inputs": [
        {
          "indexed": true,
          "internalType": "address",
          "name": "previousOwner",
          "type": "address"
        },
        {
          "indexed": true,
          "internalType": "address",
          "name": "newOwner",
          "type": "address"
        }
      ],
      "name": "OwnershipTransferred",
      "type": "event"
    },
    {
      "anonymous": false,
      "inputs": [
        {
          "indexed": true,
          "internalType": "address",
          "name": "from",
          "type": "address"
        },
        {
          "indexed": true,
          "internalType": "address",
          "name": "to",
          "type": "address"
        },
        {
          "indexed": true,
          "internalType": "uint256",
          "name": "tokenId",
          "type": "uint256"
        }
      ],
      "name": "Transfer",
      "type": "event"
    },
    {
      "inputs": [
        {
          "internalType": "uint256",
          "name": "tokenId",
          "type": "uint256"
        },
        {
          "internalType": "address",
          "name": "chosenBuyer",
          "type": "address"
        }
      ],
      "name": "NFTOwnerStartEscrow",
      "outputs": [],
      "stateMutability": "nonpayable",
      "type": "function"
    },
    {
      "inputs": [],
      "name": "_tokenIdCounter",
      "outputs": [
        {
          "internalType": "uint256",
          "name": "_value",
          "type": "uint256"
        }
      ],
      "stateMutability": "view",
      "type": "function"
    },
    {
      "inputs": [
        {
          "internalType": "address",
          "name": "to",
          "type": "address"
        },
        {
          "internalType": "uint256",
          "name": "tokenId",
          "type": "uint256"
        }
      ],
      "name": "approve",
      "outputs": [],
      "stateMutability": "nonpayable",
      "type": "function"
    },
    {
      "inputs": [
        {
          "internalType": "address",
          "name": "owner",
          "type": "address"
        }
      ],
      "name": "balanceOf",
      "outputs": [
        {
          "internalType": "uint256",
          "name": "",
          "type": "uint256"
        }
      ],
      "stateMutability": "view",
      "type": "function"
    },
    {
      "inputs": [
        {
          "internalType": "address",
          "name": "",
          "type": "address"
        }
      ],
      "name": "buyerAddressToBuyerPayableAddress",
      "outputs": [
        {
          "internalType": "address payable",
          "name": "",
          "type": "address"
        }
      ],
      "stateMutability": "view",
      "type": "function"
    },
    {
      "inputs": [
        {
          "internalType": "address",
          "name": "",
          "type": "address"
        }
      ],
      "name": "buyerAddressToDownPayment",
      "outputs": [
        {
          "internalType": "uint256",
          "name": "",
          "type": "uint256"
        }
      ],
      "stateMutability": "view",
      "type": "function"
    },
    {
      "inputs": [
        {
          "internalType": "uint256",
          "name": "tokenId",
          "type": "uint256"
        }
      ],
      "name": "completePaymentAndEsrow",
      "outputs": [],
      "stateMutability": "payable",
      "type": "function"
    },
    {
      "inputs": [
        {
          "internalType": "uint256",
          "name": "tokenId",
          "type": "uint256"
        },
        {
          "internalType": "uint256",
          "name": "_propertyPrice",
          "type": "uint256"
        },
        {
          "internalType": "uint256",
          "name": "_downPayment",
          "type": "uint256"
        }
      ],
      "name": "createPropertyListing",
      "outputs": [],
      "stateMutability": "nonpayable",
      "type": "function"
    },
    {
      "inputs": [
        {
          "internalType": "uint256",
          "name": "",
          "type": "uint256"
        }
      ],
      "name": "downPayment",
      "outputs": [
        {
          "internalType": "uint256",
          "name": "",
          "type": "uint256"
        }
      ],
      "stateMutability": "view",
      "type": "function"
    },
    {
      "inputs": [
        {
          "internalType": "uint256",
          "name": "tokenId",
          "type": "uint256"
        }
      ],
      "name": "getApproved",
      "outputs": [
        {
          "internalType": "address",
          "name": "",
          "type": "address"
        }
      ],
      "stateMutability": "view",
      "type": "function"
    },
    {
      "inputs": [],
      "name": "getCurrentTokenIdCounter",
      "outputs": [
        {
          "internalType": "uint256",
          "name": "",
          "type": "uint256"
        }
      ],
      "stateMutability": "view",
      "type": "function"
    },
    {
      "inputs": [
        {
          "internalType": "address",
          "name": "owner",
          "type": "address"
        },
        {
          "internalType": "address",
          "name": "operator",
          "type": "address"
        }
      ],
      "name": "isApprovedForAll",
      "outputs": [
        {
          "internalType": "bool",
          "name": "",
          "type": "bool"
        }
      ],
      "stateMutability": "view",
      "type": "function"
    },
    {
      "inputs": [
        {
          "internalType": "string",
          "name": "uri",
          "type": "string"
        }
      ],
      "name": "isContentOwned",
      "outputs": [
        {
          "internalType": "bool",
          "name": "",
          "type": "bool"
        }
      ],
      "stateMutability": "view",
      "type": "function"
    },
    {
      "inputs": [
        {
          "internalType": "uint256",
          "name": "tokenId",
          "type": "uint256"
        },
        {
          "internalType": "address payable",
          "name": "userPayableAddress",
          "type": "address"
        }
      ],
      "name": "makeDownPayment",
      "outputs": [],
      "stateMutability": "payable",
      "type": "function"
    },
    {
      "inputs": [
        {
          "internalType": "address",
          "name": "recipient",
          "type": "address"
        },
        {
          "internalType": "string",
          "name": "ipfsTitleDeedURI",
          "type": "string"
        },
        {
          "internalType": "string",
          "name": "propertyId",
          "type": "string"
        }
      ],
      "name": "mintNFT",
      "outputs": [
        {
          "internalType": "uint256",
          "name": "",
          "type": "uint256"
        }
      ],
      "stateMutability": "nonpayable",
      "type": "function"
    },
    {
      "inputs": [],
      "name": "name",
      "outputs": [
        {
          "internalType": "string",
          "name": "",
          "type": "string"
        }
      ],
      "stateMutability": "view",
      "type": "function"
    },
    {
      "inputs": [],
      "name": "owner",
      "outputs": [
        {
          "internalType": "address",
          "name": "",
          "type": "address"
        }
      ],
      "stateMutability": "view",
      "type": "function"
    },
    {
      "inputs": [
        {
          "internalType": "uint256",
          "name": "tokenId",
          "type": "uint256"
        }
      ],
      "name": "ownerOf",
      "outputs": [
        {
          "internalType": "address",
          "name": "",
          "type": "address"
        }
      ],
      "stateMutability": "view",
      "type": "function"
    },
    {
      "inputs": [
        {
          "internalType": "uint256",
          "name": "",
          "type": "uint256"
        }
      ],
      "name": "propertyPrice",
      "outputs": [
        {
          "internalType": "uint256",
          "name": "",
          "type": "uint256"
        }
      ],
      "stateMutability": "view",
      "type": "function"
    },
    {
      "inputs": [
        {
          "internalType": "uint256",
          "name": "tokenId",
          "type": "uint256"
        },
        {
          "internalType": "address",
          "name": "_buyerAddress",
          "type": "address"
        }
      ],
      "name": "releaseDownPayment",
      "outputs": [],
      "stateMutability": "payable",
      "type": "function"
    },
    {
      "inputs": [],
      "name": "renounceOwnership",
      "outputs": [],
      "stateMutability": "nonpayable",
      "type": "function"
    },
    {
      "inputs": [
        {
          "internalType": "address",
          "name": "from",
          "type": "address"
        },
        {
          "internalType": "address",
          "name": "to",
          "type": "address"
        },
        {
          "internalType": "uint256",
          "name": "tokenId",
          "type": "uint256"
        }
      ],
      "name": "safeTransferFrom",
      "outputs": [],
      "stateMutability": "nonpayable",
      "type": "function"
    },
    {
      "inputs": [
        {
          "internalType": "address",
          "name": "from",
          "type": "address"
        },
        {
          "internalType": "address",
          "name": "to",
          "type": "address"
        },
        {
          "internalType": "uint256",
          "name": "tokenId",
          "type": "uint256"
        },
        {
          "internalType": "bytes",
          "name": "data",
          "type": "bytes"
        }
      ],
      "name": "safeTransferFrom",
      "outputs": [],
      "stateMutability": "nonpayable",
      "type": "function"
    },
    {
      "inputs": [
        {
          "internalType": "address",
          "name": "operator",
          "type": "address"
        },
        {
          "internalType": "bool",
          "name": "approved",
          "type": "bool"
        }
      ],
      "name": "setApprovalForAll",
      "outputs": [],
      "stateMutability": "nonpayable",
      "type": "function"
    },
    {
      "inputs": [
        {
          "internalType": "bytes4",
          "name": "interfaceId",
          "type": "bytes4"
        }
      ],
      "name": "supportsInterface",
      "outputs": [
        {
          "internalType": "bool",
          "name": "",
          "type": "bool"
        }
      ],
      "stateMutability": "view",
      "type": "function"
    },
    {
      "inputs": [],
      "name": "symbol",
      "outputs": [
        {
          "internalType": "string",
          "name": "",
          "type": "string"
        }
      ],
      "stateMutability": "view",
      "type": "function"
    },
    {
      "inputs": [
        {
          "internalType": "uint256",
          "name": "",
          "type": "uint256"
        },
        {
          "internalType": "uint256",
          "name": "",
          "type": "uint256"
        }
      ],
      "name": "tokenIdToBuyerAddress",
      "outputs": [
        {
          "internalType": "address",
          "name": "",
          "type": "address"
        }
      ],
      "stateMutability": "view",
      "type": "function"
    },
    {
      "inputs": [
        {
          "internalType": "uint256",
          "name": "",
          "type": "uint256"
        }
      ],
      "name": "tokenIdToSellerPayableAddress",
      "outputs": [
        {
          "internalType": "address payable",
          "name": "",
          "type": "address"
        }
      ],
      "stateMutability": "view",
      "type": "function"
    },
    {
      "inputs": [
        {
          "internalType": "uint256",
          "name": "tokenId",
          "type": "uint256"
        }
      ],
      "name": "tokenURI",
      "outputs": [
        {
          "internalType": "string",
          "name": "",
          "type": "string"
        }
      ],
      "stateMutability": "view",
      "type": "function"
    },
    {
      "inputs": [
        {
          "internalType": "address",
          "name": "from",
          "type": "address"
        },
        {
          "internalType": "address",
          "name": "to",
          "type": "address"
        },
        {
          "internalType": "uint256",
          "name": "tokenId",
          "type": "uint256"
        }
      ],
      "name": "tranfer",
      "outputs": [],
      "stateMutability": "nonpayable",
      "type": "function"
    },
    {
      "inputs": [
        {
          "internalType": "address",
          "name": "from",
          "type": "address"
        },
        {
          "internalType": "address",
          "name": "to",
          "type": "address"
        },
        {
          "internalType": "uint256",
          "name": "tokenId",
          "type": "uint256"
        }
      ],
      "name": "transferFrom",
      "outputs": [],
      "stateMutability": "nonpayable",
      "type": "function"
    },
    {
      "inputs": [
        {
          "internalType": "address",
          "name": "newOwner",
          "type": "address"
        }
      ],
      "name": "transferOwnership",
      "outputs": [],
      "stateMutability": "nonpayable",
      "type": "function"
    }
  ],
  "bytecode": "0x60806040523480156200001157600080fd5b506040518060400160405280600b81526020017f5468726565427269636b730000000000000000000000000000000000000000008152506040518060400160405280600481526020017f544252530000000000000000000000000000000000000000000000000000000081525081600090816200008f919062000412565b508060019081620000a1919062000412565b505050620000c4620000b8620000ca60201b60201c565b620000d260201b60201c565b620004f9565b600033905090565b6000600760009054906101000a900473ffffffffffffffffffffffffffffffffffffffff16905081600760006101000a81548173ffffffffffffffffffffffffffffffffffffffff021916908373ffffffffffffffffffffffffffffffffffffffff1602179055508173ffffffffffffffffffffffffffffffffffffffff168173ffffffffffffffffffffffffffffffffffffffff167f8be0079c531659141344cd1fd0a4f28419497f9722a3daafe3b4186f6b6457e060405160405180910390a35050565b600081519050919050565b7f4e487b7100000000000000000000000000000000000000000000000000000000600052604160045260246000fd5b7f4e487b7100000000000000000000000000000000000000000000000000000000600052602260045260246000fd5b600060028204905060018216806200021a57607f821691505b60208210810362000230576200022f620001d2565b5b50919050565b60008190508160005260206000209050919050565b60006020601f8301049050919050565b600082821b905092915050565b6000600883026200029a7fffffffffffffffffffffffffffffffffffffffffffffffffffffffffffffffff826200025b565b620002a686836200025b565b95508019841693508086168417925050509392505050565b6000819050919050565b6000819050919050565b6000620002f3620002ed620002e784620002be565b620002c8565b620002be565b9050919050565b6000819050919050565b6200030f83620002d2565b620003276200031e82620002fa565b84845462000268565b825550505050565b600090565b6200033e6200032f565b6200034b81848462000304565b505050565b5b8181101562000373576200036760008262000334565b60018101905062000351565b5050565b601f821115620003c2576200038c8162000236565b62000397846200024b565b81016020851015620003a7578190505b620003bf620003b6856200024b565b83018262000350565b50505b505050565b600082821c905092915050565b6000620003e760001984600802620003c7565b1980831691505092915050565b6000620004028383620003d4565b9150826002028217905092915050565b6200041d8262000198565b67ffffffffffffffff811115620004395762000438620001a3565b5b62000445825462000201565b6200045282828562000377565b600060209050601f8311600181146200048a576000841562000475578287015190505b620004818582620003f4565b865550620004f1565b601f1984166200049a8662000236565b60005b82811015620004c4578489015182556001820191506020850194506020810190506200049d565b86831015620004e45784890151620004e0601f891682620003d4565b8355505b6001600288020188555050505b505050505050565b61451f80620005096000396000f3fe6080604052600436106101e35760003560e01c80638c6743e011610102578063b364cf7d11610095578063c87b56dd11610064578063c87b56dd14610732578063e985e9c51461076f578063f2fde38b146107ac578063f3020d83146107d5576101e3565b8063b364cf7d1461067a578063b88d4fde146106a3578063bd1157a9146106cc578063c12e1a0714610709576101e3565b80639f1cabc6116100d15780639f1cabc6146105bb578063a22cb465146105f8578063a3ee38ae14610621578063a983fa491461065e576101e3565b80638c6743e0146104fd5780638da5cb5b14610528578063914e58f51461055357806395d89b4114610590576101e3565b80633a28551e1161017a57806370a082311161014957806370a0823114610441578063715018a61461047e578063747f9b4f1461049557806384c4bd4b146104d2576101e3565b80633a28551e1461036157806342842e0e1461039e5780634412e439146103c75780636352211e14610404576101e3565b806309f5c475116101b657806309f5c475146102b657806314050c5a146102d257806323b872dd1461030f57806326530f3914610338576101e3565b806301ffc9a7146101e857806306fdde0314610225578063081812fc14610250578063095ea7b31461028d575b600080fd5b3480156101f457600080fd5b5061020f600480360381019061020a9190612c0a565b6107f1565b60405161021c9190612c52565b60405180910390f35b34801561023157600080fd5b5061023a6108d3565b6040516102479190612cfd565b60405180910390f35b34801561025c57600080fd5b5061027760048036038101906102729190612d55565b610965565b6040516102849190612dc3565b60405180910390f35b34801561029957600080fd5b506102b460048036038101906102af9190612e0a565b6109ab565b005b6102d060048036038101906102cb9190612d55565b610ac2565b005b3480156102de57600080fd5b506102f960048036038101906102f49190612d55565b610bdd565b6040516103069190612e59565b60405180910390f35b34801561031b57600080fd5b5061033660048036038101906103319190612e74565b610bf5565b005b34801561034457600080fd5b5061035f600480360381019061035a9190612e74565b610c55565b005b34801561036d57600080fd5b5061038860048036038101906103839190612ec7565b610c65565b6040516103959190612f15565b60405180910390f35b3480156103aa57600080fd5b506103c560048036038101906103c09190612e74565b610c98565b005b3480156103d357600080fd5b506103ee60048036038101906103e99190612ec7565b610dcf565b6040516103fb9190612e59565b60405180910390f35b34801561041057600080fd5b5061042b60048036038101906104269190612d55565b610de7565b6040516104389190612dc3565b60405180910390f35b34801561044d57600080fd5b5061046860048036038101906104639190612ec7565b610e6d565b6040516104759190612e59565b60405180910390f35b34801561048a57600080fd5b50610493610f24565b005b3480156104a157600080fd5b506104bc60048036038101906104b79190612d55565b610f38565b6040516104c99190612e59565b60405180910390f35b3480156104de57600080fd5b506104e7610f50565b6040516104f49190612e59565b60405180910390f35b34801561050957600080fd5b50610512610f5c565b60405161051f9190612e59565b60405180910390f35b34801561053457600080fd5b5061053d610f72565b60405161054a9190612dc3565b60405180910390f35b34801561055f57600080fd5b5061057a60048036038101906105759190612d55565b610f9c565b6040516105879190612f15565b60405180910390f35b34801561059c57600080fd5b506105a5610fcf565b6040516105b29190612cfd565b60405180910390f35b3480156105c757600080fd5b506105e260048036038101906105dd9190613065565b611061565b6040516105ef9190612c52565b60405180910390f35b34801561060457600080fd5b5061061f600480360381019061061a91906130da565b61109c565b005b34801561062d57600080fd5b506106486004803603810190610643919061311a565b6110b2565b6040516106559190612e59565b60405180910390f35b610678600480360381019061067391906131d1565b6111b8565b005b34801561068657600080fd5b506106a1600480360381019061069c9190613211565b611383565b005b3480156106af57600080fd5b506106ca60048036038101906106c591906132f2565b61150a565b005b3480156106d857600080fd5b506106f360048036038101906106ee9190613375565b61156c565b6040516107009190612dc3565b60405180910390f35b34801561071557600080fd5b50610730600480360381019061072b91906133b5565b6115ba565b005b34801561073e57600080fd5b5061075960048036038101906107549190612d55565b6116bc565b6040516107669190612cfd565b60405180910390f35b34801561077b57600080fd5b5061079660048036038101906107919190613408565b6116ce565b6040516107a39190612c52565b60405180910390f35b3480156107b857600080fd5b506107d360048036038101906107ce9190612ec7565b611762565b005b6107ef60048036038101906107ea9190613211565b6117e5565b005b60007f80ac58cd000000000000000000000000000000000000000000000000000000007bffffffffffffffffffffffffffffffffffffffffffffffffffffffff1916827bffffffffffffffffffffffffffffffffffffffffffffffffffffffff191614806108bc57507f5b5e139f000000000000000000000000000000000000000000000000000000007bffffffffffffffffffffffffffffffffffffffffffffffffffffffff1916827bffffffffffffffffffffffffffffffffffffffffffffffffffffffff1916145b806108cc57506108cb826118ae565b5b9050919050565b6060600080546108e290613477565b80601f016020809104026020016040519081016040528092919081815260200182805461090e90613477565b801561095b5780601f106109305761010080835404028352916020019161095b565b820191906000526020600020905b81548152906001019060200180831161093e57829003601f168201915b5050505050905090565b600061097082611918565b6004600083815260200190815260200160002060009054906101000a900473ffffffffffffffffffffffffffffffffffffffff169050919050565b60006109b682610de7565b90508073ffffffffffffffffffffffffffffffffffffffff168373ffffffffffffffffffffffffffffffffffffffff1603610a26576040517f08c379a0000000000000000000000000000000000000000000000000000000008152600401610a1d9061351a565b60405180910390fd5b8073ffffffffffffffffffffffffffffffffffffffff16610a45611963565b73ffffffffffffffffffffffffffffffffffffffff161480610a745750610a7381610a6e611963565b6116ce565b5b610ab3576040517f08c379a0000000000000000000000000000000000000000000000000000000008152600401610aaa906135ac565b60405180910390fd5b610abd838361196b565b505050565b600c600082815260200190815260200160002054600b600083815260200190815260200160002054610af491906135fb565b341015610b36576040517f08c379a0000000000000000000000000000000000000000000000000000000008152600401610b2d9061367b565b60405180910390fd5b610b41303383610c55565b60006010600083815260200190815260200160002060009054906101000a900473ffffffffffffffffffffffffffffffffffffffff1690506000600b60008481526020019081526020016000205490508173ffffffffffffffffffffffffffffffffffffffff166108fc829081150290604051600060405180830381858888f19350505050158015610bd7573d6000803e3d6000fd5b50505050565b600b6020528060005260406000206000915090505481565b610c06610c00611963565b82611a24565b610c45576040517f08c379a0000000000000000000000000000000000000000000000000000000008152600401610c3c9061370d565b60405180910390fd5b610c50838383611ab9565b505050565b610c60838383610c98565b505050565b600f6020528060005260406000206000915054906101000a900473ffffffffffffffffffffffffffffffffffffffff1681565b600073ffffffffffffffffffffffffffffffffffffffff168373ffffffffffffffffffffffffffffffffffffffff1603610d07576040517f08c379a0000000000000000000000000000000000000000000000000000000008152600401610cfe90613779565b60405180910390fd5b600073ffffffffffffffffffffffffffffffffffffffff168273ffffffffffffffffffffffffffffffffffffffff1603610d76576040517f08c379a0000000000000000000000000000000000000000000000000000000008152600401610d6d906137e5565b60405180910390fd5b610d808382611a24565b610dbf576040517f08c379a0000000000000000000000000000000000000000000000000000000008152600401610db690613851565b60405180910390fd5b610dca838383611ab9565b505050565b600e6020528060005260406000206000915090505481565b600080610df383611db2565b9050600073ffffffffffffffffffffffffffffffffffffffff168173ffffffffffffffffffffffffffffffffffffffff1603610e64576040517f08c379a0000000000000000000000000000000000000000000000000000000008152600401610e5b906138bd565b60405180910390fd5b80915050919050565b60008073ffffffffffffffffffffffffffffffffffffffff168273ffffffffffffffffffffffffffffffffffffffff1603610edd576040517f08c379a0000000000000000000000000000000000000000000000000000000008152600401610ed49061394f565b60405180910390fd5b600360008373ffffffffffffffffffffffffffffffffffffffff1673ffffffffffffffffffffffffffffffffffffffff168152602001908152602001600020549050919050565b610f2c611def565b610f366000611e6d565b565b600c6020528060005260406000206000915090505481565b60088060000154905081565b600080610f696008611f33565b90508091505090565b6000600760009054906101000a900473ffffffffffffffffffffffffffffffffffffffff16905090565b60106020528060005260406000206000915054906101000a900473ffffffffffffffffffffffffffffffffffffffff1681565b606060018054610fde90613477565b80601f016020809104026020016040519081016040528092919081815260200182805461100a90613477565b80156110575780601f1061102c57610100808354040283529160200191611057565b820191906000526020600020905b81548152906001019060200180831161103a57829003601f168201915b5050505050905090565b6000600160098360405161107591906139ab565b908152602001604051809103902060009054906101000a900460ff1660ff16149050919050565b6110ae6110a7611963565b8383611f41565b5050565b60006110bc611def565b6110c583611061565b15611105576040517f08c379a00000000000000000000000000000000000000000000000000000000081526004016110fc90613a0e565b60405180910390fd5b600061110f610f5c565b905061111b60086120ad565b600160098560405161112d91906139ab565b908152602001604051809103902060006101000a81548160ff021916908360ff160217905550604051806020016040528084815250600a8560405161117291906139ab565b908152602001604051809103902090600161118e929190612a72565b5061119985826120c3565b6111a381856122e0565b6111ad338261196b565b809150509392505050565b600c60008381526020019081526020016000205434101561120e576040517f08c379a000000000000000000000000000000000000000000000000000000000815260040161120590613a7a565b60405180910390fd5b34600e60003373ffffffffffffffffffffffffffffffffffffffff1673ffffffffffffffffffffffffffffffffffffffff168152602001908152602001600020600082825461125d9190613a9a565b9250508190555080600f60003373ffffffffffffffffffffffffffffffffffffffff1673ffffffffffffffffffffffffffffffffffffffff16815260200190815260200160002060006101000a81548173ffffffffffffffffffffffffffffffffffffffff021916908373ffffffffffffffffffffffffffffffffffffffff1602179055506000600d6000848152602001908152602001600020905080829080600181540180825580915050600190039060005260206000200160009091909190916101000a81548173ffffffffffffffffffffffffffffffffffffffff021916908373ffffffffffffffffffffffffffffffffffffffff16021790555080600d600085815260200190815260200160002090805461137d929190612acb565b50505050565b61138d3383611a24565b6113cc576040517f08c379a00000000000000000000000000000000000000000000000000000000081526004016113c390613b40565b60405180910390fd5b6113d7333084610c55565b6000600d600084815260200190815260200160002080548060200260200160405190810160405280929190818152602001828054801561146c57602002820191906000526020600020905b8160009054906101000a900473ffffffffffffffffffffffffffffffffffffffff1673ffffffffffffffffffffffffffffffffffffffff1681526020019060010190808311611422575b5050505050905060005b8151811015611504578273ffffffffffffffffffffffffffffffffffffffff168282815181106114a9576114a8613b60565b5b602002602001015173ffffffffffffffffffffffffffffffffffffffff16146114f1576114f0848383815181106114e3576114e2613b60565b5b60200260200101516117e5565b5b80806114fc90613b8f565b915050611476565b50505050565b61151b611515611963565b83611a24565b61155a576040517f08c379a00000000000000000000000000000000000000000000000000000000081526004016115519061370d565b60405180910390fd5b6115668484848461234d565b50505050565b600d602052816000526040600020818154811061158857600080fd5b906000526020600020016000915091509054906101000a900473ffffffffffffffffffffffffffffffffffffffff1681565b6115c43384611a24565b611603576040517f08c379a00000000000000000000000000000000000000000000000000000000081526004016115fa90613c49565b60405180910390fd5b670de0b6b3a7640000826116179190613c69565b600b600085815260200190815260200160002081905550670de0b6b3a7640000816116429190613c69565b600c60008581526020019081526020016000208190555060003390506000819050806010600087815260200190815260200160002060006101000a81548173ffffffffffffffffffffffffffffffffffffffff021916908373ffffffffffffffffffffffffffffffffffffffff1602179055505050505050565b60606116c7826123a9565b9050919050565b6000600560008473ffffffffffffffffffffffffffffffffffffffff1673ffffffffffffffffffffffffffffffffffffffff16815260200190815260200160002060008373ffffffffffffffffffffffffffffffffffffffff1673ffffffffffffffffffffffffffffffffffffffff16815260200190815260200160002060009054906101000a900460ff16905092915050565b61176a611def565b600073ffffffffffffffffffffffffffffffffffffffff168173ffffffffffffffffffffffffffffffffffffffff16036117d9576040517f08c379a00000000000000000000000000000000000000000000000000000000081526004016117d090613d1d565b60405180910390fd5b6117e281611e6d565b50565b6000600f60008373ffffffffffffffffffffffffffffffffffffffff1673ffffffffffffffffffffffffffffffffffffffff16815260200190815260200160002060009054906101000a900473ffffffffffffffffffffffffffffffffffffffff1690506000600c60008581526020019081526020016000205490508173ffffffffffffffffffffffffffffffffffffffff166108fc829081150290604051600060405180830381858888f193505050501580156118a7573d6000803e3d6000fd5b5050505050565b60007f01ffc9a7000000000000000000000000000000000000000000000000000000007bffffffffffffffffffffffffffffffffffffffffffffffffffffffff1916827bffffffffffffffffffffffffffffffffffffffffffffffffffffffff1916149050919050565b611921816124bb565b611960576040517f08c379a0000000000000000000000000000000000000000000000000000000008152600401611957906138bd565b60405180910390fd5b50565b600033905090565b816004600083815260200190815260200160002060006101000a81548173ffffffffffffffffffffffffffffffffffffffff021916908373ffffffffffffffffffffffffffffffffffffffff160217905550808273ffffffffffffffffffffffffffffffffffffffff166119de83610de7565b73ffffffffffffffffffffffffffffffffffffffff167f8c5be1e5ebec7d5bd14f71427d1e84f3dd0314c0f7b2291e5b200ac8c7c3b92560405160405180910390a45050565b600080611a3083610de7565b90508073ffffffffffffffffffffffffffffffffffffffff168473ffffffffffffffffffffffffffffffffffffffff161480611a725750611a7181856116ce565b5b80611ab057508373ffffffffffffffffffffffffffffffffffffffff16611a9884610965565b73ffffffffffffffffffffffffffffffffffffffff16145b91505092915050565b8273ffffffffffffffffffffffffffffffffffffffff16611ad982610de7565b73ffffffffffffffffffffffffffffffffffffffff1614611b2f576040517f08c379a0000000000000000000000000000000000000000000000000000000008152600401611b2690613daf565b60405180910390fd5b600073ffffffffffffffffffffffffffffffffffffffff168273ffffffffffffffffffffffffffffffffffffffff1603611b9e576040517f08c379a0000000000000000000000000000000000000000000000000000000008152600401611b9590613e41565b60405180910390fd5b611bab83838360016124fc565b8273ffffffffffffffffffffffffffffffffffffffff16611bcb82610de7565b73ffffffffffffffffffffffffffffffffffffffff1614611c21576040517f08c379a0000000000000000000000000000000000000000000000000000000008152600401611c1890613daf565b60405180910390fd5b6004600082815260200190815260200160002060006101000a81549073ffffffffffffffffffffffffffffffffffffffff02191690556001600360008573ffffffffffffffffffffffffffffffffffffffff1673ffffffffffffffffffffffffffffffffffffffff168152602001908152602001600020600082825403925050819055506001600360008473ffffffffffffffffffffffffffffffffffffffff1673ffffffffffffffffffffffffffffffffffffffff16815260200190815260200160002060008282540192505081905550816002600083815260200190815260200160002060006101000a81548173ffffffffffffffffffffffffffffffffffffffff021916908373ffffffffffffffffffffffffffffffffffffffff160217905550808273ffffffffffffffffffffffffffffffffffffffff168473ffffffffffffffffffffffffffffffffffffffff167fddf252ad1be2c89b69c2b068fc378daa952ba7f163c4a11628f55a4df523b3ef60405160405180910390a4611dad8383836001612622565b505050565b60006002600083815260200190815260200160002060009054906101000a900473ffffffffffffffffffffffffffffffffffffffff169050919050565b611df7611963565b73ffffffffffffffffffffffffffffffffffffffff16611e15610f72565b73ffffffffffffffffffffffffffffffffffffffff1614611e6b576040517f08c379a0000000000000000000000000000000000000000000000000000000008152600401611e6290613ead565b60405180910390fd5b565b6000600760009054906101000a900473ffffffffffffffffffffffffffffffffffffffff16905081600760006101000a81548173ffffffffffffffffffffffffffffffffffffffff021916908373ffffffffffffffffffffffffffffffffffffffff1602179055508173ffffffffffffffffffffffffffffffffffffffff168173ffffffffffffffffffffffffffffffffffffffff167f8be0079c531659141344cd1fd0a4f28419497f9722a3daafe3b4186f6b6457e060405160405180910390a35050565b600081600001549050919050565b8173ffffffffffffffffffffffffffffffffffffffff168373ffffffffffffffffffffffffffffffffffffffff1603611faf576040517f08c379a0000000000000000000000000000000000000000000000000000000008152600401611fa690613f19565b60405180910390fd5b80600560008573ffffffffffffffffffffffffffffffffffffffff1673ffffffffffffffffffffffffffffffffffffffff16815260200190815260200160002060008473ffffffffffffffffffffffffffffffffffffffff1673ffffffffffffffffffffffffffffffffffffffff16815260200190815260200160002060006101000a81548160ff0219169083151502179055508173ffffffffffffffffffffffffffffffffffffffff168373ffffffffffffffffffffffffffffffffffffffff167f17307eab39ab6107e8899845ad3d59bd9653f200f220920489ca2b5937696c31836040516120a09190612c52565b60405180910390a3505050565b6001816000016000828254019250508190555050565b600073ffffffffffffffffffffffffffffffffffffffff168273ffffffffffffffffffffffffffffffffffffffff1603612132576040517f08c379a000000000000000000000000000000000000000000000000000000000815260040161212990613f85565b60405180910390fd5b61213b816124bb565b1561217b576040517f08c379a000000000000000000000000000000000000000000000000000000000815260040161217290613ff1565b60405180910390fd5b6121896000838360016124fc565b612192816124bb565b156121d2576040517f08c379a00000000000000000000000000000000000000000000000000000000081526004016121c990613ff1565b60405180910390fd5b6001600360008473ffffffffffffffffffffffffffffffffffffffff1673ffffffffffffffffffffffffffffffffffffffff16815260200190815260200160002060008282540192505081905550816002600083815260200190815260200160002060006101000a81548173ffffffffffffffffffffffffffffffffffffffff021916908373ffffffffffffffffffffffffffffffffffffffff160217905550808273ffffffffffffffffffffffffffffffffffffffff16600073ffffffffffffffffffffffffffffffffffffffff167fddf252ad1be2c89b69c2b068fc378daa952ba7f163c4a11628f55a4df523b3ef60405160405180910390a46122dc600083836001612622565b5050565b6122e9826124bb565b612328576040517f08c379a000000000000000000000000000000000000000000000000000000000815260040161231f90614083565b60405180910390fd5b80600660008481526020019081526020016000209081612348919061424f565b505050565b612358848484611ab9565b61236484848484612628565b6123a3576040517f08c379a000000000000000000000000000000000000000000000000000000000815260040161239a90614393565b60405180910390fd5b50505050565b60606123b482611918565b60006006600084815260200190815260200160002080546123d490613477565b80601f016020809104026020016040519081016040528092919081815260200182805461240090613477565b801561244d5780601f106124225761010080835404028352916020019161244d565b820191906000526020600020905b81548152906001019060200180831161243057829003601f168201915b50505050509050600061245e6127af565b905060008151036124735781925050506124b6565b6000825111156124a85780826040516020016124909291906143b3565b604051602081830303815290604052925050506124b6565b6124b1846127c6565b925050505b919050565b60008073ffffffffffffffffffffffffffffffffffffffff166124dd83611db2565b73ffffffffffffffffffffffffffffffffffffffff1614159050919050565b600181111561261c57600073ffffffffffffffffffffffffffffffffffffffff168473ffffffffffffffffffffffffffffffffffffffff16146125905780600360008673ffffffffffffffffffffffffffffffffffffffff1673ffffffffffffffffffffffffffffffffffffffff168152602001908152602001600020600082825461258891906135fb565b925050819055505b600073ffffffffffffffffffffffffffffffffffffffff168373ffffffffffffffffffffffffffffffffffffffff161461261b5780600360008573ffffffffffffffffffffffffffffffffffffffff1673ffffffffffffffffffffffffffffffffffffffff16815260200190815260200160002060008282546126139190613a9a565b925050819055505b5b50505050565b50505050565b60006126498473ffffffffffffffffffffffffffffffffffffffff1661282e565b156127a2578373ffffffffffffffffffffffffffffffffffffffff1663150b7a02612672611963565b8786866040518563ffffffff1660e01b8152600401612694949392919061442c565b6020604051808303816000875af19250505080156126d057506040513d601f19601f820116820180604052508101906126cd919061448d565b60015b612752573d8060008114612700576040519150601f19603f3d011682016040523d82523d6000602084013e612705565b606091505b50600081510361274a576040517f08c379a000000000000000000000000000000000000000000000000000000000815260040161274190614393565b60405180910390fd5b805181602001fd5b63150b7a0260e01b7bffffffffffffffffffffffffffffffffffffffffffffffffffffffff1916817bffffffffffffffffffffffffffffffffffffffffffffffffffffffff1916149150506127a7565b600190505b949350505050565b606060405180602001604052806000815250905090565b60606127d182611918565b60006127db6127af565b905060008151116127fb5760405180602001604052806000815250612826565b8061280584612851565b6040516020016128169291906143b3565b6040516020818303038152906040525b915050919050565b6000808273ffffffffffffffffffffffffffffffffffffffff163b119050919050565b6060600060016128608461291f565b01905060008167ffffffffffffffff81111561287f5761287e612f3a565b5b6040519080825280601f01601f1916602001820160405280156128b15781602001600182028036833780820191505090505b509050600082602001820190505b600115612914578080600190039150507f3031323334353637383961626364656600000000000000000000000000000000600a86061a8153600a8581612908576129076144ba565b5b049450600085036128bf575b819350505050919050565b600080600090507a184f03e93ff9f4daa797ed6e38ed64bf6a1f010000000000000000831061297d577a184f03e93ff9f4daa797ed6e38ed64bf6a1f0100000000000000008381612973576129726144ba565b5b0492506040810190505b6d04ee2d6d415b85acef810000000083106129ba576d04ee2d6d415b85acef810000000083816129b0576129af6144ba565b5b0492506020810190505b662386f26fc1000083106129e957662386f26fc1000083816129df576129de6144ba565b5b0492506010810190505b6305f5e1008310612a12576305f5e1008381612a0857612a076144ba565b5b0492506008810190505b6127108310612a37576127108381612a2d57612a2c6144ba565b5b0492506004810190505b60648310612a5a5760648381612a5057612a4f6144ba565b5b0492506002810190505b600a8310612a69576001810190505b80915050919050565b828054828255906000526020600020908101928215612aba579160200282015b82811115612ab9578251829081612aa9919061424f565b5091602001919060010190612a92565b5b509050612ac79190612b1d565b5090565b828054828255906000526020600020908101928215612b0c5760005260206000209182015b82811115612b0b578254825591600101919060010190612af0565b5b509050612b199190612b41565b5090565b5b80821115612b3d5760008181612b349190612b5e565b50600101612b1e565b5090565b5b80821115612b5a576000816000905550600101612b42565b5090565b508054612b6a90613477565b6000825580601f10612b7c5750612b9b565b601f016020900490600052602060002090810190612b9a9190612b41565b5b50565b6000604051905090565b600080fd5b600080fd5b60007fffffffff0000000000000000000000000000000000000000000000000000000082169050919050565b612be781612bb2565b8114612bf257600080fd5b50565b600081359050612c0481612bde565b92915050565b600060208284031215612c2057612c1f612ba8565b5b6000612c2e84828501612bf5565b91505092915050565b60008115159050919050565b612c4c81612c37565b82525050565b6000602082019050612c676000830184612c43565b92915050565b600081519050919050565b600082825260208201905092915050565b60005b83811015612ca7578082015181840152602081019050612c8c565b60008484015250505050565b6000601f19601f8301169050919050565b6000612ccf82612c6d565b612cd98185612c78565b9350612ce9818560208601612c89565b612cf281612cb3565b840191505092915050565b60006020820190508181036000830152612d178184612cc4565b905092915050565b6000819050919050565b612d3281612d1f565b8114612d3d57600080fd5b50565b600081359050612d4f81612d29565b92915050565b600060208284031215612d6b57612d6a612ba8565b5b6000612d7984828501612d40565b91505092915050565b600073ffffffffffffffffffffffffffffffffffffffff82169050919050565b6000612dad82612d82565b9050919050565b612dbd81612da2565b82525050565b6000602082019050612dd86000830184612db4565b92915050565b612de781612da2565b8114612df257600080fd5b50565b600081359050612e0481612dde565b92915050565b60008060408385031215612e2157612e20612ba8565b5b6000612e2f85828601612df5565b9250506020612e4085828601612d40565b9150509250929050565b612e5381612d1f565b82525050565b6000602082019050612e6e6000830184612e4a565b92915050565b600080600060608486031215612e8d57612e8c612ba8565b5b6000612e9b86828701612df5565b9350506020612eac86828701612df5565b9250506040612ebd86828701612d40565b9150509250925092565b600060208284031215612edd57612edc612ba8565b5b6000612eeb84828501612df5565b91505092915050565b6000612eff82612d82565b9050919050565b612f0f81612ef4565b82525050565b6000602082019050612f2a6000830184612f06565b92915050565b600080fd5b600080fd5b7f4e487b7100000000000000000000000000000000000000000000000000000000600052604160045260246000fd5b612f7282612cb3565b810181811067ffffffffffffffff82111715612f9157612f90612f3a565b5b80604052505050565b6000612fa4612b9e565b9050612fb08282612f69565b919050565b600067ffffffffffffffff821115612fd057612fcf612f3a565b5b612fd982612cb3565b9050602081019050919050565b82818337600083830152505050565b600061300861300384612fb5565b612f9a565b90508281526020810184848401111561302457613023612f35565b5b61302f848285612fe6565b509392505050565b600082601f83011261304c5761304b612f30565b5b813561305c848260208601612ff5565b91505092915050565b60006020828403121561307b5761307a612ba8565b5b600082013567ffffffffffffffff81111561309957613098612bad565b5b6130a584828501613037565b91505092915050565b6130b781612c37565b81146130c257600080fd5b50565b6000813590506130d4816130ae565b92915050565b600080604083850312156130f1576130f0612ba8565b5b60006130ff85828601612df5565b9250506020613110858286016130c5565b9150509250929050565b60008060006060848603121561313357613132612ba8565b5b600061314186828701612df5565b935050602084013567ffffffffffffffff81111561316257613161612bad565b5b61316e86828701613037565b925050604084013567ffffffffffffffff81111561318f5761318e612bad565b5b61319b86828701613037565b9150509250925092565b6131ae81612ef4565b81146131b957600080fd5b50565b6000813590506131cb816131a5565b92915050565b600080604083850312156131e8576131e7612ba8565b5b60006131f685828601612d40565b9250506020613207858286016131bc565b9150509250929050565b6000806040838503121561322857613227612ba8565b5b600061323685828601612d40565b925050602061324785828601612df5565b9150509250929050565b600067ffffffffffffffff82111561326c5761326b612f3a565b5b61327582612cb3565b9050602081019050919050565b600061329561329084613251565b612f9a565b9050828152602081018484840111156132b1576132b0612f35565b5b6132bc848285612fe6565b509392505050565b600082601f8301126132d9576132d8612f30565b5b81356132e9848260208601613282565b91505092915050565b6000806000806080858703121561330c5761330b612ba8565b5b600061331a87828801612df5565b945050602061332b87828801612df5565b935050604061333c87828801612d40565b925050606085013567ffffffffffffffff81111561335d5761335c612bad565b5b613369878288016132c4565b91505092959194509250565b6000806040838503121561338c5761338b612ba8565b5b600061339a85828601612d40565b92505060206133ab85828601612d40565b9150509250929050565b6000806000606084860312156133ce576133cd612ba8565b5b60006133dc86828701612d40565b93505060206133ed86828701612d40565b92505060406133fe86828701612d40565b9150509250925092565b6000806040838503121561341f5761341e612ba8565b5b600061342d85828601612df5565b925050602061343e85828601612df5565b9150509250929050565b7f4e487b7100000000000000000000000000000000000000000000000000000000600052602260045260246000fd5b6000600282049050600182168061348f57607f821691505b6020821081036134a2576134a1613448565b5b50919050565b7f4552433732313a20617070726f76616c20746f2063757272656e74206f776e6560008201527f7200000000000000000000000000000000000000000000000000000000000000602082015250565b6000613504602183612c78565b915061350f826134a8565b604082019050919050565b60006020820190508181036000830152613533816134f7565b9050919050565b7f4552433732313a20617070726f76652063616c6c6572206973206e6f7420746f60008201527f6b656e206f776e6572206f7220617070726f76656420666f7220616c6c000000602082015250565b6000613596603d83612c78565b91506135a18261353a565b604082019050919050565b600060208201905081810360008301526135c581613589565b9050919050565b7f4e487b7100000000000000000000000000000000000000000000000000000000600052601160045260246000fd5b600061360682612d1f565b915061361183612d1f565b9250828203905081811115613629576136286135cc565b5b92915050565b7f706c656173652070617920636f727265637420616d6f756e7400000000000000600082015250565b6000613665601983612c78565b91506136708261362f565b602082019050919050565b6000602082019050818103600083015261369481613658565b9050919050565b7f4552433732313a2063616c6c6572206973206e6f7420746f6b656e206f776e6560008201527f72206f7220617070726f76656400000000000000000000000000000000000000602082015250565b60006136f7602d83612c78565b91506137028261369b565b604082019050919050565b60006020820190508181036000830152613726816136ea565b9050919050565b7f46726f6d2061646472657373206973206e6f742076616c696400000000000000600082015250565b6000613763601983612c78565b915061376e8261372d565b602082019050919050565b6000602082019050818103600083015261379281613756565b9050919050565b7f546f2061646472657373206973206e6f742076616c6964000000000000000000600082015250565b60006137cf601783612c78565b91506137da82613799565b602082019050919050565b600060208201905081810360008301526137fe816137c2565b9050919050565b7f5472616e73666572206e6f74207065726d697474656400000000000000000000600082015250565b600061383b601683612c78565b915061384682613805565b602082019050919050565b6000602082019050818103600083015261386a8161382e565b9050919050565b7f4552433732313a20696e76616c696420746f6b656e2049440000000000000000600082015250565b60006138a7601883612c78565b91506138b282613871565b602082019050919050565b600060208201905081810360008301526138d68161389a565b9050919050565b7f4552433732313a2061646472657373207a65726f206973206e6f74206120766160008201527f6c6964206f776e65720000000000000000000000000000000000000000000000602082015250565b6000613939602983612c78565b9150613944826138dd565b604082019050919050565b600060208201905081810360008301526139688161392c565b9050919050565b600081905092915050565b600061398582612c6d565b61398f818561396f565b935061399f818560208601612c89565b80840191505092915050565b60006139b7828461397a565b915081905092915050565b7f4e465420616c7265616479206d696e7465640000000000000000000000000000600082015250565b60006139f8601283612c78565b9150613a03826139c2565b602082019050919050565b60006020820190508181036000830152613a27816139eb565b9050919050565b7f706c65617365206465706f73697420636f727265637420616d6f756e74000000600082015250565b6000613a64601d83612c78565b9150613a6f82613a2e565b602082019050919050565b60006020820190508181036000830152613a9381613a57565b9050919050565b6000613aa582612d1f565b9150613ab083612d1f565b9250828201905080821115613ac857613ac76135cc565b5b92915050565b7f6f6e6c79206f776e6572206f66204e46542063616e207374617274206573637260008201527f6f772070726f6365737300000000000000000000000000000000000000000000602082015250565b6000613b2a602a83612c78565b9150613b3582613ace565b604082019050919050565b60006020820190508181036000830152613b5981613b1d565b9050919050565b7f4e487b7100000000000000000000000000000000000000000000000000000000600052603260045260246000fd5b6000613b9a82612d1f565b91507fffffffffffffffffffffffffffffffffffffffffffffffffffffffffffffffff8203613bcc57613bcb6135cc565b5b600182019050919050565b7f6f6e6c79206f776e6572206f66204e46542063616e20637265617465206c697360008201527f74696e6700000000000000000000000000000000000000000000000000000000602082015250565b6000613c33602483612c78565b9150613c3e82613bd7565b604082019050919050565b60006020820190508181036000830152613c6281613c26565b9050919050565b6000613c7482612d1f565b9150613c7f83612d1f565b9250828202613c8d81612d1f565b91508282048414831517613ca457613ca36135cc565b5b5092915050565b7f4f776e61626c653a206e6577206f776e657220697320746865207a65726f206160008201527f6464726573730000000000000000000000000000000000000000000000000000602082015250565b6000613d07602683612c78565b9150613d1282613cab565b604082019050919050565b60006020820190508181036000830152613d3681613cfa565b9050919050565b7f4552433732313a207472616e736665722066726f6d20696e636f72726563742060008201527f6f776e6572000000000000000000000000000000000000000000000000000000602082015250565b6000613d99602583612c78565b9150613da482613d3d565b604082019050919050565b60006020820190508181036000830152613dc881613d8c565b9050919050565b7f4552433732313a207472616e7366657220746f20746865207a65726f2061646460008201527f7265737300000000000000000000000000000000000000000000000000000000602082015250565b6000613e2b602483612c78565b9150613e3682613dcf565b604082019050919050565b60006020820190508181036000830152613e5a81613e1e565b9050919050565b7f4f776e61626c653a2063616c6c6572206973206e6f7420746865206f776e6572600082015250565b6000613e97602083612c78565b9150613ea282613e61565b602082019050919050565b60006020820190508181036000830152613ec681613e8a565b9050919050565b7f4552433732313a20617070726f766520746f2063616c6c657200000000000000600082015250565b6000613f03601983612c78565b9150613f0e82613ecd565b602082019050919050565b60006020820190508181036000830152613f3281613ef6565b9050919050565b7f4552433732313a206d696e7420746f20746865207a65726f2061646472657373600082015250565b6000613f6f602083612c78565b9150613f7a82613f39565b602082019050919050565b60006020820190508181036000830152613f9e81613f62565b9050919050565b7f4552433732313a20746f6b656e20616c7265616479206d696e74656400000000600082015250565b6000613fdb601c83612c78565b9150613fe682613fa5565b602082019050919050565b6000602082019050818103600083015261400a81613fce565b9050919050565b7f45524337323155524953746f726167653a2055524920736574206f66206e6f6e60008201527f6578697374656e7420746f6b656e000000000000000000000000000000000000602082015250565b600061406d602e83612c78565b915061407882614011565b604082019050919050565b6000602082019050818103600083015261409c81614060565b9050919050565b60008190508160005260206000209050919050565b60006020601f8301049050919050565b600082821b905092915050565b6000600883026141057fffffffffffffffffffffffffffffffffffffffffffffffffffffffffffffffff826140c8565b61410f86836140c8565b95508019841693508086168417925050509392505050565b6000819050919050565b600061414c61414761414284612d1f565b614127565b612d1f565b9050919050565b6000819050919050565b61416683614131565b61417a61417282614153565b8484546140d5565b825550505050565b600090565b61418f614182565b61419a81848461415d565b505050565b5b818110156141be576141b3600082614187565b6001810190506141a0565b5050565b601f821115614203576141d4816140a3565b6141dd846140b8565b810160208510156141ec578190505b6142006141f8856140b8565b83018261419f565b50505b505050565b600082821c905092915050565b600061422660001984600802614208565b1980831691505092915050565b600061423f8383614215565b9150826002028217905092915050565b61425882612c6d565b67ffffffffffffffff81111561427157614270612f3a565b5b61427b8254613477565b6142868282856141c2565b600060209050601f8311600181146142b957600084156142a7578287015190505b6142b18582614233565b865550614319565b601f1984166142c7866140a3565b60005b828110156142ef578489015182556001820191506020850194506020810190506142ca565b8683101561430c5784890151614308601f891682614215565b8355505b6001600288020188555050505b505050505050565b7f4552433732313a207472616e7366657220746f206e6f6e20455243373231526560008201527f63656976657220696d706c656d656e7465720000000000000000000000000000602082015250565b600061437d603283612c78565b915061438882614321565b604082019050919050565b600060208201905081810360008301526143ac81614370565b9050919050565b60006143bf828561397a565b91506143cb828461397a565b91508190509392505050565b600081519050919050565b600082825260208201905092915050565b60006143fe826143d7565b61440881856143e2565b9350614418818560208601612c89565b61442181612cb3565b840191505092915050565b60006080820190506144416000830187612db4565b61444e6020830186612db4565b61445b6040830185612e4a565b818103606083015261446d81846143f3565b905095945050505050565b60008151905061448781612bde565b92915050565b6000602082840312156144a3576144a2612ba8565b5b60006144b184828501614478565b91505092915050565b7f4e487b7100000000000000000000000000000000000000000000000000000000600052601260045260246000fdfea2646970667358221220a33fbdf92375c6ad27fc96a947d08356461391abca70d839c4991df340ce50d864736f6c63430008110033",
  "linkReferences": {},
  "deployedLinkReferences": {}
}